{
  "_format": "hh-sol-artifact-1",
  "contractName": "NFT",
  "sourceName": "contracts/NFT.sol",
  "abi": [
    {
      "inputs": [
        {
          "internalType": "address",
          "name": "marketplaceAddress",
          "type": "address"
        }
      ],
      "stateMutability": "nonpayable",
      "type": "constructor"
    },
    {
      "anonymous": false,
      "inputs": [
        {
          "indexed": true,
          "internalType": "address",
          "name": "owner",
          "type": "address"
        },
        {
          "indexed": true,
          "internalType": "address",
          "name": "approved",
          "type": "address"
        },
        {
          "indexed": true,
          "internalType": "uint256",
          "name": "tokenId",
          "type": "uint256"
        }
      ],
      "name": "Approval",
      "type": "event"
    },
    {
      "anonymous": false,
      "inputs": [
        {
          "indexed": true,
          "internalType": "address",
          "name": "owner",
          "type": "address"
        },
        {
          "indexed": true,
          "internalType": "address",
          "name": "operator",
          "type": "address"
        },
        {
          "indexed": false,
          "internalType": "bool",
          "name": "approved",
          "type": "bool"
        }
      ],
      "name": "ApprovalForAll",
      "type": "event"
    },
    {
      "anonymous": false,
      "inputs": [
        {
          "indexed": false,
          "internalType": "uint256",
          "name": "_fromTokenId",
          "type": "uint256"
        },
        {
          "indexed": false,
          "internalType": "uint256",
          "name": "_toTokenId",
          "type": "uint256"
        }
      ],
      "name": "BatchMetadataUpdate",
      "type": "event"
    },
    {
      "anonymous": false,
      "inputs": [
        {
          "indexed": false,
          "internalType": "uint256",
          "name": "_tokenId",
          "type": "uint256"
        }
      ],
      "name": "MetadataUpdate",
      "type": "event"
    },
    {
      "anonymous": false,
      "inputs": [
        {
          "indexed": true,
          "internalType": "address",
          "name": "from",
          "type": "address"
        },
        {
          "indexed": true,
          "internalType": "address",
          "name": "to",
          "type": "address"
        },
        {
          "indexed": true,
          "internalType": "uint256",
          "name": "tokenId",
          "type": "uint256"
        }
      ],
      "name": "Transfer",
      "type": "event"
    },
    {
      "stateMutability": "payable",
      "type": "fallback"
    },
    {
      "inputs": [],
      "name": "_tokenIds",
      "outputs": [
        {
          "internalType": "uint256",
          "name": "_value",
          "type": "uint256"
        }
      ],
      "stateMutability": "view",
      "type": "function"
    },
    {
      "inputs": [
        {
          "internalType": "address",
          "name": "to",
          "type": "address"
        },
        {
          "internalType": "uint256",
          "name": "tokenId",
          "type": "uint256"
        }
      ],
      "name": "approve",
      "outputs": [],
      "stateMutability": "nonpayable",
      "type": "function"
    },
    {
      "inputs": [
        {
          "internalType": "address",
          "name": "owner",
          "type": "address"
        }
      ],
      "name": "balanceOf",
      "outputs": [
        {
          "internalType": "uint256",
          "name": "",
          "type": "uint256"
        }
      ],
      "stateMutability": "view",
      "type": "function"
    },
    {
      "inputs": [
        {
          "internalType": "string",
          "name": "tokenURI",
          "type": "string"
        }
      ],
      "name": "createToken",
      "outputs": [
        {
          "internalType": "uint256",
          "name": "",
          "type": "uint256"
        }
      ],
      "stateMutability": "nonpayable",
      "type": "function"
    },
    {
      "inputs": [
        {
          "internalType": "uint256",
          "name": "tokenId",
          "type": "uint256"
        }
      ],
      "name": "getApproved",
      "outputs": [
        {
          "internalType": "address",
          "name": "",
          "type": "address"
        }
      ],
      "stateMutability": "view",
      "type": "function"
    },
    {
      "inputs": [
        {
          "internalType": "address",
          "name": "owner",
          "type": "address"
        },
        {
          "internalType": "address",
          "name": "operator",
          "type": "address"
        }
      ],
      "name": "isApprovedForAll",
      "outputs": [
        {
          "internalType": "bool",
          "name": "",
          "type": "bool"
        }
      ],
      "stateMutability": "view",
      "type": "function"
    },
    {
      "inputs": [],
      "name": "name",
      "outputs": [
        {
          "internalType": "string",
          "name": "",
          "type": "string"
        }
      ],
      "stateMutability": "view",
      "type": "function"
    },
    {
      "inputs": [
        {
          "internalType": "uint256",
          "name": "tokenId",
          "type": "uint256"
        }
      ],
      "name": "ownerOf",
      "outputs": [
        {
          "internalType": "address",
          "name": "",
          "type": "address"
        }
      ],
      "stateMutability": "view",
      "type": "function"
    },
    {
      "inputs": [
        {
          "internalType": "address",
          "name": "from",
          "type": "address"
        },
        {
          "internalType": "address",
          "name": "to",
          "type": "address"
        },
        {
          "internalType": "uint256",
          "name": "tokenId",
          "type": "uint256"
        }
      ],
      "name": "safeTransferFrom",
      "outputs": [],
      "stateMutability": "nonpayable",
      "type": "function"
    },
    {
      "inputs": [
        {
          "internalType": "address",
          "name": "from",
          "type": "address"
        },
        {
          "internalType": "address",
          "name": "to",
          "type": "address"
        },
        {
          "internalType": "uint256",
          "name": "tokenId",
          "type": "uint256"
        },
        {
          "internalType": "bytes",
          "name": "data",
          "type": "bytes"
        }
      ],
      "name": "safeTransferFrom",
      "outputs": [],
      "stateMutability": "nonpayable",
      "type": "function"
    },
    {
      "inputs": [
        {
          "internalType": "address",
          "name": "operator",
          "type": "address"
        },
        {
          "internalType": "bool",
          "name": "approved",
          "type": "bool"
        }
      ],
      "name": "setApprovalForAll",
      "outputs": [],
      "stateMutability": "nonpayable",
      "type": "function"
    },
    {
      "inputs": [
        {
          "internalType": "bytes4",
          "name": "interfaceId",
          "type": "bytes4"
        }
      ],
      "name": "supportsInterface",
      "outputs": [
        {
          "internalType": "bool",
          "name": "",
          "type": "bool"
        }
      ],
      "stateMutability": "view",
      "type": "function"
    },
    {
      "inputs": [],
      "name": "symbol",
      "outputs": [
        {
          "internalType": "string",
          "name": "",
          "type": "string"
        }
      ],
      "stateMutability": "view",
      "type": "function"
    },
    {
      "inputs": [
        {
          "internalType": "uint256",
          "name": "tokenId",
          "type": "uint256"
        }
      ],
      "name": "tokenURI",
      "outputs": [
        {
          "internalType": "string",
          "name": "",
          "type": "string"
        }
      ],
      "stateMutability": "view",
      "type": "function"
    },
    {
      "inputs": [
        {
          "internalType": "address",
          "name": "from",
          "type": "address"
        },
        {
          "internalType": "address",
          "name": "to",
          "type": "address"
        },
        {
          "internalType": "uint256",
          "name": "tokenId",
          "type": "uint256"
        }
      ],
      "name": "transferFrom",
      "outputs": [],
      "stateMutability": "nonpayable",
      "type": "function"
    },
    {
      "inputs": [
        {
          "internalType": "address",
          "name": "from",
          "type": "address"
        },
        {
          "internalType": "address",
          "name": "to",
          "type": "address"
        },
        {
          "internalType": "uint256",
          "name": "tokenId",
          "type": "uint256"
        }
      ],
      "name": "transferToken",
      "outputs": [],
      "stateMutability": "nonpayable",
      "type": "function"
    },
    {
      "stateMutability": "payable",
      "type": "receive"
    }
  ],
  "bytecode": "0x60806040523480156200001157600080fd5b50604051620032303803806200323083398181016040528101906200003791906200017b565b6040518060400160405280600d81526020017f5a656e69746820546f6b656e73000000000000000000000000000000000000008152506040518060400160405280600381526020017f5a455400000000000000000000000000000000000000000000000000000000008152508160009081620000b4919062000427565b508060019081620000c6919062000427565b50505080600860006101000a81548173ffffffffffffffffffffffffffffffffffffffff021916908373ffffffffffffffffffffffffffffffffffffffff160217905550506200050e565b600080fd5b600073ffffffffffffffffffffffffffffffffffffffff82169050919050565b6000620001438262000116565b9050919050565b620001558162000136565b81146200016157600080fd5b50565b60008151905062000175816200014a565b92915050565b60006020828403121562000194576200019362000111565b5b6000620001a48482850162000164565b91505092915050565b600081519050919050565b7f4e487b7100000000000000000000000000000000000000000000000000000000600052604160045260246000fd5b7f4e487b7100000000000000000000000000000000000000000000000000000000600052602260045260246000fd5b600060028204905060018216806200022f57607f821691505b602082108103620002455762000244620001e7565b5b50919050565b60008190508160005260206000209050919050565b60006020601f8301049050919050565b600082821b905092915050565b600060088302620002af7fffffffffffffffffffffffffffffffffffffffffffffffffffffffffffffffff8262000270565b620002bb868362000270565b95508019841693508086168417925050509392505050565b6000819050919050565b6000819050919050565b60006200030862000302620002fc84620002d3565b620002dd565b620002d3565b9050919050565b6000819050919050565b6200032483620002e7565b6200033c62000333826200030f565b8484546200027d565b825550505050565b600090565b6200035362000344565b6200036081848462000319565b505050565b5b8181101562000388576200037c60008262000349565b60018101905062000366565b5050565b601f821115620003d757620003a1816200024b565b620003ac8462000260565b81016020851015620003bc578190505b620003d4620003cb8562000260565b83018262000365565b50505b505050565b600082821c905092915050565b6000620003fc60001984600802620003dc565b1980831691505092915050565b6000620004178383620003e9565b9150826002028217905092915050565b6200043282620001ad565b67ffffffffffffffff8111156200044e576200044d620001b8565b5b6200045a825462000216565b620004678282856200038c565b600060209050601f8311600181146200049f57600084156200048a578287015190505b62000496858262000409565b86555062000506565b601f198416620004af866200024b565b60005b82811015620004d957848901518255600182019150602085019450602081019050620004b2565b86831015620004f95784890151620004f5601f891682620003e9565b8355505b6001600288020188555050505b505050505050565b612d12806200051e6000396000f3fe6080604052600436106100f75760003560e01c806370a082311161008a578063b88d4fde11610059578063b88d4fde14610356578063c87b56dd1461037f578063e985e9c5146103bc578063f5537ede146103f9576100fe565b806370a082311461029a57806395d89b41146102d7578063a22cb46514610302578063aa46a4001461032b576100fe565b806323b872dd116100c657806323b872dd146101ce57806342842e0e146101f757806345576f94146102205780636352211e1461025d576100fe565b806301ffc9a71461010057806306fdde031461013d578063081812fc14610168578063095ea7b3146101a5576100fe565b366100fe57005b005b34801561010c57600080fd5b5061012760048036038101906101229190611ba8565b610422565b6040516101349190611bf0565b60405180910390f35b34801561014957600080fd5b50610152610483565b60405161015f9190611c9b565b60405180910390f35b34801561017457600080fd5b5061018f600480360381019061018a9190611cf3565b610515565b60405161019c9190611d61565b60405180910390f35b3480156101b157600080fd5b506101cc60048036038101906101c79190611da8565b61055b565b005b3480156101da57600080fd5b506101f560048036038101906101f09190611de8565b610672565b005b34801561020357600080fd5b5061021e60048036038101906102199190611de8565b6106d2565b005b34801561022c57600080fd5b5061024760048036038101906102429190611f70565b6106f2565b6040516102549190611fc8565b60405180910390f35b34801561026957600080fd5b50610284600480360381019061027f9190611cf3565b610756565b6040516102919190611d61565b60405180910390f35b3480156102a657600080fd5b506102c160048036038101906102bc9190611fe3565b6107dc565b6040516102ce9190611fc8565b60405180910390f35b3480156102e357600080fd5b506102ec610893565b6040516102f99190611c9b565b60405180910390f35b34801561030e57600080fd5b506103296004803603810190610324919061203c565b610925565b005b34801561033757600080fd5b5061034061093b565b60405161034d9190611fc8565b60405180910390f35b34801561036257600080fd5b5061037d6004803603810190610378919061211d565b610947565b005b34801561038b57600080fd5b506103a660048036038101906103a19190611cf3565b6109a9565b6040516103b39190611c9b565b60405180910390f35b3480156103c857600080fd5b506103e360048036038101906103de91906121a0565b610abb565b6040516103f09190611bf0565b60405180910390f35b34801561040557600080fd5b50610420600480360381019061041b9190611de8565b610b4f565b005b6000634906490660e01b7bffffffffffffffffffffffffffffffffffffffffffffffffffffffff1916827bffffffffffffffffffffffffffffffffffffffffffffffffffffffff1916148061047c575061047b82610bd5565b5b9050919050565b6060600080546104929061220f565b80601f01602080910402602001604051908101604052809291908181526020018280546104be9061220f565b801561050b5780601f106104e05761010080835404028352916020019161050b565b820191906000526020600020905b8154815290600101906020018083116104ee57829003601f168201915b5050505050905090565b600061052082610cb7565b6004600083815260200190815260200160002060009054906101000a900473ffffffffffffffffffffffffffffffffffffffff169050919050565b600061056682610756565b90508073ffffffffffffffffffffffffffffffffffffffff168373ffffffffffffffffffffffffffffffffffffffff16036105d6576040517f08c379a00000000000000000000000000000000000000000000000000000000081526004016105cd906122b2565b60405180910390fd5b8073ffffffffffffffffffffffffffffffffffffffff166105f5610d02565b73ffffffffffffffffffffffffffffffffffffffff16148061062457506106238161061e610d02565b610abb565b5b610663576040517f08c379a000000000000000000000000000000000000000000000000000000000815260040161065a90612344565b60405180910390fd5b61066d8383610d0a565b505050565b61068361067d610d02565b82610dc3565b6106c2576040517f08c379a00000000000000000000000000000000000000000000000000000000081526004016106b9906123d6565b60405180910390fd5b6106cd838383610e58565b505050565b6106ed83838360405180602001604052806000815250610947565b505050565b60006106fe6007611151565b600061070a6007611167565b90506107163382611175565b6107208184611392565b61074d600860009054906101000a900473ffffffffffffffffffffffffffffffffffffffff166001610925565b80915050919050565b60008061076283611436565b9050600073ffffffffffffffffffffffffffffffffffffffff168173ffffffffffffffffffffffffffffffffffffffff16036107d3576040517f08c379a00000000000000000000000000000000000000000000000000000000081526004016107ca90612442565b60405180910390fd5b80915050919050565b60008073ffffffffffffffffffffffffffffffffffffffff168273ffffffffffffffffffffffffffffffffffffffff160361084c576040517f08c379a0000000000000000000000000000000000000000000000000000000008152600401610843906124d4565b60405180910390fd5b600360008373ffffffffffffffffffffffffffffffffffffffff1673ffffffffffffffffffffffffffffffffffffffff168152602001908152602001600020549050919050565b6060600180546108a29061220f565b80601f01602080910402602001604051908101604052809291908181526020018280546108ce9061220f565b801561091b5780601f106108f05761010080835404028352916020019161091b565b820191906000526020600020905b8154815290600101906020018083116108fe57829003601f168201915b5050505050905090565b610937610930610d02565b8383611473565b5050565b60078060000154905081565b610958610952610d02565b83610dc3565b610997576040517f08c379a000000000000000000000000000000000000000000000000000000000815260040161098e906123d6565b60405180910390fd5b6109a3848484846115df565b50505050565b60606109b482610cb7565b60006006600084815260200190815260200160002080546109d49061220f565b80601f0160208091040260200160405190810160405280929190818152602001828054610a009061220f565b8015610a4d5780601f10610a2257610100808354040283529160200191610a4d565b820191906000526020600020905b815481529060010190602001808311610a3057829003601f168201915b505050505090506000610a5e61163b565b90506000815103610a73578192505050610ab6565b600082511115610aa8578082604051602001610a90929190612530565b60405160208183030381529060405292505050610ab6565b610ab184611652565b925050505b919050565b6000600560008473ffffffffffffffffffffffffffffffffffffffff1673ffffffffffffffffffffffffffffffffffffffff16815260200190815260200160002060008373ffffffffffffffffffffffffffffffffffffffff1673ffffffffffffffffffffffffffffffffffffffff16815260200190815260200160002060009054906101000a900460ff16905092915050565b8273ffffffffffffffffffffffffffffffffffffffff16610b6f82610756565b73ffffffffffffffffffffffffffffffffffffffff1614610bc5576040517f08c379a0000000000000000000000000000000000000000000000000000000008152600401610bbc906125a0565b60405180910390fd5b610bd0838383610e58565b505050565b60007f80ac58cd000000000000000000000000000000000000000000000000000000007bffffffffffffffffffffffffffffffffffffffffffffffffffffffff1916827bffffffffffffffffffffffffffffffffffffffffffffffffffffffff19161480610ca057507f5b5e139f000000000000000000000000000000000000000000000000000000007bffffffffffffffffffffffffffffffffffffffffffffffffffffffff1916827bffffffffffffffffffffffffffffffffffffffffffffffffffffffff1916145b80610cb05750610caf826116ba565b5b9050919050565b610cc081611724565b610cff576040517f08c379a0000000000000000000000000000000000000000000000000000000008152600401610cf690612442565b60405180910390fd5b50565b600033905090565b816004600083815260200190815260200160002060006101000a81548173ffffffffffffffffffffffffffffffffffffffff021916908373ffffffffffffffffffffffffffffffffffffffff160217905550808273ffffffffffffffffffffffffffffffffffffffff16610d7d83610756565b73ffffffffffffffffffffffffffffffffffffffff167f8c5be1e5ebec7d5bd14f71427d1e84f3dd0314c0f7b2291e5b200ac8c7c3b92560405160405180910390a45050565b600080610dcf83610756565b90508073ffffffffffffffffffffffffffffffffffffffff168473ffffffffffffffffffffffffffffffffffffffff161480610e115750610e108185610abb565b5b80610e4f57508373ffffffffffffffffffffffffffffffffffffffff16610e3784610515565b73ffffffffffffffffffffffffffffffffffffffff16145b91505092915050565b8273ffffffffffffffffffffffffffffffffffffffff16610e7882610756565b73ffffffffffffffffffffffffffffffffffffffff1614610ece576040517f08c379a0000000000000000000000000000000000000000000000000000000008152600401610ec590612632565b60405180910390fd5b600073ffffffffffffffffffffffffffffffffffffffff168273ffffffffffffffffffffffffffffffffffffffff1603610f3d576040517f08c379a0000000000000000000000000000000000000000000000000000000008152600401610f34906126c4565b60405180910390fd5b610f4a8383836001611765565b8273ffffffffffffffffffffffffffffffffffffffff16610f6a82610756565b73ffffffffffffffffffffffffffffffffffffffff1614610fc0576040517f08c379a0000000000000000000000000000000000000000000000000000000008152600401610fb790612632565b60405180910390fd5b6004600082815260200190815260200160002060006101000a81549073ffffffffffffffffffffffffffffffffffffffff02191690556001600360008573ffffffffffffffffffffffffffffffffffffffff1673ffffffffffffffffffffffffffffffffffffffff168152602001908152602001600020600082825403925050819055506001600360008473ffffffffffffffffffffffffffffffffffffffff1673ffffffffffffffffffffffffffffffffffffffff16815260200190815260200160002060008282540192505081905550816002600083815260200190815260200160002060006101000a81548173ffffffffffffffffffffffffffffffffffffffff021916908373ffffffffffffffffffffffffffffffffffffffff160217905550808273ffffffffffffffffffffffffffffffffffffffff168473ffffffffffffffffffffffffffffffffffffffff167fddf252ad1be2c89b69c2b068fc378daa952ba7f163c4a11628f55a4df523b3ef60405160405180910390a461114c838383600161176b565b505050565b6001816000016000828254019250508190555050565b600081600001549050919050565b600073ffffffffffffffffffffffffffffffffffffffff168273ffffffffffffffffffffffffffffffffffffffff16036111e4576040517f08c379a00000000000000000000000000000000000000000000000000000000081526004016111db90612730565b60405180910390fd5b6111ed81611724565b1561122d576040517f08c379a00000000000000000000000000000000000000000000000000000000081526004016112249061279c565b60405180910390fd5b61123b600083836001611765565b61124481611724565b15611284576040517f08c379a000000000000000000000000000000000000000000000000000000000815260040161127b9061279c565b60405180910390fd5b6001600360008473ffffffffffffffffffffffffffffffffffffffff1673ffffffffffffffffffffffffffffffffffffffff16815260200190815260200160002060008282540192505081905550816002600083815260200190815260200160002060006101000a81548173ffffffffffffffffffffffffffffffffffffffff021916908373ffffffffffffffffffffffffffffffffffffffff160217905550808273ffffffffffffffffffffffffffffffffffffffff16600073ffffffffffffffffffffffffffffffffffffffff167fddf252ad1be2c89b69c2b068fc378daa952ba7f163c4a11628f55a4df523b3ef60405160405180910390a461138e60008383600161176b565b5050565b61139b82611724565b6113da576040517f08c379a00000000000000000000000000000000000000000000000000000000081526004016113d19061282e565b60405180910390fd5b806006600084815260200190815260200160002090816113fa91906129fa565b507ff8e1a15aba9398e019f0b49df1a4fde98ee17ae345cb5f6b5e2c27f5033e8ce78260405161142a9190611fc8565b60405180910390a15050565b60006002600083815260200190815260200160002060009054906101000a900473ffffffffffffffffffffffffffffffffffffffff169050919050565b8173ffffffffffffffffffffffffffffffffffffffff168373ffffffffffffffffffffffffffffffffffffffff16036114e1576040517f08c379a00000000000000000000000000000000000000000000000000000000081526004016114d890612b18565b60405180910390fd5b80600560008573ffffffffffffffffffffffffffffffffffffffff1673ffffffffffffffffffffffffffffffffffffffff16815260200190815260200160002060008473ffffffffffffffffffffffffffffffffffffffff1673ffffffffffffffffffffffffffffffffffffffff16815260200190815260200160002060006101000a81548160ff0219169083151502179055508173ffffffffffffffffffffffffffffffffffffffff168373ffffffffffffffffffffffffffffffffffffffff167f17307eab39ab6107e8899845ad3d59bd9653f200f220920489ca2b5937696c31836040516115d29190611bf0565b60405180910390a3505050565b6115ea848484610e58565b6115f684848484611771565b611635576040517f08c379a000000000000000000000000000000000000000000000000000000000815260040161162c90612baa565b60405180910390fd5b50505050565b606060405180602001604052806000815250905090565b606061165d82610cb7565b600061166761163b565b9050600081511161168757604051806020016040528060008152506116b2565b80611691846118f8565b6040516020016116a2929190612530565b6040516020818303038152906040525b915050919050565b60007f01ffc9a7000000000000000000000000000000000000000000000000000000007bffffffffffffffffffffffffffffffffffffffffffffffffffffffff1916827bffffffffffffffffffffffffffffffffffffffffffffffffffffffff1916149050919050565b60008073ffffffffffffffffffffffffffffffffffffffff1661174683611436565b73ffffffffffffffffffffffffffffffffffffffff1614159050919050565b50505050565b50505050565b60006117928473ffffffffffffffffffffffffffffffffffffffff166119c6565b156118eb578373ffffffffffffffffffffffffffffffffffffffff1663150b7a026117bb610d02565b8786866040518563ffffffff1660e01b81526004016117dd9493929190612c1f565b6020604051808303816000875af192505050801561181957506040513d601f19601f820116820180604052508101906118169190612c80565b60015b61189b573d8060008114611849576040519150601f19603f3d011682016040523d82523d6000602084013e61184e565b606091505b506000815103611893576040517f08c379a000000000000000000000000000000000000000000000000000000000815260040161188a90612baa565b60405180910390fd5b805181602001fd5b63150b7a0260e01b7bffffffffffffffffffffffffffffffffffffffffffffffffffffffff1916817bffffffffffffffffffffffffffffffffffffffffffffffffffffffff1916149150506118f0565b600190505b949350505050565b606060006001611907846119e9565b01905060008167ffffffffffffffff81111561192657611925611e45565b5b6040519080825280601f01601f1916602001820160405280156119585781602001600182028036833780820191505090505b509050600082602001820190505b6001156119bb578080600190039150507f3031323334353637383961626364656600000000000000000000000000000000600a86061a8153600a85816119af576119ae612cad565b5b04945060008503611966575b819350505050919050565b6000808273ffffffffffffffffffffffffffffffffffffffff163b119050919050565b600080600090507a184f03e93ff9f4daa797ed6e38ed64bf6a1f0100000000000000008310611a47577a184f03e93ff9f4daa797ed6e38ed64bf6a1f0100000000000000008381611a3d57611a3c612cad565b5b0492506040810190505b6d04ee2d6d415b85acef81000000008310611a84576d04ee2d6d415b85acef81000000008381611a7a57611a79612cad565b5b0492506020810190505b662386f26fc100008310611ab357662386f26fc100008381611aa957611aa8612cad565b5b0492506010810190505b6305f5e1008310611adc576305f5e1008381611ad257611ad1612cad565b5b0492506008810190505b6127108310611b01576127108381611af757611af6612cad565b5b0492506004810190505b60648310611b245760648381611b1a57611b19612cad565b5b0492506002810190505b600a8310611b33576001810190505b80915050919050565b6000604051905090565b600080fd5b600080fd5b60007fffffffff0000000000000000000000000000000000000000000000000000000082169050919050565b611b8581611b50565b8114611b9057600080fd5b50565b600081359050611ba281611b7c565b92915050565b600060208284031215611bbe57611bbd611b46565b5b6000611bcc84828501611b93565b91505092915050565b60008115159050919050565b611bea81611bd5565b82525050565b6000602082019050611c056000830184611be1565b92915050565b600081519050919050565b600082825260208201905092915050565b60005b83811015611c45578082015181840152602081019050611c2a565b60008484015250505050565b6000601f19601f8301169050919050565b6000611c6d82611c0b565b611c778185611c16565b9350611c87818560208601611c27565b611c9081611c51565b840191505092915050565b60006020820190508181036000830152611cb58184611c62565b905092915050565b6000819050919050565b611cd081611cbd565b8114611cdb57600080fd5b50565b600081359050611ced81611cc7565b92915050565b600060208284031215611d0957611d08611b46565b5b6000611d1784828501611cde565b91505092915050565b600073ffffffffffffffffffffffffffffffffffffffff82169050919050565b6000611d4b82611d20565b9050919050565b611d5b81611d40565b82525050565b6000602082019050611d766000830184611d52565b92915050565b611d8581611d40565b8114611d9057600080fd5b50565b600081359050611da281611d7c565b92915050565b60008060408385031215611dbf57611dbe611b46565b5b6000611dcd85828601611d93565b9250506020611dde85828601611cde565b9150509250929050565b600080600060608486031215611e0157611e00611b46565b5b6000611e0f86828701611d93565b9350506020611e2086828701611d93565b9250506040611e3186828701611cde565b9150509250925092565b600080fd5b600080fd5b7f4e487b7100000000000000000000000000000000000000000000000000000000600052604160045260246000fd5b611e7d82611c51565b810181811067ffffffffffffffff82111715611e9c57611e9b611e45565b5b80604052505050565b6000611eaf611b3c565b9050611ebb8282611e74565b919050565b600067ffffffffffffffff821115611edb57611eda611e45565b5b611ee482611c51565b9050602081019050919050565b82818337600083830152505050565b6000611f13611f0e84611ec0565b611ea5565b905082815260208101848484011115611f2f57611f2e611e40565b5b611f3a848285611ef1565b509392505050565b600082601f830112611f5757611f56611e3b565b5b8135611f67848260208601611f00565b91505092915050565b600060208284031215611f8657611f85611b46565b5b600082013567ffffffffffffffff811115611fa457611fa3611b4b565b5b611fb084828501611f42565b91505092915050565b611fc281611cbd565b82525050565b6000602082019050611fdd6000830184611fb9565b92915050565b600060208284031215611ff957611ff8611b46565b5b600061200784828501611d93565b91505092915050565b61201981611bd5565b811461202457600080fd5b50565b60008135905061203681612010565b92915050565b6000806040838503121561205357612052611b46565b5b600061206185828601611d93565b925050602061207285828601612027565b9150509250929050565b600067ffffffffffffffff82111561209757612096611e45565b5b6120a082611c51565b9050602081019050919050565b60006120c06120bb8461207c565b611ea5565b9050828152602081018484840111156120dc576120db611e40565b5b6120e7848285611ef1565b509392505050565b600082601f83011261210457612103611e3b565b5b81356121148482602086016120ad565b91505092915050565b6000806000806080858703121561213757612136611b46565b5b600061214587828801611d93565b945050602061215687828801611d93565b935050604061216787828801611cde565b925050606085013567ffffffffffffffff81111561218857612187611b4b565b5b612194878288016120ef565b91505092959194509250565b600080604083850312156121b7576121b6611b46565b5b60006121c585828601611d93565b92505060206121d685828601611d93565b9150509250929050565b7f4e487b7100000000000000000000000000000000000000000000000000000000600052602260045260246000fd5b6000600282049050600182168061222757607f821691505b60208210810361223a576122396121e0565b5b50919050565b7f4552433732313a20617070726f76616c20746f2063757272656e74206f776e6560008201527f7200000000000000000000000000000000000000000000000000000000000000602082015250565b600061229c602183611c16565b91506122a782612240565b604082019050919050565b600060208201905081810360008301526122cb8161228f565b9050919050565b7f4552433732313a20617070726f76652063616c6c6572206973206e6f7420746f60008201527f6b656e206f776e6572206f7220617070726f76656420666f7220616c6c000000602082015250565b600061232e603d83611c16565b9150612339826122d2565b604082019050919050565b6000602082019050818103600083015261235d81612321565b9050919050565b7f4552433732313a2063616c6c6572206973206e6f7420746f6b656e206f776e6560008201527f72206f7220617070726f76656400000000000000000000000000000000000000602082015250565b60006123c0602d83611c16565b91506123cb82612364565b604082019050919050565b600060208201905081810360008301526123ef816123b3565b9050919050565b7f4552433732313a20696e76616c696420746f6b656e2049440000000000000000600082015250565b600061242c601883611c16565b9150612437826123f6565b602082019050919050565b6000602082019050818103600083015261245b8161241f565b9050919050565b7f4552433732313a2061646472657373207a65726f206973206e6f74206120766160008201527f6c6964206f776e65720000000000000000000000000000000000000000000000602082015250565b60006124be602983611c16565b91506124c982612462565b604082019050919050565b600060208201905081810360008301526124ed816124b1565b9050919050565b600081905092915050565b600061250a82611c0b565b61251481856124f4565b9350612524818560208601611c27565b80840191505092915050565b600061253c82856124ff565b915061254882846124ff565b91508190509392505050565b7f46726f6d2061646472657373206d75737420626520746f6b656e206f776e6572600082015250565b600061258a602083611c16565b915061259582612554565b602082019050919050565b600060208201905081810360008301526125b98161257d565b9050919050565b7f4552433732313a207472616e736665722066726f6d20696e636f72726563742060008201527f6f776e6572000000000000000000000000000000000000000000000000000000602082015250565b600061261c602583611c16565b9150612627826125c0565b604082019050919050565b6000602082019050818103600083015261264b8161260f565b9050919050565b7f4552433732313a207472616e7366657220746f20746865207a65726f2061646460008201527f7265737300000000000000000000000000000000000000000000000000000000602082015250565b60006126ae602483611c16565b91506126b982612652565b604082019050919050565b600060208201905081810360008301526126dd816126a1565b9050919050565b7f4552433732313a206d696e7420746f20746865207a65726f2061646472657373600082015250565b600061271a602083611c16565b9150612725826126e4565b602082019050919050565b600060208201905081810360008301526127498161270d565b9050919050565b7f4552433732313a20746f6b656e20616c7265616479206d696e74656400000000600082015250565b6000612786601c83611c16565b915061279182612750565b602082019050919050565b600060208201905081810360008301526127b581612779565b9050919050565b7f45524337323155524953746f726167653a2055524920736574206f66206e6f6e60008201527f6578697374656e7420746f6b656e000000000000000000000000000000000000602082015250565b6000612818602e83611c16565b9150612823826127bc565b604082019050919050565b600060208201905081810360008301526128478161280b565b9050919050565b60008190508160005260206000209050919050565b60006020601f8301049050919050565b600082821b905092915050565b6000600883026128b07fffffffffffffffffffffffffffffffffffffffffffffffffffffffffffffffff82612873565b6128ba8683612873565b95508019841693508086168417925050509392505050565b6000819050919050565b60006128f76128f26128ed84611cbd565b6128d2565b611cbd565b9050919050565b6000819050919050565b612911836128dc565b61292561291d826128fe565b848454612880565b825550505050565b600090565b61293a61292d565b612945818484612908565b505050565b5b818110156129695761295e600082612932565b60018101905061294b565b5050565b601f8211156129ae5761297f8161284e565b61298884612863565b81016020851015612997578190505b6129ab6129a385612863565b83018261294a565b50505b505050565b600082821c905092915050565b60006129d1600019846008026129b3565b1980831691505092915050565b60006129ea83836129c0565b9150826002028217905092915050565b612a0382611c0b565b67ffffffffffffffff811115612a1c57612a1b611e45565b5b612a26825461220f565b612a3182828561296d565b600060209050601f831160018114612a645760008415612a52578287015190505b612a5c85826129de565b865550612ac4565b601f198416612a728661284e565b60005b82811015612a9a57848901518255600182019150602085019450602081019050612a75565b86831015612ab75784890151612ab3601f8916826129c0565b8355505b6001600288020188555050505b505050505050565b7f4552433732313a20617070726f766520746f2063616c6c657200000000000000600082015250565b6000612b02601983611c16565b9150612b0d82612acc565b602082019050919050565b60006020820190508181036000830152612b3181612af5565b9050919050565b7f4552433732313a207472616e7366657220746f206e6f6e20455243373231526560008201527f63656976657220696d706c656d656e7465720000000000000000000000000000602082015250565b6000612b94603283611c16565b9150612b9f82612b38565b604082019050919050565b60006020820190508181036000830152612bc381612b87565b9050919050565b600081519050919050565b600082825260208201905092915050565b6000612bf182612bca565b612bfb8185612bd5565b9350612c0b818560208601611c27565b612c1481611c51565b840191505092915050565b6000608082019050612c346000830187611d52565b612c416020830186611d52565b612c4e6040830185611fb9565b8181036060830152612c608184612be6565b905095945050505050565b600081519050612c7a81611b7c565b92915050565b600060208284031215612c9657612c95611b46565b5b6000612ca484828501612c6b565b91505092915050565b7f4e487b7100000000000000000000000000000000000000000000000000000000600052601260045260246000fdfea2646970667358221220d6955cf69b3c6cac9c190a4df362dd377b9a253c0f4cf21c0f87dbe9446194d864736f6c63430008120033",
  "linkReferences": {},
  "deployedLinkReferences": {}
}