{
  "_format": "hh-sol-artifact-1",
  "contractName": "NFT",
  "sourceName": "contracts/NFT.sol",
  "abi": [
    {
      "inputs": [
        {
          "internalType": "address",
          "name": "marketplaceAddress",
          "type": "address"
        }
      ],
      "stateMutability": "nonpayable",
      "type": "constructor"
    },
    {
      "anonymous": false,
      "inputs": [
        {
          "indexed": true,
          "internalType": "address",
          "name": "owner",
          "type": "address"
        },
        {
          "indexed": true,
          "internalType": "address",
          "name": "approved",
          "type": "address"
        },
        {
          "indexed": true,
          "internalType": "uint256",
          "name": "tokenId",
          "type": "uint256"
        }
      ],
      "name": "Approval",
      "type": "event"
    },
    {
      "anonymous": false,
      "inputs": [
        {
          "indexed": true,
          "internalType": "address",
          "name": "owner",
          "type": "address"
        },
        {
          "indexed": true,
          "internalType": "address",
          "name": "operator",
          "type": "address"
        },
        {
          "indexed": false,
          "internalType": "bool",
          "name": "approved",
          "type": "bool"
        }
      ],
      "name": "ApprovalForAll",
      "type": "event"
    },
    {
      "anonymous": false,
      "inputs": [
        {
          "indexed": false,
          "internalType": "uint256",
          "name": "_fromTokenId",
          "type": "uint256"
        },
        {
          "indexed": false,
          "internalType": "uint256",
          "name": "_toTokenId",
          "type": "uint256"
        }
      ],
      "name": "BatchMetadataUpdate",
      "type": "event"
    },
    {
      "anonymous": false,
      "inputs": [
        {
          "indexed": false,
          "internalType": "uint256",
          "name": "_tokenId",
          "type": "uint256"
        }
      ],
      "name": "MetadataUpdate",
      "type": "event"
    },
    {
      "anonymous": false,
      "inputs": [
        {
          "indexed": true,
          "internalType": "address",
          "name": "from",
          "type": "address"
        },
        {
          "indexed": true,
          "internalType": "address",
          "name": "to",
          "type": "address"
        },
        {
          "indexed": true,
          "internalType": "uint256",
          "name": "tokenId",
          "type": "uint256"
        }
      ],
      "name": "Transfer",
      "type": "event"
    },
    {
      "inputs": [],
      "name": "_tokenIds",
      "outputs": [
        {
          "internalType": "uint256",
          "name": "_value",
          "type": "uint256"
        }
      ],
      "stateMutability": "view",
      "type": "function"
    },
    {
      "inputs": [
        {
          "internalType": "address",
          "name": "to",
          "type": "address"
        },
        {
          "internalType": "uint256",
          "name": "tokenId",
          "type": "uint256"
        }
      ],
      "name": "approve",
      "outputs": [],
      "stateMutability": "nonpayable",
      "type": "function"
    },
    {
      "inputs": [
        {
          "internalType": "address",
          "name": "owner",
          "type": "address"
        }
      ],
      "name": "balanceOf",
      "outputs": [
        {
          "internalType": "uint256",
          "name": "",
          "type": "uint256"
        }
      ],
      "stateMutability": "view",
      "type": "function"
    },
    {
      "inputs": [
        {
          "internalType": "string",
          "name": "tokenURI",
          "type": "string"
        }
      ],
      "name": "createToken",
      "outputs": [
        {
          "internalType": "uint256",
          "name": "",
          "type": "uint256"
        }
      ],
      "stateMutability": "nonpayable",
      "type": "function"
    },
    {
      "inputs": [
        {
          "internalType": "uint256",
          "name": "tokenId",
          "type": "uint256"
        }
      ],
      "name": "getApproved",
      "outputs": [
        {
          "internalType": "address",
          "name": "",
          "type": "address"
        }
      ],
      "stateMutability": "view",
      "type": "function"
    },
    {
      "inputs": [
        {
          "internalType": "address",
          "name": "owner",
          "type": "address"
        },
        {
          "internalType": "address",
          "name": "operator",
          "type": "address"
        }
      ],
      "name": "isApprovedForAll",
      "outputs": [
        {
          "internalType": "bool",
          "name": "",
          "type": "bool"
        }
      ],
      "stateMutability": "view",
      "type": "function"
    },
    {
      "inputs": [],
      "name": "name",
      "outputs": [
        {
          "internalType": "string",
          "name": "",
          "type": "string"
        }
      ],
      "stateMutability": "view",
      "type": "function"
    },
    {
      "inputs": [
        {
          "internalType": "uint256",
          "name": "tokenId",
          "type": "uint256"
        }
      ],
      "name": "ownerOf",
      "outputs": [
        {
          "internalType": "address",
          "name": "",
          "type": "address"
        }
      ],
      "stateMutability": "view",
      "type": "function"
    },
    {
      "inputs": [
        {
          "internalType": "address",
          "name": "from",
          "type": "address"
        },
        {
          "internalType": "address",
          "name": "to",
          "type": "address"
        },
        {
          "internalType": "uint256",
          "name": "tokenId",
          "type": "uint256"
        }
      ],
      "name": "safeTransferFrom",
      "outputs": [],
      "stateMutability": "nonpayable",
      "type": "function"
    },
    {
      "inputs": [
        {
          "internalType": "address",
          "name": "from",
          "type": "address"
        },
        {
          "internalType": "address",
          "name": "to",
          "type": "address"
        },
        {
          "internalType": "uint256",
          "name": "tokenId",
          "type": "uint256"
        },
        {
          "internalType": "bytes",
          "name": "data",
          "type": "bytes"
        }
      ],
      "name": "safeTransferFrom",
      "outputs": [],
      "stateMutability": "nonpayable",
      "type": "function"
    },
    {
      "inputs": [
        {
          "internalType": "address",
          "name": "operator",
          "type": "address"
        },
        {
          "internalType": "bool",
          "name": "approved",
          "type": "bool"
        }
      ],
      "name": "setApprovalForAll",
      "outputs": [],
      "stateMutability": "nonpayable",
      "type": "function"
    },
    {
      "inputs": [
        {
          "internalType": "bytes4",
          "name": "interfaceId",
          "type": "bytes4"
        }
      ],
      "name": "supportsInterface",
      "outputs": [
        {
          "internalType": "bool",
          "name": "",
          "type": "bool"
        }
      ],
      "stateMutability": "view",
      "type": "function"
    },
    {
      "inputs": [],
      "name": "symbol",
      "outputs": [
        {
          "internalType": "string",
          "name": "",
          "type": "string"
        }
      ],
      "stateMutability": "view",
      "type": "function"
    },
    {
      "inputs": [
        {
          "internalType": "uint256",
          "name": "tokenId",
          "type": "uint256"
        }
      ],
      "name": "tokenURI",
      "outputs": [
        {
          "internalType": "string",
          "name": "",
          "type": "string"
        }
      ],
      "stateMutability": "view",
      "type": "function"
    },
    {
      "inputs": [
        {
          "internalType": "address",
          "name": "from",
          "type": "address"
        },
        {
          "internalType": "address",
          "name": "to",
          "type": "address"
        },
        {
          "internalType": "uint256",
          "name": "tokenId",
          "type": "uint256"
        }
      ],
      "name": "transferFrom",
      "outputs": [],
      "stateMutability": "nonpayable",
      "type": "function"
    }
  ],
  "bytecode": "0x60806040523480156200001157600080fd5b506040516200304c3803806200304c83398181016040528101906200003791906200017b565b6040518060400160405280600d81526020017f5a656e69746820546f6b656e73000000000000000000000000000000000000008152506040518060400160405280600381526020017f5a455400000000000000000000000000000000000000000000000000000000008152508160009081620000b4919062000427565b508060019081620000c6919062000427565b50505080600860006101000a81548173ffffffffffffffffffffffffffffffffffffffff021916908373ffffffffffffffffffffffffffffffffffffffff160217905550506200050e565b600080fd5b600073ffffffffffffffffffffffffffffffffffffffff82169050919050565b6000620001438262000116565b9050919050565b620001558162000136565b81146200016157600080fd5b50565b60008151905062000175816200014a565b92915050565b60006020828403121562000194576200019362000111565b5b6000620001a48482850162000164565b91505092915050565b600081519050919050565b7f4e487b7100000000000000000000000000000000000000000000000000000000600052604160045260246000fd5b7f4e487b7100000000000000000000000000000000000000000000000000000000600052602260045260246000fd5b600060028204905060018216806200022f57607f821691505b602082108103620002455762000244620001e7565b5b50919050565b60008190508160005260206000209050919050565b60006020601f8301049050919050565b600082821b905092915050565b600060088302620002af7fffffffffffffffffffffffffffffffffffffffffffffffffffffffffffffffff8262000270565b620002bb868362000270565b95508019841693508086168417925050509392505050565b6000819050919050565b6000819050919050565b60006200030862000302620002fc84620002d3565b620002dd565b620002d3565b9050919050565b6000819050919050565b6200032483620002e7565b6200033c62000333826200030f565b8484546200027d565b825550505050565b600090565b6200035362000344565b6200036081848462000319565b505050565b5b8181101562000388576200037c60008262000349565b60018101905062000366565b5050565b601f821115620003d757620003a1816200024b565b620003ac8462000260565b81016020851015620003bc578190505b620003d4620003cb8562000260565b83018262000365565b50505b505050565b600082821c905092915050565b6000620003fc60001984600802620003dc565b1980831691505092915050565b6000620004178383620003e9565b9150826002028217905092915050565b6200043282620001ad565b67ffffffffffffffff8111156200044e576200044d620001b8565b5b6200045a825462000216565b620004678282856200038c565b600060209050601f8311600181146200049f57600084156200048a578287015190505b62000496858262000409565b86555062000506565b601f198416620004af866200024b565b60005b82811015620004d957848901518255600182019150602085019450602081019050620004b2565b86831015620004f95784890151620004f5601f891682620003e9565b8355505b6001600288020188555050505b505050505050565b612b2e806200051e6000396000f3fe608060405234801561001057600080fd5b50600436106100f55760003560e01c80636352211e11610097578063aa46a40011610066578063aa46a40014610296578063b88d4fde146102b4578063c87b56dd146102d0578063e985e9c514610300576100f5565b80636352211e146101fc57806370a082311461022c57806395d89b411461025c578063a22cb4651461027a576100f5565b8063095ea7b3116100d3578063095ea7b31461017857806323b872dd1461019457806342842e0e146101b057806345576f94146101cc576100f5565b806301ffc9a7146100fa57806306fdde031461012a578063081812fc14610148575b600080fd5b610114600480360381019061010f9190611a30565b610330565b6040516101219190611a78565b60405180910390f35b610132610391565b60405161013f9190611b23565b60405180910390f35b610162600480360381019061015d9190611b7b565b610423565b60405161016f9190611be9565b60405180910390f35b610192600480360381019061018d9190611c30565b610469565b005b6101ae60048036038101906101a99190611c70565b610580565b005b6101ca60048036038101906101c59190611c70565b6105e0565b005b6101e660048036038101906101e19190611df8565b610600565b6040516101f39190611e50565b60405180910390f35b61021660048036038101906102119190611b7b565b610664565b6040516102239190611be9565b60405180910390f35b61024660048036038101906102419190611e6b565b6106ea565b6040516102539190611e50565b60405180910390f35b6102646107a1565b6040516102719190611b23565b60405180910390f35b610294600480360381019061028f9190611ec4565b610833565b005b61029e610849565b6040516102ab9190611e50565b60405180910390f35b6102ce60048036038101906102c99190611fa5565b610855565b005b6102ea60048036038101906102e59190611b7b565b6108b7565b6040516102f79190611b23565b60405180910390f35b61031a60048036038101906103159190612028565b6109c9565b6040516103279190611a78565b60405180910390f35b6000634906490660e01b7bffffffffffffffffffffffffffffffffffffffffffffffffffffffff1916827bffffffffffffffffffffffffffffffffffffffffffffffffffffffff1916148061038a575061038982610a5d565b5b9050919050565b6060600080546103a090612097565b80601f01602080910402602001604051908101604052809291908181526020018280546103cc90612097565b80156104195780601f106103ee57610100808354040283529160200191610419565b820191906000526020600020905b8154815290600101906020018083116103fc57829003601f168201915b5050505050905090565b600061042e82610b3f565b6004600083815260200190815260200160002060009054906101000a900473ffffffffffffffffffffffffffffffffffffffff169050919050565b600061047482610664565b90508073ffffffffffffffffffffffffffffffffffffffff168373ffffffffffffffffffffffffffffffffffffffff16036104e4576040517f08c379a00000000000000000000000000000000000000000000000000000000081526004016104db9061213a565b60405180910390fd5b8073ffffffffffffffffffffffffffffffffffffffff16610503610b8a565b73ffffffffffffffffffffffffffffffffffffffff16148061053257506105318161052c610b8a565b6109c9565b5b610571576040517f08c379a0000000000000000000000000000000000000000000000000000000008152600401610568906121cc565b60405180910390fd5b61057b8383610b92565b505050565b61059161058b610b8a565b82610c4b565b6105d0576040517f08c379a00000000000000000000000000000000000000000000000000000000081526004016105c79061225e565b60405180910390fd5b6105db838383610ce0565b505050565b6105fb83838360405180602001604052806000815250610855565b505050565b600061060c6007610fd9565b60006106186007610fef565b90506106243382610ffd565b61062e818461121a565b61065b600860009054906101000a900473ffffffffffffffffffffffffffffffffffffffff166001610833565b80915050919050565b600080610670836112be565b9050600073ffffffffffffffffffffffffffffffffffffffff168173ffffffffffffffffffffffffffffffffffffffff16036106e1576040517f08c379a00000000000000000000000000000000000000000000000000000000081526004016106d8906122ca565b60405180910390fd5b80915050919050565b60008073ffffffffffffffffffffffffffffffffffffffff168273ffffffffffffffffffffffffffffffffffffffff160361075a576040517f08c379a00000000000000000000000000000000000000000000000000000000081526004016107519061235c565b60405180910390fd5b600360008373ffffffffffffffffffffffffffffffffffffffff1673ffffffffffffffffffffffffffffffffffffffff168152602001908152602001600020549050919050565b6060600180546107b090612097565b80601f01602080910402602001604051908101604052809291908181526020018280546107dc90612097565b80156108295780601f106107fe57610100808354040283529160200191610829565b820191906000526020600020905b81548152906001019060200180831161080c57829003601f168201915b5050505050905090565b61084561083e610b8a565b83836112fb565b5050565b60078060000154905081565b610866610860610b8a565b83610c4b565b6108a5576040517f08c379a000000000000000000000000000000000000000000000000000000000815260040161089c9061225e565b60405180910390fd5b6108b184848484611467565b50505050565b60606108c282610b3f565b60006006600084815260200190815260200160002080546108e290612097565b80601f016020809104026020016040519081016040528092919081815260200182805461090e90612097565b801561095b5780601f106109305761010080835404028352916020019161095b565b820191906000526020600020905b81548152906001019060200180831161093e57829003601f168201915b50505050509050600061096c6114c3565b905060008151036109815781925050506109c4565b6000825111156109b657808260405160200161099e9291906123b8565b604051602081830303815290604052925050506109c4565b6109bf846114da565b925050505b919050565b6000600560008473ffffffffffffffffffffffffffffffffffffffff1673ffffffffffffffffffffffffffffffffffffffff16815260200190815260200160002060008373ffffffffffffffffffffffffffffffffffffffff1673ffffffffffffffffffffffffffffffffffffffff16815260200190815260200160002060009054906101000a900460ff16905092915050565b60007f80ac58cd000000000000000000000000000000000000000000000000000000007bffffffffffffffffffffffffffffffffffffffffffffffffffffffff1916827bffffffffffffffffffffffffffffffffffffffffffffffffffffffff19161480610b2857507f5b5e139f000000000000000000000000000000000000000000000000000000007bffffffffffffffffffffffffffffffffffffffffffffffffffffffff1916827bffffffffffffffffffffffffffffffffffffffffffffffffffffffff1916145b80610b385750610b3782611542565b5b9050919050565b610b48816115ac565b610b87576040517f08c379a0000000000000000000000000000000000000000000000000000000008152600401610b7e906122ca565b60405180910390fd5b50565b600033905090565b816004600083815260200190815260200160002060006101000a81548173ffffffffffffffffffffffffffffffffffffffff021916908373ffffffffffffffffffffffffffffffffffffffff160217905550808273ffffffffffffffffffffffffffffffffffffffff16610c0583610664565b73ffffffffffffffffffffffffffffffffffffffff167f8c5be1e5ebec7d5bd14f71427d1e84f3dd0314c0f7b2291e5b200ac8c7c3b92560405160405180910390a45050565b600080610c5783610664565b90508073ffffffffffffffffffffffffffffffffffffffff168473ffffffffffffffffffffffffffffffffffffffff161480610c995750610c9881856109c9565b5b80610cd757508373ffffffffffffffffffffffffffffffffffffffff16610cbf84610423565b73ffffffffffffffffffffffffffffffffffffffff16145b91505092915050565b8273ffffffffffffffffffffffffffffffffffffffff16610d0082610664565b73ffffffffffffffffffffffffffffffffffffffff1614610d56576040517f08c379a0000000000000000000000000000000000000000000000000000000008152600401610d4d9061244e565b60405180910390fd5b600073ffffffffffffffffffffffffffffffffffffffff168273ffffffffffffffffffffffffffffffffffffffff1603610dc5576040517f08c379a0000000000000000000000000000000000000000000000000000000008152600401610dbc906124e0565b60405180910390fd5b610dd283838360016115ed565b8273ffffffffffffffffffffffffffffffffffffffff16610df282610664565b73ffffffffffffffffffffffffffffffffffffffff1614610e48576040517f08c379a0000000000000000000000000000000000000000000000000000000008152600401610e3f9061244e565b60405180910390fd5b6004600082815260200190815260200160002060006101000a81549073ffffffffffffffffffffffffffffffffffffffff02191690556001600360008573ffffffffffffffffffffffffffffffffffffffff1673ffffffffffffffffffffffffffffffffffffffff168152602001908152602001600020600082825403925050819055506001600360008473ffffffffffffffffffffffffffffffffffffffff1673ffffffffffffffffffffffffffffffffffffffff16815260200190815260200160002060008282540192505081905550816002600083815260200190815260200160002060006101000a81548173ffffffffffffffffffffffffffffffffffffffff021916908373ffffffffffffffffffffffffffffffffffffffff160217905550808273ffffffffffffffffffffffffffffffffffffffff168473ffffffffffffffffffffffffffffffffffffffff167fddf252ad1be2c89b69c2b068fc378daa952ba7f163c4a11628f55a4df523b3ef60405160405180910390a4610fd483838360016115f3565b505050565b6001816000016000828254019250508190555050565b600081600001549050919050565b600073ffffffffffffffffffffffffffffffffffffffff168273ffffffffffffffffffffffffffffffffffffffff160361106c576040517f08c379a00000000000000000000000000000000000000000000000000000000081526004016110639061254c565b60405180910390fd5b611075816115ac565b156110b5576040517f08c379a00000000000000000000000000000000000000000000000000000000081526004016110ac906125b8565b60405180910390fd5b6110c36000838360016115ed565b6110cc816115ac565b1561110c576040517f08c379a0000000000000000000000000000000000000000000000000000000008152600401611103906125b8565b60405180910390fd5b6001600360008473ffffffffffffffffffffffffffffffffffffffff1673ffffffffffffffffffffffffffffffffffffffff16815260200190815260200160002060008282540192505081905550816002600083815260200190815260200160002060006101000a81548173ffffffffffffffffffffffffffffffffffffffff021916908373ffffffffffffffffffffffffffffffffffffffff160217905550808273ffffffffffffffffffffffffffffffffffffffff16600073ffffffffffffffffffffffffffffffffffffffff167fddf252ad1be2c89b69c2b068fc378daa952ba7f163c4a11628f55a4df523b3ef60405160405180910390a46112166000838360016115f3565b5050565b611223826115ac565b611262576040517f08c379a00000000000000000000000000000000000000000000000000000000081526004016112599061264a565b60405180910390fd5b806006600084815260200190815260200160002090816112829190612816565b507ff8e1a15aba9398e019f0b49df1a4fde98ee17ae345cb5f6b5e2c27f5033e8ce7826040516112b29190611e50565b60405180910390a15050565b60006002600083815260200190815260200160002060009054906101000a900473ffffffffffffffffffffffffffffffffffffffff169050919050565b8173ffffffffffffffffffffffffffffffffffffffff168373ffffffffffffffffffffffffffffffffffffffff1603611369576040517f08c379a000000000000000000000000000000000000000000000000000000000815260040161136090612934565b60405180910390fd5b80600560008573ffffffffffffffffffffffffffffffffffffffff1673ffffffffffffffffffffffffffffffffffffffff16815260200190815260200160002060008473ffffffffffffffffffffffffffffffffffffffff1673ffffffffffffffffffffffffffffffffffffffff16815260200190815260200160002060006101000a81548160ff0219169083151502179055508173ffffffffffffffffffffffffffffffffffffffff168373ffffffffffffffffffffffffffffffffffffffff167f17307eab39ab6107e8899845ad3d59bd9653f200f220920489ca2b5937696c318360405161145a9190611a78565b60405180910390a3505050565b611472848484610ce0565b61147e848484846115f9565b6114bd576040517f08c379a00000000000000000000000000000000000000000000000000000000081526004016114b4906129c6565b60405180910390fd5b50505050565b606060405180602001604052806000815250905090565b60606114e582610b3f565b60006114ef6114c3565b9050600081511161150f576040518060200160405280600081525061153a565b8061151984611780565b60405160200161152a9291906123b8565b6040516020818303038152906040525b915050919050565b60007f01ffc9a7000000000000000000000000000000000000000000000000000000007bffffffffffffffffffffffffffffffffffffffffffffffffffffffff1916827bffffffffffffffffffffffffffffffffffffffffffffffffffffffff1916149050919050565b60008073ffffffffffffffffffffffffffffffffffffffff166115ce836112be565b73ffffffffffffffffffffffffffffffffffffffff1614159050919050565b50505050565b50505050565b600061161a8473ffffffffffffffffffffffffffffffffffffffff1661184e565b15611773578373ffffffffffffffffffffffffffffffffffffffff1663150b7a02611643610b8a565b8786866040518563ffffffff1660e01b81526004016116659493929190612a3b565b6020604051808303816000875af19250505080156116a157506040513d601f19601f8201168201806040525081019061169e9190612a9c565b60015b611723573d80600081146116d1576040519150601f19603f3d011682016040523d82523d6000602084013e6116d6565b606091505b50600081510361171b576040517f08c379a0000000000000000000000000000000000000000000000000000000008152600401611712906129c6565b60405180910390fd5b805181602001fd5b63150b7a0260e01b7bffffffffffffffffffffffffffffffffffffffffffffffffffffffff1916817bffffffffffffffffffffffffffffffffffffffffffffffffffffffff191614915050611778565b600190505b949350505050565b60606000600161178f84611871565b01905060008167ffffffffffffffff8111156117ae576117ad611ccd565b5b6040519080825280601f01601f1916602001820160405280156117e05781602001600182028036833780820191505090505b509050600082602001820190505b600115611843578080600190039150507f3031323334353637383961626364656600000000000000000000000000000000600a86061a8153600a858161183757611836612ac9565b5b049450600085036117ee575b819350505050919050565b6000808273ffffffffffffffffffffffffffffffffffffffff163b119050919050565b600080600090507a184f03e93ff9f4daa797ed6e38ed64bf6a1f01000000000000000083106118cf577a184f03e93ff9f4daa797ed6e38ed64bf6a1f01000000000000000083816118c5576118c4612ac9565b5b0492506040810190505b6d04ee2d6d415b85acef8100000000831061190c576d04ee2d6d415b85acef8100000000838161190257611901612ac9565b5b0492506020810190505b662386f26fc10000831061193b57662386f26fc10000838161193157611930612ac9565b5b0492506010810190505b6305f5e1008310611964576305f5e100838161195a57611959612ac9565b5b0492506008810190505b612710831061198957612710838161197f5761197e612ac9565b5b0492506004810190505b606483106119ac57606483816119a2576119a1612ac9565b5b0492506002810190505b600a83106119bb576001810190505b80915050919050565b6000604051905090565b600080fd5b600080fd5b60007fffffffff0000000000000000000000000000000000000000000000000000000082169050919050565b611a0d816119d8565b8114611a1857600080fd5b50565b600081359050611a2a81611a04565b92915050565b600060208284031215611a4657611a456119ce565b5b6000611a5484828501611a1b565b91505092915050565b60008115159050919050565b611a7281611a5d565b82525050565b6000602082019050611a8d6000830184611a69565b92915050565b600081519050919050565b600082825260208201905092915050565b60005b83811015611acd578082015181840152602081019050611ab2565b60008484015250505050565b6000601f19601f8301169050919050565b6000611af582611a93565b611aff8185611a9e565b9350611b0f818560208601611aaf565b611b1881611ad9565b840191505092915050565b60006020820190508181036000830152611b3d8184611aea565b905092915050565b6000819050919050565b611b5881611b45565b8114611b6357600080fd5b50565b600081359050611b7581611b4f565b92915050565b600060208284031215611b9157611b906119ce565b5b6000611b9f84828501611b66565b91505092915050565b600073ffffffffffffffffffffffffffffffffffffffff82169050919050565b6000611bd382611ba8565b9050919050565b611be381611bc8565b82525050565b6000602082019050611bfe6000830184611bda565b92915050565b611c0d81611bc8565b8114611c1857600080fd5b50565b600081359050611c2a81611c04565b92915050565b60008060408385031215611c4757611c466119ce565b5b6000611c5585828601611c1b565b9250506020611c6685828601611b66565b9150509250929050565b600080600060608486031215611c8957611c886119ce565b5b6000611c9786828701611c1b565b9350506020611ca886828701611c1b565b9250506040611cb986828701611b66565b9150509250925092565b600080fd5b600080fd5b7f4e487b7100000000000000000000000000000000000000000000000000000000600052604160045260246000fd5b611d0582611ad9565b810181811067ffffffffffffffff82111715611d2457611d23611ccd565b5b80604052505050565b6000611d376119c4565b9050611d438282611cfc565b919050565b600067ffffffffffffffff821115611d6357611d62611ccd565b5b611d6c82611ad9565b9050602081019050919050565b82818337600083830152505050565b6000611d9b611d9684611d48565b611d2d565b905082815260208101848484011115611db757611db6611cc8565b5b611dc2848285611d79565b509392505050565b600082601f830112611ddf57611dde611cc3565b5b8135611def848260208601611d88565b91505092915050565b600060208284031215611e0e57611e0d6119ce565b5b600082013567ffffffffffffffff811115611e2c57611e2b6119d3565b5b611e3884828501611dca565b91505092915050565b611e4a81611b45565b82525050565b6000602082019050611e656000830184611e41565b92915050565b600060208284031215611e8157611e806119ce565b5b6000611e8f84828501611c1b565b91505092915050565b611ea181611a5d565b8114611eac57600080fd5b50565b600081359050611ebe81611e98565b92915050565b60008060408385031215611edb57611eda6119ce565b5b6000611ee985828601611c1b565b9250506020611efa85828601611eaf565b9150509250929050565b600067ffffffffffffffff821115611f1f57611f1e611ccd565b5b611f2882611ad9565b9050602081019050919050565b6000611f48611f4384611f04565b611d2d565b905082815260208101848484011115611f6457611f63611cc8565b5b611f6f848285611d79565b509392505050565b600082601f830112611f8c57611f8b611cc3565b5b8135611f9c848260208601611f35565b91505092915050565b60008060008060808587031215611fbf57611fbe6119ce565b5b6000611fcd87828801611c1b565b9450506020611fde87828801611c1b565b9350506040611fef87828801611b66565b925050606085013567ffffffffffffffff8111156120105761200f6119d3565b5b61201c87828801611f77565b91505092959194509250565b6000806040838503121561203f5761203e6119ce565b5b600061204d85828601611c1b565b925050602061205e85828601611c1b565b9150509250929050565b7f4e487b7100000000000000000000000000000000000000000000000000000000600052602260045260246000fd5b600060028204905060018216806120af57607f821691505b6020821081036120c2576120c1612068565b5b50919050565b7f4552433732313a20617070726f76616c20746f2063757272656e74206f776e6560008201527f7200000000000000000000000000000000000000000000000000000000000000602082015250565b6000612124602183611a9e565b915061212f826120c8565b604082019050919050565b6000602082019050818103600083015261215381612117565b9050919050565b7f4552433732313a20617070726f76652063616c6c6572206973206e6f7420746f60008201527f6b656e206f776e6572206f7220617070726f76656420666f7220616c6c000000602082015250565b60006121b6603d83611a9e565b91506121c18261215a565b604082019050919050565b600060208201905081810360008301526121e5816121a9565b9050919050565b7f4552433732313a2063616c6c6572206973206e6f7420746f6b656e206f776e6560008201527f72206f7220617070726f76656400000000000000000000000000000000000000602082015250565b6000612248602d83611a9e565b9150612253826121ec565b604082019050919050565b600060208201905081810360008301526122778161223b565b9050919050565b7f4552433732313a20696e76616c696420746f6b656e2049440000000000000000600082015250565b60006122b4601883611a9e565b91506122bf8261227e565b602082019050919050565b600060208201905081810360008301526122e3816122a7565b9050919050565b7f4552433732313a2061646472657373207a65726f206973206e6f74206120766160008201527f6c6964206f776e65720000000000000000000000000000000000000000000000602082015250565b6000612346602983611a9e565b9150612351826122ea565b604082019050919050565b6000602082019050818103600083015261237581612339565b9050919050565b600081905092915050565b600061239282611a93565b61239c818561237c565b93506123ac818560208601611aaf565b80840191505092915050565b60006123c48285612387565b91506123d08284612387565b91508190509392505050565b7f4552433732313a207472616e736665722066726f6d20696e636f72726563742060008201527f6f776e6572000000000000000000000000000000000000000000000000000000602082015250565b6000612438602583611a9e565b9150612443826123dc565b604082019050919050565b600060208201905081810360008301526124678161242b565b9050919050565b7f4552433732313a207472616e7366657220746f20746865207a65726f2061646460008201527f7265737300000000000000000000000000000000000000000000000000000000602082015250565b60006124ca602483611a9e565b91506124d58261246e565b604082019050919050565b600060208201905081810360008301526124f9816124bd565b9050919050565b7f4552433732313a206d696e7420746f20746865207a65726f2061646472657373600082015250565b6000612536602083611a9e565b915061254182612500565b602082019050919050565b6000602082019050818103600083015261256581612529565b9050919050565b7f4552433732313a20746f6b656e20616c7265616479206d696e74656400000000600082015250565b60006125a2601c83611a9e565b91506125ad8261256c565b602082019050919050565b600060208201905081810360008301526125d181612595565b9050919050565b7f45524337323155524953746f726167653a2055524920736574206f66206e6f6e60008201527f6578697374656e7420746f6b656e000000000000000000000000000000000000602082015250565b6000612634602e83611a9e565b915061263f826125d8565b604082019050919050565b6000602082019050818103600083015261266381612627565b9050919050565b60008190508160005260206000209050919050565b60006020601f8301049050919050565b600082821b905092915050565b6000600883026126cc7fffffffffffffffffffffffffffffffffffffffffffffffffffffffffffffffff8261268f565b6126d6868361268f565b95508019841693508086168417925050509392505050565b6000819050919050565b600061271361270e61270984611b45565b6126ee565b611b45565b9050919050565b6000819050919050565b61272d836126f8565b6127416127398261271a565b84845461269c565b825550505050565b600090565b612756612749565b612761818484612724565b505050565b5b818110156127855761277a60008261274e565b600181019050612767565b5050565b601f8211156127ca5761279b8161266a565b6127a48461267f565b810160208510156127b3578190505b6127c76127bf8561267f565b830182612766565b50505b505050565b600082821c905092915050565b60006127ed600019846008026127cf565b1980831691505092915050565b600061280683836127dc565b9150826002028217905092915050565b61281f82611a93565b67ffffffffffffffff81111561283857612837611ccd565b5b6128428254612097565b61284d828285612789565b600060209050601f831160018114612880576000841561286e578287015190505b61287885826127fa565b8655506128e0565b601f19841661288e8661266a565b60005b828110156128b657848901518255600182019150602085019450602081019050612891565b868310156128d357848901516128cf601f8916826127dc565b8355505b6001600288020188555050505b505050505050565b7f4552433732313a20617070726f766520746f2063616c6c657200000000000000600082015250565b600061291e601983611a9e565b9150612929826128e8565b602082019050919050565b6000602082019050818103600083015261294d81612911565b9050919050565b7f4552433732313a207472616e7366657220746f206e6f6e20455243373231526560008201527f63656976657220696d706c656d656e7465720000000000000000000000000000602082015250565b60006129b0603283611a9e565b91506129bb82612954565b604082019050919050565b600060208201905081810360008301526129df816129a3565b9050919050565b600081519050919050565b600082825260208201905092915050565b6000612a0d826129e6565b612a1781856129f1565b9350612a27818560208601611aaf565b612a3081611ad9565b840191505092915050565b6000608082019050612a506000830187611bda565b612a5d6020830186611bda565b612a6a6040830185611e41565b8181036060830152612a7c8184612a02565b905095945050505050565b600081519050612a9681611a04565b92915050565b600060208284031215612ab257612ab16119ce565b5b6000612ac084828501612a87565b91505092915050565b7f4e487b7100000000000000000000000000000000000000000000000000000000600052601260045260246000fdfea26469706673582212207948feb48149c483bae7d341055d7fe80edc88261d0d578e023ee8264c9adb4864736f6c63430008120033",
  "linkReferences": {},
  "deployedLinkReferences": {}
}