{
  "_format": "hh-sol-artifact-1",
  "contractName": "NFTmarket",
  "sourceName": "contracts/NFTmarket.sol",
  "abi": [
    {
      "inputs": [],
      "stateMutability": "nonpayable",
      "type": "constructor"
    },
    {
      "anonymous": false,
      "inputs": [
        {
          "indexed": true,
          "internalType": "uint256",
          "name": "itemId",
          "type": "uint256"
        },
        {
          "indexed": true,
          "internalType": "address",
          "name": "nftContract",
          "type": "address"
        },
        {
          "indexed": true,
          "internalType": "uint256",
          "name": "tokenId",
          "type": "uint256"
        },
        {
          "indexed": false,
          "internalType": "address",
          "name": "seller",
          "type": "address"
        },
        {
          "indexed": false,
          "internalType": "address",
          "name": "owner",
          "type": "address"
        },
        {
          "indexed": false,
          "internalType": "uint256",
          "name": "price",
          "type": "uint256"
        },
        {
          "indexed": false,
          "internalType": "bool",
          "name": "sold",
          "type": "bool"
        }
      ],
      "name": "MarketItemCreated",
      "type": "event"
    },
    {
      "inputs": [],
      "name": "_itemIds",
      "outputs": [
        {
          "internalType": "uint256",
          "name": "_value",
          "type": "uint256"
        }
      ],
      "stateMutability": "view",
      "type": "function"
    },
    {
      "inputs": [],
      "name": "_itemsSold",
      "outputs": [
        {
          "internalType": "uint256",
          "name": "_value",
          "type": "uint256"
        }
      ],
      "stateMutability": "view",
      "type": "function"
    },
    {
      "inputs": [
        {
          "internalType": "address",
          "name": "nftContract",
          "type": "address"
        },
        {
          "internalType": "uint256",
          "name": "tokenId",
          "type": "uint256"
        },
        {
          "internalType": "uint256",
          "name": "price",
          "type": "uint256"
        }
      ],
      "name": "createMarketItem",
      "outputs": [],
      "stateMutability": "payable",
      "type": "function"
    },
    {
      "inputs": [
        {
          "internalType": "address",
          "name": "nftContract",
          "type": "address"
        },
        {
          "internalType": "uint256",
          "name": "itemId",
          "type": "uint256"
        }
      ],
      "name": "createMarketSale",
      "outputs": [],
      "stateMutability": "payable",
      "type": "function"
    },
    {
      "inputs": [],
      "name": "fetchItemsCreated",
      "outputs": [
        {
          "components": [
            {
              "internalType": "uint256",
              "name": "itemId",
              "type": "uint256"
            },
            {
              "internalType": "address",
              "name": "nftContract",
              "type": "address"
            },
            {
              "internalType": "uint256",
              "name": "tokenId",
              "type": "uint256"
            },
            {
              "internalType": "address payable",
              "name": "seller",
              "type": "address"
            },
            {
              "internalType": "address payable",
              "name": "owner",
              "type": "address"
            },
            {
              "internalType": "uint256",
              "name": "price",
              "type": "uint256"
            },
            {
              "internalType": "bool",
              "name": "sold",
              "type": "bool"
            }
          ],
          "internalType": "struct NFTmarket.MarketItem[]",
          "name": "",
          "type": "tuple[]"
        }
      ],
      "stateMutability": "view",
      "type": "function"
    },
    {
      "inputs": [],
      "name": "fetchMarketItems",
      "outputs": [
        {
          "components": [
            {
              "internalType": "uint256",
              "name": "itemId",
              "type": "uint256"
            },
            {
              "internalType": "address",
              "name": "nftContract",
              "type": "address"
            },
            {
              "internalType": "uint256",
              "name": "tokenId",
              "type": "uint256"
            },
            {
              "internalType": "address payable",
              "name": "seller",
              "type": "address"
            },
            {
              "internalType": "address payable",
              "name": "owner",
              "type": "address"
            },
            {
              "internalType": "uint256",
              "name": "price",
              "type": "uint256"
            },
            {
              "internalType": "bool",
              "name": "sold",
              "type": "bool"
            }
          ],
          "internalType": "struct NFTmarket.MarketItem[]",
          "name": "",
          "type": "tuple[]"
        }
      ],
      "stateMutability": "view",
      "type": "function"
    },
    {
      "inputs": [],
      "name": "fetchMyNFTs",
      "outputs": [
        {
          "components": [
            {
              "internalType": "uint256",
              "name": "itemId",
              "type": "uint256"
            },
            {
              "internalType": "address",
              "name": "nftContract",
              "type": "address"
            },
            {
              "internalType": "uint256",
              "name": "tokenId",
              "type": "uint256"
            },
            {
              "internalType": "address payable",
              "name": "seller",
              "type": "address"
            },
            {
              "internalType": "address payable",
              "name": "owner",
              "type": "address"
            },
            {
              "internalType": "uint256",
              "name": "price",
              "type": "uint256"
            },
            {
              "internalType": "bool",
              "name": "sold",
              "type": "bool"
            }
          ],
          "internalType": "struct NFTmarket.MarketItem[]",
          "name": "",
          "type": "tuple[]"
        }
      ],
      "stateMutability": "view",
      "type": "function"
    },
    {
      "inputs": [
        {
          "internalType": "uint256",
          "name": "tokenId",
          "type": "uint256"
        }
      ],
      "name": "fetchNFT",
      "outputs": [
        {
          "components": [
            {
              "internalType": "uint256",
              "name": "itemId",
              "type": "uint256"
            },
            {
              "internalType": "address",
              "name": "nftContract",
              "type": "address"
            },
            {
              "internalType": "uint256",
              "name": "tokenId",
              "type": "uint256"
            },
            {
              "internalType": "address payable",
              "name": "seller",
              "type": "address"
            },
            {
              "internalType": "address payable",
              "name": "owner",
              "type": "address"
            },
            {
              "internalType": "uint256",
              "name": "price",
              "type": "uint256"
            },
            {
              "internalType": "bool",
              "name": "sold",
              "type": "bool"
            }
          ],
          "internalType": "struct NFTmarket.MarketItem",
          "name": "",
          "type": "tuple"
        }
      ],
      "stateMutability": "view",
      "type": "function"
    },
    {
      "inputs": [],
      "name": "getListingPrice",
      "outputs": [
        {
          "internalType": "uint256",
          "name": "",
          "type": "uint256"
        }
      ],
      "stateMutability": "view",
      "type": "function"
    },
    {
      "inputs": [
        {
          "internalType": "uint256",
          "name": "",
          "type": "uint256"
        }
      ],
      "name": "idToMarketItem",
      "outputs": [
        {
          "internalType": "uint256",
          "name": "itemId",
          "type": "uint256"
        },
        {
          "internalType": "address",
          "name": "nftContract",
          "type": "address"
        },
        {
          "internalType": "uint256",
          "name": "tokenId",
          "type": "uint256"
        },
        {
          "internalType": "address payable",
          "name": "seller",
          "type": "address"
        },
        {
          "internalType": "address payable",
          "name": "owner",
          "type": "address"
        },
        {
          "internalType": "uint256",
          "name": "price",
          "type": "uint256"
        },
        {
          "internalType": "bool",
          "name": "sold",
          "type": "bool"
        }
      ],
      "stateMutability": "view",
      "type": "function"
    },
    {
      "inputs": [],
      "name": "listingPrice",
      "outputs": [
        {
          "internalType": "uint256",
          "name": "",
          "type": "uint256"
        }
      ],
      "stateMutability": "view",
      "type": "function"
    },
    {
      "inputs": [],
      "name": "owner",
      "outputs": [
        {
          "internalType": "address payable",
          "name": "",
          "type": "address"
        }
      ],
      "stateMutability": "view",
      "type": "function"
    }
  ],
  "bytecode": "0x60806040526658d15e1762800060045534801561001b57600080fd5b50600160008190555033600360006101000a81548173ffffffffffffffffffffffffffffffffffffffff021916908373ffffffffffffffffffffffffffffffffffffffff160217905550612073806100746000396000f3fe6080604052600436106100a75760003560e01c80638da5cb5b116100645780638da5cb5b1461019f578063c23b139e146101ca578063c78f19f9146101e6578063deb1250d14610211578063e61a70c01461024e578063f064c32e14610291576100a7565b80630f08efe0146100ac57806312e85585146100d7578063202e37401461010257806334a7f1931461012d57806358eb2df51461015857806387506a0d14610174575b600080fd5b3480156100b857600080fd5b506100c16102bc565b6040516100ce919061186a565b60405180910390f35b3480156100e357600080fd5b506100ec610585565b6040516100f9919061189b565b60405180910390f35b34801561010e57600080fd5b5061011761058f565b604051610124919061186a565b60405180910390f35b34801561013957600080fd5b506101426108f1565b60405161014f919061189b565b60405180910390f35b610172600480360381019061016d9190611913565b6108fd565b005b34801561018057600080fd5b50610189610c1b565b604051610196919061189b565b60405180910390f35b3480156101ab57600080fd5b506101b4610c27565b6040516101c19190611975565b60405180910390f35b6101e460048036038101906101df9190611990565b610c4d565b005b3480156101f257600080fd5b506101fb610f7c565b604051610208919061189b565b60405180910390f35b34801561021d57600080fd5b50610238600480360381019061023391906119d0565b610f82565b6040516102459190611a8b565b60405180910390f35b34801561025a57600080fd5b50610275600480360381019061027091906119d0565b611188565b6040516102889796959493929190611ac4565b60405180910390f35b34801561029d57600080fd5b506102a6611237565b6040516102b3919061186a565b60405180910390f35b606060006102ca6001611599565b905060006102d86002611599565b6102e26001611599565b6102ec9190611b62565b90506000808267ffffffffffffffff81111561030b5761030a611b96565b5b60405190808252806020026020018201604052801561034457816020015b610331611616565b8152602001906001900390816103295790505b50905060005b8481101561057a57600073ffffffffffffffffffffffffffffffffffffffff166005600060018461037b9190611bc5565b815260200190815260200160002060040160009054906101000a900473ffffffffffffffffffffffffffffffffffffffff1673ffffffffffffffffffffffffffffffffffffffff16036105675760006001826103d79190611bc5565b90506000600560008381526020019081526020016000209050806040518060e0016040529081600082015481526020016001820160009054906101000a900473ffffffffffffffffffffffffffffffffffffffff1673ffffffffffffffffffffffffffffffffffffffff1673ffffffffffffffffffffffffffffffffffffffff168152602001600282015481526020016003820160009054906101000a900473ffffffffffffffffffffffffffffffffffffffff1673ffffffffffffffffffffffffffffffffffffffff1673ffffffffffffffffffffffffffffffffffffffff1681526020016004820160009054906101000a900473ffffffffffffffffffffffffffffffffffffffff1673ffffffffffffffffffffffffffffffffffffffff1673ffffffffffffffffffffffffffffffffffffffff168152602001600582015481526020016006820160009054906101000a900460ff16151515158152505084868151811061054a57610549611bf9565b5b60200260200101819052506001856105629190611bc5565b945050505b808061057290611c28565b91505061034a565b508094505050505090565b6000600454905090565b6060600061059d6001611599565b905060008060005b83811015610645573373ffffffffffffffffffffffffffffffffffffffff16600560006001846105d59190611bc5565b815260200190815260200160002060040160009054906101000a900473ffffffffffffffffffffffffffffffffffffffff1673ffffffffffffffffffffffffffffffffffffffff16036106325760018361062f9190611bc5565b92505b808061063d90611c28565b9150506105a5565b5060008267ffffffffffffffff81111561066257610661611b96565b5b60405190808252806020026020018201604052801561069b57816020015b610688611616565b8152602001906001900390816106805790505b50905060005b848110156108e6573373ffffffffffffffffffffffffffffffffffffffff16600560006001846106d19190611bc5565b815260200190815260200160002060040160009054906101000a900473ffffffffffffffffffffffffffffffffffffffff1673ffffffffffffffffffffffffffffffffffffffff16036108d3576000600560006001846107319190611bc5565b81526020019081526020016000206000015490506000600560008381526020019081526020016000209050806040518060e0016040529081600082015481526020016001820160009054906101000a900473ffffffffffffffffffffffffffffffffffffffff1673ffffffffffffffffffffffffffffffffffffffff1673ffffffffffffffffffffffffffffffffffffffff168152602001600282015481526020016003820160009054906101000a900473ffffffffffffffffffffffffffffffffffffffff1673ffffffffffffffffffffffffffffffffffffffff1673ffffffffffffffffffffffffffffffffffffffff1681526020016004820160009054906101000a900473ffffffffffffffffffffffffffffffffffffffff1673ffffffffffffffffffffffffffffffffffffffff1673ffffffffffffffffffffffffffffffffffffffff168152602001600582015481526020016006820160009054906101000a900460ff1615151515815250508486815181106108b6576108b5611bf9565b5b60200260200101819052506001856108ce9190611bc5565b945050505b80806108de90611c28565b9150506106a1565b508094505050505090565b60018060000154905081565b6109056115a7565b60008111610948576040517f08c379a000000000000000000000000000000000000000000000000000000000815260040161093f90611ccd565b60405180910390fd5b600454341461098c576040517f08c379a000000000000000000000000000000000000000000000000000000000815260040161098390611d5f565b60405180910390fd5b61099660016115f6565b60006109a26001611599565b90506040518060e001604052808281526020018573ffffffffffffffffffffffffffffffffffffffff1681526020018481526020013373ffffffffffffffffffffffffffffffffffffffff168152602001600073ffffffffffffffffffffffffffffffffffffffff16815260200183815260200160001515815250600560008381526020019081526020016000206000820151816000015560208201518160010160006101000a81548173ffffffffffffffffffffffffffffffffffffffff021916908373ffffffffffffffffffffffffffffffffffffffff1602179055506040820151816002015560608201518160030160006101000a81548173ffffffffffffffffffffffffffffffffffffffff021916908373ffffffffffffffffffffffffffffffffffffffff16021790555060808201518160040160006101000a81548173ffffffffffffffffffffffffffffffffffffffff021916908373ffffffffffffffffffffffffffffffffffffffff16021790555060a0820151816005015560c08201518160060160006101000a81548160ff0219169083151502179055509050508373ffffffffffffffffffffffffffffffffffffffff166323b872dd3330866040518463ffffffff1660e01b8152600401610b8393929190611d7f565b600060405180830381600087803b158015610b9d57600080fd5b505af1158015610bb1573d6000803e3d6000fd5b50505050828473ffffffffffffffffffffffffffffffffffffffff16827f045dfa01dcba2b36aba1d3dc4a874f4b0c5d2fbeb8d2c4b34a7d88c8d8f929d1336000876000604051610c059493929190611db6565b60405180910390a450610c1661160c565b505050565b60028060000154905081565b600360009054906101000a900473ffffffffffffffffffffffffffffffffffffffff1681565b610c556115a7565b600060056000838152602001908152602001600020600501549050600060056000848152602001908152602001600020600201549050600083118015610ca45750610ca06001611599565b8311155b610ce3576040517f08c379a0000000000000000000000000000000000000000000000000000000008152600401610cda90611e47565b60405180910390fd5b813414610d25576040517f08c379a0000000000000000000000000000000000000000000000000000000008152600401610d1c90611ed9565b60405180910390fd5b6005600084815260200190815260200160002060060160009054906101000a900460ff1615610d89576040517f08c379a0000000000000000000000000000000000000000000000000000000008152600401610d8090611f45565b60405180910390fd5b6005600084815260200190815260200160002060030160009054906101000a900473ffffffffffffffffffffffffffffffffffffffff1673ffffffffffffffffffffffffffffffffffffffff166108fc349081150290604051600060405180830381858888f19350505050158015610e05573d6000803e3d6000fd5b508373ffffffffffffffffffffffffffffffffffffffff166323b872dd3033846040518463ffffffff1660e01b8152600401610e4393929190611d7f565b600060405180830381600087803b158015610e5d57600080fd5b505af1158015610e71573d6000803e3d6000fd5b50505050336005600085815260200190815260200160002060040160006101000a81548173ffffffffffffffffffffffffffffffffffffffff021916908373ffffffffffffffffffffffffffffffffffffffff16021790555060016005600085815260200190815260200160002060060160006101000a81548160ff021916908315150217905550610f0360026115f6565b600360009054906101000a900473ffffffffffffffffffffffffffffffffffffffff1673ffffffffffffffffffffffffffffffffffffffff166108fc6004549081150290604051600060405180830381858888f19350505050158015610f6d573d6000803e3d6000fd5b505050610f7861160c565b5050565b60045481565b610f8a611616565b60005b610f976001611599565b811015611147578260056000600184610fb09190611bc5565b815260200190815260200160002060020154036111345760056000600183610fd89190611bc5565b81526020019081526020016000206040518060e0016040529081600082015481526020016001820160009054906101000a900473ffffffffffffffffffffffffffffffffffffffff1673ffffffffffffffffffffffffffffffffffffffff1673ffffffffffffffffffffffffffffffffffffffff168152602001600282015481526020016003820160009054906101000a900473ffffffffffffffffffffffffffffffffffffffff1673ffffffffffffffffffffffffffffffffffffffff1673ffffffffffffffffffffffffffffffffffffffff1681526020016004820160009054906101000a900473ffffffffffffffffffffffffffffffffffffffff1673ffffffffffffffffffffffffffffffffffffffff1673ffffffffffffffffffffffffffffffffffffffff168152602001600582015481526020016006820160009054906101000a900460ff161515151581525050915050611183565b808061113f90611c28565b915050610f8d565b506040517f08c379a000000000000000000000000000000000000000000000000000000000815260040161117a90611fb1565b60405180910390fd5b919050565b60056020528060005260406000206000915090508060000154908060010160009054906101000a900473ffffffffffffffffffffffffffffffffffffffff16908060020154908060030160009054906101000a900473ffffffffffffffffffffffffffffffffffffffff16908060040160009054906101000a900473ffffffffffffffffffffffffffffffffffffffff16908060050154908060060160009054906101000a900460ff16905087565b606060006112456001611599565b905060008060005b838110156112ed573373ffffffffffffffffffffffffffffffffffffffff166005600060018461127d9190611bc5565b815260200190815260200160002060030160009054906101000a900473ffffffffffffffffffffffffffffffffffffffff1673ffffffffffffffffffffffffffffffffffffffff16036112da576001836112d79190611bc5565b92505b80806112e590611c28565b91505061124d565b5060008267ffffffffffffffff81111561130a57611309611b96565b5b60405190808252806020026020018201604052801561134357816020015b611330611616565b8152602001906001900390816113285790505b50905060005b8481101561158e573373ffffffffffffffffffffffffffffffffffffffff16600560006001846113799190611bc5565b815260200190815260200160002060030160009054906101000a900473ffffffffffffffffffffffffffffffffffffffff1673ffffffffffffffffffffffffffffffffffffffff160361157b576000600560006001846113d99190611bc5565b81526020019081526020016000206000015490506000600560008381526020019081526020016000209050806040518060e0016040529081600082015481526020016001820160009054906101000a900473ffffffffffffffffffffffffffffffffffffffff1673ffffffffffffffffffffffffffffffffffffffff1673ffffffffffffffffffffffffffffffffffffffff168152602001600282015481526020016003820160009054906101000a900473ffffffffffffffffffffffffffffffffffffffff1673ffffffffffffffffffffffffffffffffffffffff1673ffffffffffffffffffffffffffffffffffffffff1681526020016004820160009054906101000a900473ffffffffffffffffffffffffffffffffffffffff1673ffffffffffffffffffffffffffffffffffffffff1673ffffffffffffffffffffffffffffffffffffffff168152602001600582015481526020016006820160009054906101000a900460ff16151515158152505084868151811061155e5761155d611bf9565b5b60200260200101819052506001856115769190611bc5565b945050505b808061158690611c28565b915050611349565b508094505050505090565b600081600001549050919050565b6002600054036115ec576040517f08c379a00000000000000000000000000000000000000000000000000000000081526004016115e39061201d565b60405180910390fd5b6002600081905550565b6001816000016000828254019250508190555050565b6001600081905550565b6040518060e0016040528060008152602001600073ffffffffffffffffffffffffffffffffffffffff16815260200160008152602001600073ffffffffffffffffffffffffffffffffffffffff168152602001600073ffffffffffffffffffffffffffffffffffffffff168152602001600081526020016000151581525090565b600081519050919050565b600082825260208201905092915050565b6000819050602082019050919050565b6000819050919050565b6116d6816116c3565b82525050565b600073ffffffffffffffffffffffffffffffffffffffff82169050919050565b6000611707826116dc565b9050919050565b611717816116fc565b82525050565b6000611728826116dc565b9050919050565b6117388161171d565b82525050565b60008115159050919050565b6117538161173e565b82525050565b60e08201600082015161176f60008501826116cd565b506020820151611782602085018261170e565b50604082015161179560408501826116cd565b5060608201516117a8606085018261172f565b5060808201516117bb608085018261172f565b5060a08201516117ce60a08501826116cd565b5060c08201516117e160c085018261174a565b50505050565b60006117f38383611759565b60e08301905092915050565b6000602082019050919050565b600061181782611697565b61182181856116a2565b935061182c836116b3565b8060005b8381101561185d57815161184488826117e7565b975061184f836117ff565b925050600181019050611830565b5085935050505092915050565b60006020820190508181036000830152611884818461180c565b905092915050565b611895816116c3565b82525050565b60006020820190506118b0600083018461188c565b92915050565b600080fd5b6118c4816116fc565b81146118cf57600080fd5b50565b6000813590506118e1816118bb565b92915050565b6118f0816116c3565b81146118fb57600080fd5b50565b60008135905061190d816118e7565b92915050565b60008060006060848603121561192c5761192b6118b6565b5b600061193a868287016118d2565b935050602061194b868287016118fe565b925050604061195c868287016118fe565b9150509250925092565b61196f8161171d565b82525050565b600060208201905061198a6000830184611966565b92915050565b600080604083850312156119a7576119a66118b6565b5b60006119b5858286016118d2565b92505060206119c6858286016118fe565b9150509250929050565b6000602082840312156119e6576119e56118b6565b5b60006119f4848285016118fe565b91505092915050565b60e082016000820151611a1360008501826116cd565b506020820151611a26602085018261170e565b506040820151611a3960408501826116cd565b506060820151611a4c606085018261172f565b506080820151611a5f608085018261172f565b5060a0820151611a7260a08501826116cd565b5060c0820151611a8560c085018261174a565b50505050565b600060e082019050611aa060008301846119fd565b92915050565b611aaf816116fc565b82525050565b611abe8161173e565b82525050565b600060e082019050611ad9600083018a61188c565b611ae66020830189611aa6565b611af3604083018861188c565b611b006060830187611966565b611b0d6080830186611966565b611b1a60a083018561188c565b611b2760c0830184611ab5565b98975050505050505050565b7f4e487b7100000000000000000000000000000000000000000000000000000000600052601160045260246000fd5b6000611b6d826116c3565b9150611b78836116c3565b9250828203905081811115611b9057611b8f611b33565b5b92915050565b7f4e487b7100000000000000000000000000000000000000000000000000000000600052604160045260246000fd5b6000611bd0826116c3565b9150611bdb836116c3565b9250828201905080821115611bf357611bf2611b33565b5b92915050565b7f4e487b7100000000000000000000000000000000000000000000000000000000600052603260045260246000fd5b6000611c33826116c3565b91507fffffffffffffffffffffffffffffffffffffffffffffffffffffffffffffffff8203611c6557611c64611b33565b5b600182019050919050565b600082825260208201905092915050565b7f5072696365206d757374206265206174206c6561737420312077656900000000600082015250565b6000611cb7601c83611c70565b9150611cc282611c81565b602082019050919050565b60006020820190508181036000830152611ce681611caa565b9050919050565b7f56616c75652070616964206d75737420626520657175616c20746f206c69737460008201527f696e672070726963650000000000000000000000000000000000000000000000602082015250565b6000611d49602983611c70565b9150611d5482611ced565b604082019050919050565b60006020820190508181036000830152611d7881611d3c565b9050919050565b6000606082019050611d946000830186611aa6565b611da16020830185611aa6565b611dae604083018461188c565b949350505050565b6000608082019050611dcb6000830187611aa6565b611dd86020830186611aa6565b611de5604083018561188c565b611df26060830184611ab5565b95945050505050565b7f4974656d20646f65736e27742065786973740000000000000000000000000000600082015250565b6000611e31601283611c70565b9150611e3c82611dfb565b602082019050919050565b60006020820190508181036000830152611e6081611e24565b9050919050565b7f506c65617365207375626d6974207468652061736b696e67207072696365206960008201527f6e206f7264657220746f20636f6d706c65746520746865207075726368617365602082015250565b6000611ec3604083611c70565b9150611ece82611e67565b604082019050919050565b60006020820190508181036000830152611ef281611eb6565b9050919050565b7f4974656d20616c726561647920736f6c64000000000000000000000000000000600082015250565b6000611f2f601183611c70565b9150611f3a82611ef9565b602082019050919050565b60006020820190508181036000830152611f5e81611f22565b9050919050565b7f4e4654206e6f7420666f756e6400000000000000000000000000000000000000600082015250565b6000611f9b600d83611c70565b9150611fa682611f65565b602082019050919050565b60006020820190508181036000830152611fca81611f8e565b9050919050565b7f5265656e7472616e637947756172643a207265656e7472616e742063616c6c00600082015250565b6000612007601f83611c70565b915061201282611fd1565b602082019050919050565b6000602082019050818103600083015261203681611ffa565b905091905056fea26469706673582212204052435febf74f414bd32869dff1ca561d3339f42315c8491ad3ba62d945a33964736f6c63430008120033",
  "linkReferences": {},
  "deployedLinkReferences": {}
}