{
  "_format": "hh-sol-artifact-1",
  "contractName": "NFTmarket",
  "sourceName": "contracts/NFTmarket.sol",
  "abi": [
    {
      "inputs": [],
      "stateMutability": "nonpayable",
      "type": "constructor"
    },
    {
      "anonymous": false,
      "inputs": [
        {
          "indexed": true,
          "internalType": "uint256",
          "name": "itemId",
          "type": "uint256"
        },
        {
          "indexed": true,
          "internalType": "address",
          "name": "nftContract",
          "type": "address"
        },
        {
          "indexed": true,
          "internalType": "uint256",
          "name": "tokenId",
          "type": "uint256"
        },
        {
          "indexed": false,
          "internalType": "address",
          "name": "seller",
          "type": "address"
        },
        {
          "indexed": false,
          "internalType": "address",
          "name": "owner",
          "type": "address"
        },
        {
          "indexed": false,
          "internalType": "uint256",
          "name": "price",
          "type": "uint256"
        },
        {
          "indexed": false,
          "internalType": "bool",
          "name": "sold",
          "type": "bool"
        }
      ],
      "name": "MarketItemCreated",
      "type": "event"
    },
    {
      "inputs": [],
      "name": "_itemIds",
      "outputs": [
        {
          "internalType": "uint256",
          "name": "_value",
          "type": "uint256"
        }
      ],
      "stateMutability": "view",
      "type": "function"
    },
    {
      "inputs": [],
      "name": "_itemsSold",
      "outputs": [
        {
          "internalType": "uint256",
          "name": "_value",
          "type": "uint256"
        }
      ],
      "stateMutability": "view",
      "type": "function"
    },
    {
      "inputs": [
        {
          "internalType": "address",
          "name": "nftContract",
          "type": "address"
        },
        {
          "internalType": "uint256",
          "name": "tokenId",
          "type": "uint256"
        },
        {
          "internalType": "uint256",
          "name": "price",
          "type": "uint256"
        }
      ],
      "name": "createMarketItem",
      "outputs": [],
      "stateMutability": "payable",
      "type": "function"
    },
    {
      "inputs": [
        {
          "internalType": "address",
          "name": "nftContract",
          "type": "address"
        },
        {
          "internalType": "uint256",
          "name": "itemId",
          "type": "uint256"
        }
      ],
      "name": "createMarketSale",
      "outputs": [],
      "stateMutability": "payable",
      "type": "function"
    },
    {
      "inputs": [],
      "name": "fetchItemsCreated",
      "outputs": [
        {
          "components": [
            {
              "internalType": "uint256",
              "name": "itemId",
              "type": "uint256"
            },
            {
              "internalType": "address",
              "name": "nftContract",
              "type": "address"
            },
            {
              "internalType": "uint256",
              "name": "tokenId",
              "type": "uint256"
            },
            {
              "internalType": "address payable",
              "name": "seller",
              "type": "address"
            },
            {
              "internalType": "address payable",
              "name": "owner",
              "type": "address"
            },
            {
              "internalType": "uint256",
              "name": "price",
              "type": "uint256"
            },
            {
              "internalType": "bool",
              "name": "sold",
              "type": "bool"
            }
          ],
          "internalType": "struct NFTmarket.MarketItem[]",
          "name": "",
          "type": "tuple[]"
        }
      ],
      "stateMutability": "view",
      "type": "function"
    },
    {
      "inputs": [],
      "name": "fetchMarketItems",
      "outputs": [
        {
          "components": [
            {
              "internalType": "uint256",
              "name": "itemId",
              "type": "uint256"
            },
            {
              "internalType": "address",
              "name": "nftContract",
              "type": "address"
            },
            {
              "internalType": "uint256",
              "name": "tokenId",
              "type": "uint256"
            },
            {
              "internalType": "address payable",
              "name": "seller",
              "type": "address"
            },
            {
              "internalType": "address payable",
              "name": "owner",
              "type": "address"
            },
            {
              "internalType": "uint256",
              "name": "price",
              "type": "uint256"
            },
            {
              "internalType": "bool",
              "name": "sold",
              "type": "bool"
            }
          ],
          "internalType": "struct NFTmarket.MarketItem[]",
          "name": "",
          "type": "tuple[]"
        }
      ],
      "stateMutability": "view",
      "type": "function"
    },
    {
      "inputs": [],
      "name": "fetchMyNFTs",
      "outputs": [
        {
          "components": [
            {
              "internalType": "uint256",
              "name": "itemId",
              "type": "uint256"
            },
            {
              "internalType": "address",
              "name": "nftContract",
              "type": "address"
            },
            {
              "internalType": "uint256",
              "name": "tokenId",
              "type": "uint256"
            },
            {
              "internalType": "address payable",
              "name": "seller",
              "type": "address"
            },
            {
              "internalType": "address payable",
              "name": "owner",
              "type": "address"
            },
            {
              "internalType": "uint256",
              "name": "price",
              "type": "uint256"
            },
            {
              "internalType": "bool",
              "name": "sold",
              "type": "bool"
            }
          ],
          "internalType": "struct NFTmarket.MarketItem[]",
          "name": "",
          "type": "tuple[]"
        }
      ],
      "stateMutability": "view",
      "type": "function"
    },
    {
      "inputs": [
        {
          "internalType": "uint256",
          "name": "Id",
          "type": "uint256"
        }
      ],
      "name": "fetchNFT",
      "outputs": [
        {
          "components": [
            {
              "internalType": "uint256",
              "name": "itemId",
              "type": "uint256"
            },
            {
              "internalType": "address",
              "name": "nftContract",
              "type": "address"
            },
            {
              "internalType": "uint256",
              "name": "tokenId",
              "type": "uint256"
            },
            {
              "internalType": "address payable",
              "name": "seller",
              "type": "address"
            },
            {
              "internalType": "address payable",
              "name": "owner",
              "type": "address"
            },
            {
              "internalType": "uint256",
              "name": "price",
              "type": "uint256"
            },
            {
              "internalType": "bool",
              "name": "sold",
              "type": "bool"
            }
          ],
          "internalType": "struct NFTmarket.MarketItem[]",
          "name": "",
          "type": "tuple[]"
        }
      ],
      "stateMutability": "view",
      "type": "function"
    },
    {
      "inputs": [],
      "name": "getListingPrice",
      "outputs": [
        {
          "internalType": "uint256",
          "name": "",
          "type": "uint256"
        }
      ],
      "stateMutability": "view",
      "type": "function"
    },
    {
      "inputs": [
        {
          "internalType": "uint256",
          "name": "",
          "type": "uint256"
        }
      ],
      "name": "idToMarketItem",
      "outputs": [
        {
          "internalType": "uint256",
          "name": "itemId",
          "type": "uint256"
        },
        {
          "internalType": "address",
          "name": "nftContract",
          "type": "address"
        },
        {
          "internalType": "uint256",
          "name": "tokenId",
          "type": "uint256"
        },
        {
          "internalType": "address payable",
          "name": "seller",
          "type": "address"
        },
        {
          "internalType": "address payable",
          "name": "owner",
          "type": "address"
        },
        {
          "internalType": "uint256",
          "name": "price",
          "type": "uint256"
        },
        {
          "internalType": "bool",
          "name": "sold",
          "type": "bool"
        }
      ],
      "stateMutability": "view",
      "type": "function"
    },
    {
      "inputs": [],
      "name": "listingPrice",
      "outputs": [
        {
          "internalType": "uint256",
          "name": "",
          "type": "uint256"
        }
      ],
      "stateMutability": "view",
      "type": "function"
    },
    {
      "inputs": [],
      "name": "owner",
      "outputs": [
        {
          "internalType": "address payable",
          "name": "",
          "type": "address"
        }
      ],
      "stateMutability": "view",
      "type": "function"
    }
  ],
  "bytecode": "0x60806040526658d15e1762800060045534801561001b57600080fd5b50600160008190555033600360006101000a81548173ffffffffffffffffffffffffffffffffffffffff021916908373ffffffffffffffffffffffffffffffffffffffff160217905550612023806100746000396000f3fe6080604052600436106100a75760003560e01c80638da5cb5b116100645780638da5cb5b1461019f578063c23b139e146101ca578063c78f19f9146101e6578063deb1250d14610211578063e61a70c01461024e578063f064c32e14610291576100a7565b80630f08efe0146100ac57806312e85585146100d7578063202e37401461010257806334a7f1931461012d57806358eb2df51461015857806387506a0d14610174575b600080fd5b3480156100b857600080fd5b506100c16102bc565b6040516100ce919061192f565b60405180910390f35b3480156100e357600080fd5b506100ec610585565b6040516100f99190611960565b60405180910390f35b34801561010e57600080fd5b5061011761058f565b604051610124919061192f565b60405180910390f35b34801561013957600080fd5b506101426108f1565b60405161014f9190611960565b60405180910390f35b610172600480360381019061016d91906119d8565b6108fd565b005b34801561018057600080fd5b50610189610c1b565b6040516101969190611960565b60405180910390f35b3480156101ab57600080fd5b506101b4610c27565b6040516101c19190611a3a565b60405180910390f35b6101e460048036038101906101df9190611a55565b610c4d565b005b3480156101f257600080fd5b506101fb610f7c565b6040516102089190611960565b60405180910390f35b34801561021d57600080fd5b5061023860048036038101906102339190611a95565b610f82565b604051610245919061192f565b60405180910390f35b34801561025a57600080fd5b5061027560048036038101906102709190611a95565b61124d565b6040516102889796959493929190611ae0565b60405180910390f35b34801561029d57600080fd5b506102a66112fc565b6040516102b3919061192f565b60405180910390f35b606060006102ca600161165e565b905060006102d8600261165e565b6102e2600161165e565b6102ec9190611b7e565b90506000808267ffffffffffffffff81111561030b5761030a611bb2565b5b60405190808252806020026020018201604052801561034457816020015b6103316116db565b8152602001906001900390816103295790505b50905060005b8481101561057a57600073ffffffffffffffffffffffffffffffffffffffff166005600060018461037b9190611be1565b815260200190815260200160002060040160009054906101000a900473ffffffffffffffffffffffffffffffffffffffff1673ffffffffffffffffffffffffffffffffffffffff16036105675760006001826103d79190611be1565b90506000600560008381526020019081526020016000209050806040518060e0016040529081600082015481526020016001820160009054906101000a900473ffffffffffffffffffffffffffffffffffffffff1673ffffffffffffffffffffffffffffffffffffffff1673ffffffffffffffffffffffffffffffffffffffff168152602001600282015481526020016003820160009054906101000a900473ffffffffffffffffffffffffffffffffffffffff1673ffffffffffffffffffffffffffffffffffffffff1673ffffffffffffffffffffffffffffffffffffffff1681526020016004820160009054906101000a900473ffffffffffffffffffffffffffffffffffffffff1673ffffffffffffffffffffffffffffffffffffffff1673ffffffffffffffffffffffffffffffffffffffff168152602001600582015481526020016006820160009054906101000a900460ff16151515158152505084868151811061054a57610549611c15565b5b60200260200101819052506001856105629190611be1565b945050505b808061057290611c44565b91505061034a565b508094505050505090565b6000600454905090565b6060600061059d600161165e565b905060008060005b83811015610645573373ffffffffffffffffffffffffffffffffffffffff16600560006001846105d59190611be1565b815260200190815260200160002060040160009054906101000a900473ffffffffffffffffffffffffffffffffffffffff1673ffffffffffffffffffffffffffffffffffffffff16036106325760018361062f9190611be1565b92505b808061063d90611c44565b9150506105a5565b5060008267ffffffffffffffff81111561066257610661611bb2565b5b60405190808252806020026020018201604052801561069b57816020015b6106886116db565b8152602001906001900390816106805790505b50905060005b848110156108e6573373ffffffffffffffffffffffffffffffffffffffff16600560006001846106d19190611be1565b815260200190815260200160002060040160009054906101000a900473ffffffffffffffffffffffffffffffffffffffff1673ffffffffffffffffffffffffffffffffffffffff16036108d3576000600560006001846107319190611be1565b81526020019081526020016000206000015490506000600560008381526020019081526020016000209050806040518060e0016040529081600082015481526020016001820160009054906101000a900473ffffffffffffffffffffffffffffffffffffffff1673ffffffffffffffffffffffffffffffffffffffff1673ffffffffffffffffffffffffffffffffffffffff168152602001600282015481526020016003820160009054906101000a900473ffffffffffffffffffffffffffffffffffffffff1673ffffffffffffffffffffffffffffffffffffffff1673ffffffffffffffffffffffffffffffffffffffff1681526020016004820160009054906101000a900473ffffffffffffffffffffffffffffffffffffffff1673ffffffffffffffffffffffffffffffffffffffff1673ffffffffffffffffffffffffffffffffffffffff168152602001600582015481526020016006820160009054906101000a900460ff1615151515815250508486815181106108b6576108b5611c15565b5b60200260200101819052506001856108ce9190611be1565b945050505b80806108de90611c44565b9150506106a1565b508094505050505090565b60018060000154905081565b61090561166c565b60008111610948576040517f08c379a000000000000000000000000000000000000000000000000000000000815260040161093f90611ce9565b60405180910390fd5b600454341461098c576040517f08c379a000000000000000000000000000000000000000000000000000000000815260040161098390611d7b565b60405180910390fd5b61099660016116bb565b60006109a2600161165e565b90506040518060e001604052808281526020018573ffffffffffffffffffffffffffffffffffffffff1681526020018481526020013373ffffffffffffffffffffffffffffffffffffffff168152602001600073ffffffffffffffffffffffffffffffffffffffff16815260200183815260200160001515815250600560008381526020019081526020016000206000820151816000015560208201518160010160006101000a81548173ffffffffffffffffffffffffffffffffffffffff021916908373ffffffffffffffffffffffffffffffffffffffff1602179055506040820151816002015560608201518160030160006101000a81548173ffffffffffffffffffffffffffffffffffffffff021916908373ffffffffffffffffffffffffffffffffffffffff16021790555060808201518160040160006101000a81548173ffffffffffffffffffffffffffffffffffffffff021916908373ffffffffffffffffffffffffffffffffffffffff16021790555060a0820151816005015560c08201518160060160006101000a81548160ff0219169083151502179055509050508373ffffffffffffffffffffffffffffffffffffffff166323b872dd3330866040518463ffffffff1660e01b8152600401610b8393929190611d9b565b600060405180830381600087803b158015610b9d57600080fd5b505af1158015610bb1573d6000803e3d6000fd5b50505050828473ffffffffffffffffffffffffffffffffffffffff16827f045dfa01dcba2b36aba1d3dc4a874f4b0c5d2fbeb8d2c4b34a7d88c8d8f929d1336000876000604051610c059493929190611dd2565b60405180910390a450610c166116d1565b505050565b60028060000154905081565b600360009054906101000a900473ffffffffffffffffffffffffffffffffffffffff1681565b610c5561166c565b600060056000838152602001908152602001600020600501549050600060056000848152602001908152602001600020600201549050600083118015610ca45750610ca0600161165e565b8311155b610ce3576040517f08c379a0000000000000000000000000000000000000000000000000000000008152600401610cda90611e63565b60405180910390fd5b813414610d25576040517f08c379a0000000000000000000000000000000000000000000000000000000008152600401610d1c90611ef5565b60405180910390fd5b6005600084815260200190815260200160002060060160009054906101000a900460ff1615610d89576040517f08c379a0000000000000000000000000000000000000000000000000000000008152600401610d8090611f61565b60405180910390fd5b6005600084815260200190815260200160002060030160009054906101000a900473ffffffffffffffffffffffffffffffffffffffff1673ffffffffffffffffffffffffffffffffffffffff166108fc349081150290604051600060405180830381858888f19350505050158015610e05573d6000803e3d6000fd5b508373ffffffffffffffffffffffffffffffffffffffff166323b872dd3033846040518463ffffffff1660e01b8152600401610e4393929190611d9b565b600060405180830381600087803b158015610e5d57600080fd5b505af1158015610e71573d6000803e3d6000fd5b50505050336005600085815260200190815260200160002060040160006101000a81548173ffffffffffffffffffffffffffffffffffffffff021916908373ffffffffffffffffffffffffffffffffffffffff16021790555060016005600085815260200190815260200160002060060160006101000a81548160ff021916908315150217905550610f0360026116bb565b600360009054906101000a900473ffffffffffffffffffffffffffffffffffffffff1673ffffffffffffffffffffffffffffffffffffffff166108fc6004549081150290604051600060405180830381858888f19350505050158015610f6d573d6000803e3d6000fd5b505050610f786116d1565b5050565b60045481565b60606000600167ffffffffffffffff811115610fa157610fa0611bb2565b5b604051908082528060200260200182016040528015610fda57816020015b610fc76116db565b815260200190600190039081610fbf5790505b50905060005b610fea600161165e565b81101561124257600073ffffffffffffffffffffffffffffffffffffffff166005600060018461101a9190611be1565b815260200190815260200160002060040160009054906101000a900473ffffffffffffffffffffffffffffffffffffffff1673ffffffffffffffffffffffffffffffffffffffff161480156110905750836005600060018461107c9190611be1565b815260200190815260200160002060020154145b1561122f5760006001826110a49190611be1565b90506000600560008381526020019081526020016000209050806040518060e0016040529081600082015481526020016001820160009054906101000a900473ffffffffffffffffffffffffffffffffffffffff1673ffffffffffffffffffffffffffffffffffffffff1673ffffffffffffffffffffffffffffffffffffffff168152602001600282015481526020016003820160009054906101000a900473ffffffffffffffffffffffffffffffffffffffff1673ffffffffffffffffffffffffffffffffffffffff1673ffffffffffffffffffffffffffffffffffffffff1681526020016004820160009054906101000a900473ffffffffffffffffffffffffffffffffffffffff1673ffffffffffffffffffffffffffffffffffffffff1673ffffffffffffffffffffffffffffffffffffffff168152602001600582015481526020016006820160009054906101000a900460ff1615151515815250508460008151811061121857611217611c15565b5b602002602001018190525083945050505050611248565b808061123a90611c44565b915050610fe0565b50809150505b919050565b60056020528060005260406000206000915090508060000154908060010160009054906101000a900473ffffffffffffffffffffffffffffffffffffffff16908060020154908060030160009054906101000a900473ffffffffffffffffffffffffffffffffffffffff16908060040160009054906101000a900473ffffffffffffffffffffffffffffffffffffffff16908060050154908060060160009054906101000a900460ff16905087565b6060600061130a600161165e565b905060008060005b838110156113b2573373ffffffffffffffffffffffffffffffffffffffff16600560006001846113429190611be1565b815260200190815260200160002060030160009054906101000a900473ffffffffffffffffffffffffffffffffffffffff1673ffffffffffffffffffffffffffffffffffffffff160361139f5760018361139c9190611be1565b92505b80806113aa90611c44565b915050611312565b5060008267ffffffffffffffff8111156113cf576113ce611bb2565b5b60405190808252806020026020018201604052801561140857816020015b6113f56116db565b8152602001906001900390816113ed5790505b50905060005b84811015611653573373ffffffffffffffffffffffffffffffffffffffff166005600060018461143e9190611be1565b815260200190815260200160002060030160009054906101000a900473ffffffffffffffffffffffffffffffffffffffff1673ffffffffffffffffffffffffffffffffffffffff16036116405760006005600060018461149e9190611be1565b81526020019081526020016000206000015490506000600560008381526020019081526020016000209050806040518060e0016040529081600082015481526020016001820160009054906101000a900473ffffffffffffffffffffffffffffffffffffffff1673ffffffffffffffffffffffffffffffffffffffff1673ffffffffffffffffffffffffffffffffffffffff168152602001600282015481526020016003820160009054906101000a900473ffffffffffffffffffffffffffffffffffffffff1673ffffffffffffffffffffffffffffffffffffffff1673ffffffffffffffffffffffffffffffffffffffff1681526020016004820160009054906101000a900473ffffffffffffffffffffffffffffffffffffffff1673ffffffffffffffffffffffffffffffffffffffff1673ffffffffffffffffffffffffffffffffffffffff168152602001600582015481526020016006820160009054906101000a900460ff16151515158152505084868151811061162357611622611c15565b5b602002602001018190525060018561163b9190611be1565b945050505b808061164b90611c44565b91505061140e565b508094505050505090565b600081600001549050919050565b6002600054036116b1576040517f08c379a00000000000000000000000000000000000000000000000000000000081526004016116a890611fcd565b60405180910390fd5b6002600081905550565b6001816000016000828254019250508190555050565b6001600081905550565b6040518060e0016040528060008152602001600073ffffffffffffffffffffffffffffffffffffffff16815260200160008152602001600073ffffffffffffffffffffffffffffffffffffffff168152602001600073ffffffffffffffffffffffffffffffffffffffff168152602001600081526020016000151581525090565b600081519050919050565b600082825260208201905092915050565b6000819050602082019050919050565b6000819050919050565b61179b81611788565b82525050565b600073ffffffffffffffffffffffffffffffffffffffff82169050919050565b60006117cc826117a1565b9050919050565b6117dc816117c1565b82525050565b60006117ed826117a1565b9050919050565b6117fd816117e2565b82525050565b60008115159050919050565b61181881611803565b82525050565b60e0820160008201516118346000850182611792565b50602082015161184760208501826117d3565b50604082015161185a6040850182611792565b50606082015161186d60608501826117f4565b50608082015161188060808501826117f4565b5060a082015161189360a0850182611792565b5060c08201516118a660c085018261180f565b50505050565b60006118b8838361181e565b60e08301905092915050565b6000602082019050919050565b60006118dc8261175c565b6118e68185611767565b93506118f183611778565b8060005b8381101561192257815161190988826118ac565b9750611914836118c4565b9250506001810190506118f5565b5085935050505092915050565b6000602082019050818103600083015261194981846118d1565b905092915050565b61195a81611788565b82525050565b60006020820190506119756000830184611951565b92915050565b600080fd5b611989816117c1565b811461199457600080fd5b50565b6000813590506119a681611980565b92915050565b6119b581611788565b81146119c057600080fd5b50565b6000813590506119d2816119ac565b92915050565b6000806000606084860312156119f1576119f061197b565b5b60006119ff86828701611997565b9350506020611a10868287016119c3565b9250506040611a21868287016119c3565b9150509250925092565b611a34816117e2565b82525050565b6000602082019050611a4f6000830184611a2b565b92915050565b60008060408385031215611a6c57611a6b61197b565b5b6000611a7a85828601611997565b9250506020611a8b858286016119c3565b9150509250929050565b600060208284031215611aab57611aaa61197b565b5b6000611ab9848285016119c3565b91505092915050565b611acb816117c1565b82525050565b611ada81611803565b82525050565b600060e082019050611af5600083018a611951565b611b026020830189611ac2565b611b0f6040830188611951565b611b1c6060830187611a2b565b611b296080830186611a2b565b611b3660a0830185611951565b611b4360c0830184611ad1565b98975050505050505050565b7f4e487b7100000000000000000000000000000000000000000000000000000000600052601160045260246000fd5b6000611b8982611788565b9150611b9483611788565b9250828203905081811115611bac57611bab611b4f565b5b92915050565b7f4e487b7100000000000000000000000000000000000000000000000000000000600052604160045260246000fd5b6000611bec82611788565b9150611bf783611788565b9250828201905080821115611c0f57611c0e611b4f565b5b92915050565b7f4e487b7100000000000000000000000000000000000000000000000000000000600052603260045260246000fd5b6000611c4f82611788565b91507fffffffffffffffffffffffffffffffffffffffffffffffffffffffffffffffff8203611c8157611c80611b4f565b5b600182019050919050565b600082825260208201905092915050565b7f5072696365206d757374206265206174206c6561737420312077656900000000600082015250565b6000611cd3601c83611c8c565b9150611cde82611c9d565b602082019050919050565b60006020820190508181036000830152611d0281611cc6565b9050919050565b7f56616c75652070616964206d75737420626520657175616c20746f206c69737460008201527f696e672070726963650000000000000000000000000000000000000000000000602082015250565b6000611d65602983611c8c565b9150611d7082611d09565b604082019050919050565b60006020820190508181036000830152611d9481611d58565b9050919050565b6000606082019050611db06000830186611ac2565b611dbd6020830185611ac2565b611dca6040830184611951565b949350505050565b6000608082019050611de76000830187611ac2565b611df46020830186611ac2565b611e016040830185611951565b611e0e6060830184611ad1565b95945050505050565b7f4974656d20646f65736e27742065786973740000000000000000000000000000600082015250565b6000611e4d601283611c8c565b9150611e5882611e17565b602082019050919050565b60006020820190508181036000830152611e7c81611e40565b9050919050565b7f506c65617365207375626d6974207468652061736b696e67207072696365206960008201527f6e206f7264657220746f20636f6d706c65746520746865207075726368617365602082015250565b6000611edf604083611c8c565b9150611eea82611e83565b604082019050919050565b60006020820190508181036000830152611f0e81611ed2565b9050919050565b7f4974656d20616c726561647920736f6c64000000000000000000000000000000600082015250565b6000611f4b601183611c8c565b9150611f5682611f15565b602082019050919050565b60006020820190508181036000830152611f7a81611f3e565b9050919050565b7f5265656e7472616e637947756172643a207265656e7472616e742063616c6c00600082015250565b6000611fb7601f83611c8c565b9150611fc282611f81565b602082019050919050565b60006020820190508181036000830152611fe681611faa565b905091905056fea26469706673582212205eb34b32fda27cd1035c2e9150d41ab5ee13707f347f548eba6279baa2d2251c64736f6c63430008120033",
  "linkReferences": {},
  "deployedLinkReferences": {}
}