{
  "_format": "hh-sol-artifact-1",
  "contractName": "NFTmarket",
  "sourceName": "contracts/NFTmarket.sol",
  "abi": [
    {
      "inputs": [],
      "stateMutability": "nonpayable",
      "type": "constructor"
    },
    {
      "anonymous": false,
      "inputs": [
        {
          "indexed": true,
          "internalType": "uint256",
          "name": "itemId",
          "type": "uint256"
        },
        {
          "indexed": true,
          "internalType": "address",
          "name": "nftContract",
          "type": "address"
        },
        {
          "indexed": true,
          "internalType": "uint256",
          "name": "tokenId",
          "type": "uint256"
        },
        {
          "indexed": false,
          "internalType": "address",
          "name": "seller",
          "type": "address"
        },
        {
          "indexed": false,
          "internalType": "address",
          "name": "owner",
          "type": "address"
        },
        {
          "indexed": false,
          "internalType": "uint256",
          "name": "price",
          "type": "uint256"
        },
        {
          "indexed": false,
          "internalType": "bool",
          "name": "sold",
          "type": "bool"
        }
      ],
      "name": "MarketItemCreated",
      "type": "event"
    },
    {
      "inputs": [],
      "name": "_itemIds",
      "outputs": [
        {
          "internalType": "uint256",
          "name": "_value",
          "type": "uint256"
        }
      ],
      "stateMutability": "view",
      "type": "function"
    },
    {
      "inputs": [],
      "name": "_itemsSold",
      "outputs": [
        {
          "internalType": "uint256",
          "name": "_value",
          "type": "uint256"
        }
      ],
      "stateMutability": "view",
      "type": "function"
    },
    {
      "inputs": [
        {
          "internalType": "address",
          "name": "nftContract",
          "type": "address"
        },
        {
          "internalType": "uint256",
          "name": "tokenId",
          "type": "uint256"
        },
        {
          "internalType": "uint256",
          "name": "price",
          "type": "uint256"
        }
      ],
      "name": "createMarketItem",
      "outputs": [],
      "stateMutability": "payable",
      "type": "function"
    },
    {
      "inputs": [
        {
          "internalType": "address",
          "name": "nftContract",
          "type": "address"
        },
        {
          "internalType": "uint256",
          "name": "itemId",
          "type": "uint256"
        }
      ],
      "name": "createMarketSale",
      "outputs": [],
      "stateMutability": "payable",
      "type": "function"
    },
    {
      "inputs": [],
      "name": "fetchItemsCreated",
      "outputs": [
        {
          "components": [
            {
              "internalType": "uint256",
              "name": "itemId",
              "type": "uint256"
            },
            {
              "internalType": "address",
              "name": "nftContract",
              "type": "address"
            },
            {
              "internalType": "uint256",
              "name": "tokenId",
              "type": "uint256"
            },
            {
              "internalType": "address payable",
              "name": "seller",
              "type": "address"
            },
            {
              "internalType": "address payable",
              "name": "owner",
              "type": "address"
            },
            {
              "internalType": "uint256",
              "name": "price",
              "type": "uint256"
            },
            {
              "internalType": "bool",
              "name": "sold",
              "type": "bool"
            }
          ],
          "internalType": "struct NFTmarket.MarketItem[]",
          "name": "",
          "type": "tuple[]"
        }
      ],
      "stateMutability": "view",
      "type": "function"
    },
    {
      "inputs": [],
      "name": "fetchMarketItems",
      "outputs": [
        {
          "components": [
            {
              "internalType": "uint256",
              "name": "itemId",
              "type": "uint256"
            },
            {
              "internalType": "address",
              "name": "nftContract",
              "type": "address"
            },
            {
              "internalType": "uint256",
              "name": "tokenId",
              "type": "uint256"
            },
            {
              "internalType": "address payable",
              "name": "seller",
              "type": "address"
            },
            {
              "internalType": "address payable",
              "name": "owner",
              "type": "address"
            },
            {
              "internalType": "uint256",
              "name": "price",
              "type": "uint256"
            },
            {
              "internalType": "bool",
              "name": "sold",
              "type": "bool"
            }
          ],
          "internalType": "struct NFTmarket.MarketItem[]",
          "name": "",
          "type": "tuple[]"
        }
      ],
      "stateMutability": "view",
      "type": "function"
    },
    {
      "inputs": [],
      "name": "fetchMyNFTs",
      "outputs": [
        {
          "components": [
            {
              "internalType": "uint256",
              "name": "itemId",
              "type": "uint256"
            },
            {
              "internalType": "address",
              "name": "nftContract",
              "type": "address"
            },
            {
              "internalType": "uint256",
              "name": "tokenId",
              "type": "uint256"
            },
            {
              "internalType": "address payable",
              "name": "seller",
              "type": "address"
            },
            {
              "internalType": "address payable",
              "name": "owner",
              "type": "address"
            },
            {
              "internalType": "uint256",
              "name": "price",
              "type": "uint256"
            },
            {
              "internalType": "bool",
              "name": "sold",
              "type": "bool"
            }
          ],
          "internalType": "struct NFTmarket.MarketItem[]",
          "name": "",
          "type": "tuple[]"
        }
      ],
      "stateMutability": "view",
      "type": "function"
    },
    {
      "inputs": [],
      "name": "getListingPrice",
      "outputs": [
        {
          "internalType": "uint256",
          "name": "",
          "type": "uint256"
        }
      ],
      "stateMutability": "view",
      "type": "function"
    },
    {
      "inputs": [
        {
          "internalType": "uint256",
          "name": "",
          "type": "uint256"
        }
      ],
      "name": "idToMarketItem",
      "outputs": [
        {
          "internalType": "uint256",
          "name": "itemId",
          "type": "uint256"
        },
        {
          "internalType": "address",
          "name": "nftContract",
          "type": "address"
        },
        {
          "internalType": "uint256",
          "name": "tokenId",
          "type": "uint256"
        },
        {
          "internalType": "address payable",
          "name": "seller",
          "type": "address"
        },
        {
          "internalType": "address payable",
          "name": "owner",
          "type": "address"
        },
        {
          "internalType": "uint256",
          "name": "price",
          "type": "uint256"
        },
        {
          "internalType": "bool",
          "name": "sold",
          "type": "bool"
        }
      ],
      "stateMutability": "view",
      "type": "function"
    },
    {
      "inputs": [],
      "name": "listingPrice",
      "outputs": [
        {
          "internalType": "uint256",
          "name": "",
          "type": "uint256"
        }
      ],
      "stateMutability": "view",
      "type": "function"
    },
    {
      "inputs": [],
      "name": "owner",
      "outputs": [
        {
          "internalType": "address payable",
          "name": "",
          "type": "address"
        }
      ],
      "stateMutability": "view",
      "type": "function"
    }
  ],
  "bytecode": "0x60806040526658d15e1762800060045534801561001b57600080fd5b50600160008190555033600360006101000a81548173ffffffffffffffffffffffffffffffffffffffff021916908373ffffffffffffffffffffffffffffffffffffffff160217905550611d10806100746000396000f3fe60806040526004361061009c5760003560e01c806387506a0d1161006457806387506a0d146101695780638da5cb5b14610194578063c23b139e146101bf578063c78f19f9146101db578063e61a70c014610206578063f064c32e146102495761009c565b80630f08efe0146100a157806312e85585146100cc578063202e3740146100f757806334a7f1931461012257806358eb2df51461014d575b600080fd5b3480156100ad57600080fd5b506100b6610274565b6040516100c3919061161c565b60405180910390f35b3480156100d857600080fd5b506100e161053d565b6040516100ee919061164d565b60405180910390f35b34801561010357600080fd5b5061010c610547565b604051610119919061161c565b60405180910390f35b34801561012e57600080fd5b506101376108a9565b604051610144919061164d565b60405180910390f35b610167600480360381019061016291906116c5565b6108b5565b005b34801561017557600080fd5b5061017e610bd3565b60405161018b919061164d565b60405180910390f35b3480156101a057600080fd5b506101a9610bdf565b6040516101b69190611727565b60405180910390f35b6101d960048036038101906101d49190611742565b610c05565b005b3480156101e757600080fd5b506101f0610f34565b6040516101fd919061164d565b60405180910390f35b34801561021257600080fd5b5061022d60048036038101906102289190611782565b610f3a565b60405161024097969594939291906117cd565b60405180910390f35b34801561025557600080fd5b5061025e610fe9565b60405161026b919061161c565b60405180910390f35b60606000610282600161134b565b90506000610290600261134b565b61029a600161134b565b6102a4919061186b565b90506000808267ffffffffffffffff8111156102c3576102c261189f565b5b6040519080825280602002602001820160405280156102fc57816020015b6102e96113c8565b8152602001906001900390816102e15790505b50905060005b8481101561053257600073ffffffffffffffffffffffffffffffffffffffff166005600060018461033391906118ce565b815260200190815260200160002060040160009054906101000a900473ffffffffffffffffffffffffffffffffffffffff1673ffffffffffffffffffffffffffffffffffffffff160361051f57600060018261038f91906118ce565b90506000600560008381526020019081526020016000209050806040518060e0016040529081600082015481526020016001820160009054906101000a900473ffffffffffffffffffffffffffffffffffffffff1673ffffffffffffffffffffffffffffffffffffffff1673ffffffffffffffffffffffffffffffffffffffff168152602001600282015481526020016003820160009054906101000a900473ffffffffffffffffffffffffffffffffffffffff1673ffffffffffffffffffffffffffffffffffffffff1673ffffffffffffffffffffffffffffffffffffffff1681526020016004820160009054906101000a900473ffffffffffffffffffffffffffffffffffffffff1673ffffffffffffffffffffffffffffffffffffffff1673ffffffffffffffffffffffffffffffffffffffff168152602001600582015481526020016006820160009054906101000a900460ff16151515158152505084868151811061050257610501611902565b5b602002602001018190525060018561051a91906118ce565b945050505b808061052a90611931565b915050610302565b508094505050505090565b6000600454905090565b60606000610555600161134b565b905060008060005b838110156105fd573373ffffffffffffffffffffffffffffffffffffffff166005600060018461058d91906118ce565b815260200190815260200160002060040160009054906101000a900473ffffffffffffffffffffffffffffffffffffffff1673ffffffffffffffffffffffffffffffffffffffff16036105ea576001836105e791906118ce565b92505b80806105f590611931565b91505061055d565b5060008267ffffffffffffffff81111561061a5761061961189f565b5b60405190808252806020026020018201604052801561065357816020015b6106406113c8565b8152602001906001900390816106385790505b50905060005b8481101561089e573373ffffffffffffffffffffffffffffffffffffffff166005600060018461068991906118ce565b815260200190815260200160002060040160009054906101000a900473ffffffffffffffffffffffffffffffffffffffff1673ffffffffffffffffffffffffffffffffffffffff160361088b576000600560006001846106e991906118ce565b81526020019081526020016000206000015490506000600560008381526020019081526020016000209050806040518060e0016040529081600082015481526020016001820160009054906101000a900473ffffffffffffffffffffffffffffffffffffffff1673ffffffffffffffffffffffffffffffffffffffff1673ffffffffffffffffffffffffffffffffffffffff168152602001600282015481526020016003820160009054906101000a900473ffffffffffffffffffffffffffffffffffffffff1673ffffffffffffffffffffffffffffffffffffffff1673ffffffffffffffffffffffffffffffffffffffff1681526020016004820160009054906101000a900473ffffffffffffffffffffffffffffffffffffffff1673ffffffffffffffffffffffffffffffffffffffff1673ffffffffffffffffffffffffffffffffffffffff168152602001600582015481526020016006820160009054906101000a900460ff16151515158152505084868151811061086e5761086d611902565b5b602002602001018190525060018561088691906118ce565b945050505b808061089690611931565b915050610659565b508094505050505090565b60018060000154905081565b6108bd611359565b60008111610900576040517f08c379a00000000000000000000000000000000000000000000000000000000081526004016108f7906119d6565b60405180910390fd5b6004543414610944576040517f08c379a000000000000000000000000000000000000000000000000000000000815260040161093b90611a68565b60405180910390fd5b61094e60016113a8565b600061095a600161134b565b90506040518060e001604052808281526020018573ffffffffffffffffffffffffffffffffffffffff1681526020018481526020013373ffffffffffffffffffffffffffffffffffffffff168152602001600073ffffffffffffffffffffffffffffffffffffffff16815260200183815260200160001515815250600560008381526020019081526020016000206000820151816000015560208201518160010160006101000a81548173ffffffffffffffffffffffffffffffffffffffff021916908373ffffffffffffffffffffffffffffffffffffffff1602179055506040820151816002015560608201518160030160006101000a81548173ffffffffffffffffffffffffffffffffffffffff021916908373ffffffffffffffffffffffffffffffffffffffff16021790555060808201518160040160006101000a81548173ffffffffffffffffffffffffffffffffffffffff021916908373ffffffffffffffffffffffffffffffffffffffff16021790555060a0820151816005015560c08201518160060160006101000a81548160ff0219169083151502179055509050508373ffffffffffffffffffffffffffffffffffffffff166323b872dd3330866040518463ffffffff1660e01b8152600401610b3b93929190611a88565b600060405180830381600087803b158015610b5557600080fd5b505af1158015610b69573d6000803e3d6000fd5b50505050828473ffffffffffffffffffffffffffffffffffffffff16827f045dfa01dcba2b36aba1d3dc4a874f4b0c5d2fbeb8d2c4b34a7d88c8d8f929d1336000876000604051610bbd9493929190611abf565b60405180910390a450610bce6113be565b505050565b60028060000154905081565b600360009054906101000a900473ffffffffffffffffffffffffffffffffffffffff1681565b610c0d611359565b600060056000838152602001908152602001600020600501549050600060056000848152602001908152602001600020600201549050600083118015610c5c5750610c58600161134b565b8311155b610c9b576040517f08c379a0000000000000000000000000000000000000000000000000000000008152600401610c9290611b50565b60405180910390fd5b813414610cdd576040517f08c379a0000000000000000000000000000000000000000000000000000000008152600401610cd490611be2565b60405180910390fd5b6005600084815260200190815260200160002060060160009054906101000a900460ff1615610d41576040517f08c379a0000000000000000000000000000000000000000000000000000000008152600401610d3890611c4e565b60405180910390fd5b6005600084815260200190815260200160002060030160009054906101000a900473ffffffffffffffffffffffffffffffffffffffff1673ffffffffffffffffffffffffffffffffffffffff166108fc349081150290604051600060405180830381858888f19350505050158015610dbd573d6000803e3d6000fd5b508373ffffffffffffffffffffffffffffffffffffffff166323b872dd3033846040518463ffffffff1660e01b8152600401610dfb93929190611a88565b600060405180830381600087803b158015610e1557600080fd5b505af1158015610e29573d6000803e3d6000fd5b50505050336005600085815260200190815260200160002060040160006101000a81548173ffffffffffffffffffffffffffffffffffffffff021916908373ffffffffffffffffffffffffffffffffffffffff16021790555060016005600085815260200190815260200160002060060160006101000a81548160ff021916908315150217905550610ebb60026113a8565b600360009054906101000a900473ffffffffffffffffffffffffffffffffffffffff1673ffffffffffffffffffffffffffffffffffffffff166108fc6004549081150290604051600060405180830381858888f19350505050158015610f25573d6000803e3d6000fd5b505050610f306113be565b5050565b60045481565b60056020528060005260406000206000915090508060000154908060010160009054906101000a900473ffffffffffffffffffffffffffffffffffffffff16908060020154908060030160009054906101000a900473ffffffffffffffffffffffffffffffffffffffff16908060040160009054906101000a900473ffffffffffffffffffffffffffffffffffffffff16908060050154908060060160009054906101000a900460ff16905087565b60606000610ff7600161134b565b905060008060005b8381101561109f573373ffffffffffffffffffffffffffffffffffffffff166005600060018461102f91906118ce565b815260200190815260200160002060030160009054906101000a900473ffffffffffffffffffffffffffffffffffffffff1673ffffffffffffffffffffffffffffffffffffffff160361108c5760018361108991906118ce565b92505b808061109790611931565b915050610fff565b5060008267ffffffffffffffff8111156110bc576110bb61189f565b5b6040519080825280602002602001820160405280156110f557816020015b6110e26113c8565b8152602001906001900390816110da5790505b50905060005b84811015611340573373ffffffffffffffffffffffffffffffffffffffff166005600060018461112b91906118ce565b815260200190815260200160002060030160009054906101000a900473ffffffffffffffffffffffffffffffffffffffff1673ffffffffffffffffffffffffffffffffffffffff160361132d5760006005600060018461118b91906118ce565b81526020019081526020016000206000015490506000600560008381526020019081526020016000209050806040518060e0016040529081600082015481526020016001820160009054906101000a900473ffffffffffffffffffffffffffffffffffffffff1673ffffffffffffffffffffffffffffffffffffffff1673ffffffffffffffffffffffffffffffffffffffff168152602001600282015481526020016003820160009054906101000a900473ffffffffffffffffffffffffffffffffffffffff1673ffffffffffffffffffffffffffffffffffffffff1673ffffffffffffffffffffffffffffffffffffffff1681526020016004820160009054906101000a900473ffffffffffffffffffffffffffffffffffffffff1673ffffffffffffffffffffffffffffffffffffffff1673ffffffffffffffffffffffffffffffffffffffff168152602001600582015481526020016006820160009054906101000a900460ff1615151515815250508486815181106113105761130f611902565b5b602002602001018190525060018561132891906118ce565b945050505b808061133890611931565b9150506110fb565b508094505050505090565b600081600001549050919050565b60026000540361139e576040517f08c379a000000000000000000000000000000000000000000000000000000000815260040161139590611cba565b60405180910390fd5b6002600081905550565b6001816000016000828254019250508190555050565b6001600081905550565b6040518060e0016040528060008152602001600073ffffffffffffffffffffffffffffffffffffffff16815260200160008152602001600073ffffffffffffffffffffffffffffffffffffffff168152602001600073ffffffffffffffffffffffffffffffffffffffff168152602001600081526020016000151581525090565b600081519050919050565b600082825260208201905092915050565b6000819050602082019050919050565b6000819050919050565b61148881611475565b82525050565b600073ffffffffffffffffffffffffffffffffffffffff82169050919050565b60006114b98261148e565b9050919050565b6114c9816114ae565b82525050565b60006114da8261148e565b9050919050565b6114ea816114cf565b82525050565b60008115159050919050565b611505816114f0565b82525050565b60e082016000820151611521600085018261147f565b50602082015161153460208501826114c0565b506040820151611547604085018261147f565b50606082015161155a60608501826114e1565b50608082015161156d60808501826114e1565b5060a082015161158060a085018261147f565b5060c082015161159360c08501826114fc565b50505050565b60006115a5838361150b565b60e08301905092915050565b6000602082019050919050565b60006115c982611449565b6115d38185611454565b93506115de83611465565b8060005b8381101561160f5781516115f68882611599565b9750611601836115b1565b9250506001810190506115e2565b5085935050505092915050565b6000602082019050818103600083015261163681846115be565b905092915050565b61164781611475565b82525050565b6000602082019050611662600083018461163e565b92915050565b600080fd5b611676816114ae565b811461168157600080fd5b50565b6000813590506116938161166d565b92915050565b6116a281611475565b81146116ad57600080fd5b50565b6000813590506116bf81611699565b92915050565b6000806000606084860312156116de576116dd611668565b5b60006116ec86828701611684565b93505060206116fd868287016116b0565b925050604061170e868287016116b0565b9150509250925092565b611721816114cf565b82525050565b600060208201905061173c6000830184611718565b92915050565b6000806040838503121561175957611758611668565b5b600061176785828601611684565b9250506020611778858286016116b0565b9150509250929050565b60006020828403121561179857611797611668565b5b60006117a6848285016116b0565b91505092915050565b6117b8816114ae565b82525050565b6117c7816114f0565b82525050565b600060e0820190506117e2600083018a61163e565b6117ef60208301896117af565b6117fc604083018861163e565b6118096060830187611718565b6118166080830186611718565b61182360a083018561163e565b61183060c08301846117be565b98975050505050505050565b7f4e487b7100000000000000000000000000000000000000000000000000000000600052601160045260246000fd5b600061187682611475565b915061188183611475565b92508282039050818111156118995761189861183c565b5b92915050565b7f4e487b7100000000000000000000000000000000000000000000000000000000600052604160045260246000fd5b60006118d982611475565b91506118e483611475565b92508282019050808211156118fc576118fb61183c565b5b92915050565b7f4e487b7100000000000000000000000000000000000000000000000000000000600052603260045260246000fd5b600061193c82611475565b91507fffffffffffffffffffffffffffffffffffffffffffffffffffffffffffffffff820361196e5761196d61183c565b5b600182019050919050565b600082825260208201905092915050565b7f5072696365206d757374206265206174206c6561737420312077656900000000600082015250565b60006119c0601c83611979565b91506119cb8261198a565b602082019050919050565b600060208201905081810360008301526119ef816119b3565b9050919050565b7f56616c75652070616964206d75737420626520657175616c20746f206c69737460008201527f696e672070726963650000000000000000000000000000000000000000000000602082015250565b6000611a52602983611979565b9150611a5d826119f6565b604082019050919050565b60006020820190508181036000830152611a8181611a45565b9050919050565b6000606082019050611a9d60008301866117af565b611aaa60208301856117af565b611ab7604083018461163e565b949350505050565b6000608082019050611ad460008301876117af565b611ae160208301866117af565b611aee604083018561163e565b611afb60608301846117be565b95945050505050565b7f4974656d20646f65736e27742065786973740000000000000000000000000000600082015250565b6000611b3a601283611979565b9150611b4582611b04565b602082019050919050565b60006020820190508181036000830152611b6981611b2d565b9050919050565b7f506c65617365207375626d6974207468652061736b696e67207072696365206960008201527f6e206f7264657220746f20636f6d706c65746520746865207075726368617365602082015250565b6000611bcc604083611979565b9150611bd782611b70565b604082019050919050565b60006020820190508181036000830152611bfb81611bbf565b9050919050565b7f4974656d20616c726561647920736f6c64000000000000000000000000000000600082015250565b6000611c38601183611979565b9150611c4382611c02565b602082019050919050565b60006020820190508181036000830152611c6781611c2b565b9050919050565b7f5265656e7472616e637947756172643a207265656e7472616e742063616c6c00600082015250565b6000611ca4601f83611979565b9150611caf82611c6e565b602082019050919050565b60006020820190508181036000830152611cd381611c97565b905091905056fea264697066735822122071b08fdcba58f455c421d145d742fac8165593f11f3521f8293bf1703d47f6c364736f6c63430008120033",
  "linkReferences": {},
  "deployedLinkReferences": {}
}