{
  "_format": "hh-sol-artifact-1",
  "contractName": "NFTmarket",
  "sourceName": "contracts/NFTmarket.sol",
  "abi": [
    {
      "inputs": [],
      "stateMutability": "nonpayable",
      "type": "constructor"
    },
    {
      "anonymous": false,
      "inputs": [
        {
          "indexed": true,
          "internalType": "uint256",
          "name": "itemId",
          "type": "uint256"
        },
        {
          "indexed": true,
          "internalType": "address",
          "name": "nftContract",
          "type": "address"
        },
        {
          "indexed": true,
          "internalType": "uint256",
          "name": "tokenId",
          "type": "uint256"
        },
        {
          "indexed": false,
          "internalType": "address",
          "name": "creator",
          "type": "address"
        },
        {
          "indexed": false,
          "internalType": "address",
          "name": "seller",
          "type": "address"
        },
        {
          "indexed": false,
          "internalType": "address",
          "name": "owner",
          "type": "address"
        },
        {
          "indexed": false,
          "internalType": "uint256",
          "name": "price",
          "type": "uint256"
        },
        {
          "indexed": false,
          "internalType": "bool",
          "name": "sold",
          "type": "bool"
        },
        {
          "indexed": false,
          "internalType": "bool",
          "name": "relisted",
          "type": "bool"
        }
      ],
      "name": "MarketItemCreated",
      "type": "event"
    },
    {
      "anonymous": false,
      "inputs": [
        {
          "indexed": true,
          "internalType": "uint256",
          "name": "itemId",
          "type": "uint256"
        }
      ],
      "name": "ProductListed",
      "type": "event"
    },
    {
      "stateMutability": "payable",
      "type": "fallback"
    },
    {
      "inputs": [],
      "name": "_itemIds",
      "outputs": [
        {
          "internalType": "uint256",
          "name": "_value",
          "type": "uint256"
        }
      ],
      "stateMutability": "view",
      "type": "function"
    },
    {
      "inputs": [],
      "name": "_itemsSold",
      "outputs": [
        {
          "internalType": "uint256",
          "name": "_value",
          "type": "uint256"
        }
      ],
      "stateMutability": "view",
      "type": "function"
    },
    {
      "inputs": [
        {
          "internalType": "address",
          "name": "nftContract",
          "type": "address"
        },
        {
          "internalType": "uint256",
          "name": "tokenId",
          "type": "uint256"
        },
        {
          "internalType": "uint256",
          "name": "price",
          "type": "uint256"
        }
      ],
      "name": "createMarketItem",
      "outputs": [],
      "stateMutability": "payable",
      "type": "function"
    },
    {
      "inputs": [
        {
          "internalType": "address",
          "name": "nftContract",
          "type": "address"
        },
        {
          "internalType": "uint256",
          "name": "itemId",
          "type": "uint256"
        }
      ],
      "name": "createMarketSale",
      "outputs": [],
      "stateMutability": "payable",
      "type": "function"
    },
    {
      "inputs": [],
      "name": "fetchItemsCreated",
      "outputs": [
        {
          "components": [
            {
              "internalType": "uint256",
              "name": "itemId",
              "type": "uint256"
            },
            {
              "internalType": "address",
              "name": "nftContract",
              "type": "address"
            },
            {
              "internalType": "uint256",
              "name": "tokenId",
              "type": "uint256"
            },
            {
              "internalType": "address payable",
              "name": "creator",
              "type": "address"
            },
            {
              "internalType": "address payable",
              "name": "seller",
              "type": "address"
            },
            {
              "internalType": "address payable",
              "name": "owner",
              "type": "address"
            },
            {
              "internalType": "uint256",
              "name": "price",
              "type": "uint256"
            },
            {
              "internalType": "bool",
              "name": "sold",
              "type": "bool"
            },
            {
              "internalType": "bool",
              "name": "relisted",
              "type": "bool"
            }
          ],
          "internalType": "struct NFTmarket.MarketItem[]",
          "name": "",
          "type": "tuple[]"
        }
      ],
      "stateMutability": "view",
      "type": "function"
    },
    {
      "inputs": [],
      "name": "fetchMarketItems",
      "outputs": [
        {
          "components": [
            {
              "internalType": "uint256",
              "name": "itemId",
              "type": "uint256"
            },
            {
              "internalType": "address",
              "name": "nftContract",
              "type": "address"
            },
            {
              "internalType": "uint256",
              "name": "tokenId",
              "type": "uint256"
            },
            {
              "internalType": "address payable",
              "name": "creator",
              "type": "address"
            },
            {
              "internalType": "address payable",
              "name": "seller",
              "type": "address"
            },
            {
              "internalType": "address payable",
              "name": "owner",
              "type": "address"
            },
            {
              "internalType": "uint256",
              "name": "price",
              "type": "uint256"
            },
            {
              "internalType": "bool",
              "name": "sold",
              "type": "bool"
            },
            {
              "internalType": "bool",
              "name": "relisted",
              "type": "bool"
            }
          ],
          "internalType": "struct NFTmarket.MarketItem[]",
          "name": "",
          "type": "tuple[]"
        }
      ],
      "stateMutability": "view",
      "type": "function"
    },
    {
      "inputs": [],
      "name": "fetchMyNFTs",
      "outputs": [
        {
          "components": [
            {
              "internalType": "uint256",
              "name": "itemId",
              "type": "uint256"
            },
            {
              "internalType": "address",
              "name": "nftContract",
              "type": "address"
            },
            {
              "internalType": "uint256",
              "name": "tokenId",
              "type": "uint256"
            },
            {
              "internalType": "address payable",
              "name": "creator",
              "type": "address"
            },
            {
              "internalType": "address payable",
              "name": "seller",
              "type": "address"
            },
            {
              "internalType": "address payable",
              "name": "owner",
              "type": "address"
            },
            {
              "internalType": "uint256",
              "name": "price",
              "type": "uint256"
            },
            {
              "internalType": "bool",
              "name": "sold",
              "type": "bool"
            },
            {
              "internalType": "bool",
              "name": "relisted",
              "type": "bool"
            }
          ],
          "internalType": "struct NFTmarket.MarketItem[]",
          "name": "",
          "type": "tuple[]"
        }
      ],
      "stateMutability": "view",
      "type": "function"
    },
    {
      "inputs": [
        {
          "internalType": "uint256",
          "name": "itemId",
          "type": "uint256"
        }
      ],
      "name": "fetchNFTDetails",
      "outputs": [
        {
          "components": [
            {
              "internalType": "uint256",
              "name": "itemId",
              "type": "uint256"
            },
            {
              "internalType": "address",
              "name": "nftContract",
              "type": "address"
            },
            {
              "internalType": "uint256",
              "name": "tokenId",
              "type": "uint256"
            },
            {
              "internalType": "address payable",
              "name": "creator",
              "type": "address"
            },
            {
              "internalType": "address payable",
              "name": "seller",
              "type": "address"
            },
            {
              "internalType": "address payable",
              "name": "owner",
              "type": "address"
            },
            {
              "internalType": "uint256",
              "name": "price",
              "type": "uint256"
            },
            {
              "internalType": "bool",
              "name": "sold",
              "type": "bool"
            },
            {
              "internalType": "bool",
              "name": "relisted",
              "type": "bool"
            }
          ],
          "internalType": "struct NFTmarket.MarketItem",
          "name": "",
          "type": "tuple"
        }
      ],
      "stateMutability": "view",
      "type": "function"
    },
    {
      "inputs": [],
      "name": "getListingPrice",
      "outputs": [
        {
          "internalType": "uint256",
          "name": "",
          "type": "uint256"
        }
      ],
      "stateMutability": "view",
      "type": "function"
    },
    {
      "inputs": [
        {
          "internalType": "uint256",
          "name": "",
          "type": "uint256"
        }
      ],
      "name": "idToMarketItem",
      "outputs": [
        {
          "internalType": "uint256",
          "name": "itemId",
          "type": "uint256"
        },
        {
          "internalType": "address",
          "name": "nftContract",
          "type": "address"
        },
        {
          "internalType": "uint256",
          "name": "tokenId",
          "type": "uint256"
        },
        {
          "internalType": "address payable",
          "name": "creator",
          "type": "address"
        },
        {
          "internalType": "address payable",
          "name": "seller",
          "type": "address"
        },
        {
          "internalType": "address payable",
          "name": "owner",
          "type": "address"
        },
        {
          "internalType": "uint256",
          "name": "price",
          "type": "uint256"
        },
        {
          "internalType": "bool",
          "name": "sold",
          "type": "bool"
        },
        {
          "internalType": "bool",
          "name": "relisted",
          "type": "bool"
        }
      ],
      "stateMutability": "view",
      "type": "function"
    },
    {
      "inputs": [],
      "name": "listingPrice",
      "outputs": [
        {
          "internalType": "uint256",
          "name": "",
          "type": "uint256"
        }
      ],
      "stateMutability": "view",
      "type": "function"
    },
    {
      "inputs": [],
      "name": "owner",
      "outputs": [
        {
          "internalType": "address payable",
          "name": "",
          "type": "address"
        }
      ],
      "stateMutability": "view",
      "type": "function"
    },
    {
      "inputs": [
        {
          "internalType": "address payable",
          "name": "nftContract",
          "type": "address"
        },
        {
          "internalType": "uint256",
          "name": "itemId",
          "type": "uint256"
        },
        {
          "internalType": "uint256",
          "name": "newPrice",
          "type": "uint256"
        }
      ],
      "name": "relistToken",
      "outputs": [],
      "stateMutability": "payable",
      "type": "function"
    },
    {
      "stateMutability": "payable",
      "type": "receive"
    }
  ],
  "bytecode": "0x60806040526658d15e1762800060045534801561001b57600080fd5b50600160008190555033600360006101000a81548173ffffffffffffffffffffffffffffffffffffffff021916908373ffffffffffffffffffffffffffffffffffffffff160217905550612b01806100746000396000f3fe6080604052600436106100c65760003560e01c806387506a0d1161007f578063c23b139e11610059578063c23b139e14610246578063c78f19f914610262578063e61a70c01461028d578063f064c32e146102d2576100cd565b806387506a0d146101d45780638da5cb5b146101ff5780639300f0971461022a576100cd565b80630f08efe0146100cf57806312e85585146100fa578063202e37401461012557806334a7f1931461015057806358eb2df51461017b5780636a3bf9dd14610197576100cd565b366100cd57005b005b3480156100db57600080fd5b506100e46102fd565b6040516100f191906120f1565b60405180910390f35b34801561010657600080fd5b5061010f610638565b60405161011c9190612122565b60405180910390f35b34801561013157600080fd5b5061013a610642565b60405161014791906120f1565b60405180910390f35b34801561015c57600080fd5b50610165610c8c565b6040516101729190612122565b60405180910390f35b6101956004803603810190610190919061219a565b610c98565b005b3480156101a357600080fd5b506101be60048036038101906101b991906121ed565b611048565b6040516101cb91906122d1565b60405180910390f35b3480156101e057600080fd5b506101e9611222565b6040516101f69190612122565b60405180910390f35b34801561020b57600080fd5b5061021461122e565b60405161022191906122fc565b60405180910390f35b610244600480360381019061023f9190612343565b611254565b005b610260600480360381019061025b9190612396565b611582565b005b34801561026e57600080fd5b506102776118b1565b6040516102849190612122565b60405180910390f35b34801561029957600080fd5b506102b460048036038101906102af91906121ed565b6118b7565b6040516102c9999897969594939291906123f4565b60405180910390f35b3480156102de57600080fd5b506102e761199f565b6040516102f491906120f1565b60405180910390f35b6060600061030b6001611d73565b905060006103196002611d73565b6103236001611d73565b61032d91906124b0565b90506000808267ffffffffffffffff81111561034c5761034b6124e4565b5b60405190808252806020026020018201604052801561038557816020015b610372611e4c565b81526020019060019003908161036a5790505b50905060005b8481101561062d57600073ffffffffffffffffffffffffffffffffffffffff16600560006001846103bc9190612513565b815260200190815260200160002060050160009054906101000a900473ffffffffffffffffffffffffffffffffffffffff1673ffffffffffffffffffffffffffffffffffffffff160361061a5760006001826104189190612513565b905060006005600083815260200190815260200160002090508060405180610120016040529081600082015481526020016001820160009054906101000a900473ffffffffffffffffffffffffffffffffffffffff1673ffffffffffffffffffffffffffffffffffffffff1673ffffffffffffffffffffffffffffffffffffffff168152602001600282015481526020016003820160009054906101000a900473ffffffffffffffffffffffffffffffffffffffff1673ffffffffffffffffffffffffffffffffffffffff1673ffffffffffffffffffffffffffffffffffffffff1681526020016004820160009054906101000a900473ffffffffffffffffffffffffffffffffffffffff1673ffffffffffffffffffffffffffffffffffffffff1673ffffffffffffffffffffffffffffffffffffffff1681526020016005820160009054906101000a900473ffffffffffffffffffffffffffffffffffffffff1673ffffffffffffffffffffffffffffffffffffffff1673ffffffffffffffffffffffffffffffffffffffff168152602001600682015481526020016007820160009054906101000a900460ff161515151581526020016007820160019054906101000a900460ff1615151515815250508486815181106105fd576105fc612547565b5b60200260200101819052506001856106159190612513565b945050505b808061062590612576565b91505061038b565b508094505050505090565b6000600454905090565b606060006106506001611d73565b905060008060005b8381101561083c573373ffffffffffffffffffffffffffffffffffffffff16600560006001846106889190612513565b815260200190815260200160002060050160009054906101000a900473ffffffffffffffffffffffffffffffffffffffff1673ffffffffffffffffffffffffffffffffffffffff16036106e9576001836106e29190612513565b9250610829565b3373ffffffffffffffffffffffffffffffffffffffff16600560006001846107119190612513565b815260200190815260200160002060030160009054906101000a900473ffffffffffffffffffffffffffffffffffffffff1673ffffffffffffffffffffffffffffffffffffffff16141580156107d457503373ffffffffffffffffffffffffffffffffffffffff166005600060018461078a9190612513565b815260200190815260200160002060040160009054906101000a900473ffffffffffffffffffffffffffffffffffffffff1673ffffffffffffffffffffffffffffffffffffffff16145b8015610813575060001515600560006001846107f09190612513565b815260200190815260200160002060070160009054906101000a900460ff161515145b15610828576001836108259190612513565b92505b5b808061083490612576565b915050610658565b5060008267ffffffffffffffff811115610859576108586124e4565b5b60405190808252806020026020018201604052801561089257816020015b61087f611e4c565b8152602001906001900390816108775790505b50905060005b84811015610c81573373ffffffffffffffffffffffffffffffffffffffff16600560006001846108c89190612513565b815260200190815260200160002060050160009054906101000a900473ffffffffffffffffffffffffffffffffffffffff1673ffffffffffffffffffffffffffffffffffffffff161480610a4257503373ffffffffffffffffffffffffffffffffffffffff166005600060018461093f9190612513565b815260200190815260200160002060030160009054906101000a900473ffffffffffffffffffffffffffffffffffffffff1673ffffffffffffffffffffffffffffffffffffffff1614158015610a0257503373ffffffffffffffffffffffffffffffffffffffff16600560006001846109b89190612513565b815260200190815260200160002060040160009054906101000a900473ffffffffffffffffffffffffffffffffffffffff1673ffffffffffffffffffffffffffffffffffffffff16145b8015610a4157506000151560056000600184610a1e9190612513565b815260200190815260200160002060070160009054906101000a900460ff161515145b5b15610c6e57600060056000600184610a5a9190612513565b815260200190815260200160002060000154905060006005600083815260200190815260200160002090508060405180610120016040529081600082015481526020016001820160009054906101000a900473ffffffffffffffffffffffffffffffffffffffff1673ffffffffffffffffffffffffffffffffffffffff1673ffffffffffffffffffffffffffffffffffffffff168152602001600282015481526020016003820160009054906101000a900473ffffffffffffffffffffffffffffffffffffffff1673ffffffffffffffffffffffffffffffffffffffff1673ffffffffffffffffffffffffffffffffffffffff1681526020016004820160009054906101000a900473ffffffffffffffffffffffffffffffffffffffff1673ffffffffffffffffffffffffffffffffffffffff1673ffffffffffffffffffffffffffffffffffffffff1681526020016005820160009054906101000a900473ffffffffffffffffffffffffffffffffffffffff1673ffffffffffffffffffffffffffffffffffffffff1673ffffffffffffffffffffffffffffffffffffffff168152602001600682015481526020016007820160009054906101000a900460ff161515151581526020016007820160019054906101000a900460ff161515151581525050848681518110610c5157610c50612547565b5b6020026020010181905250600185610c699190612513565b945050505b8080610c7990612576565b915050610898565b508094505050505090565b60018060000154905081565b610ca0611d81565b60008111610ce3576040517f08c379a0000000000000000000000000000000000000000000000000000000008152600401610cda9061261b565b60405180910390fd5b6004543414610d27576040517f08c379a0000000000000000000000000000000000000000000000000000000008152600401610d1e906126ad565b60405180910390fd5b610d316001611dd0565b6000610d3d6001611d73565b90506040518061012001604052808281526020018573ffffffffffffffffffffffffffffffffffffffff1681526020018481526020013373ffffffffffffffffffffffffffffffffffffffff1681526020013373ffffffffffffffffffffffffffffffffffffffff168152602001600073ffffffffffffffffffffffffffffffffffffffff16815260200183815260200160001515815260200160001515815250600560008381526020019081526020016000206000820151816000015560208201518160010160006101000a81548173ffffffffffffffffffffffffffffffffffffffff021916908373ffffffffffffffffffffffffffffffffffffffff1602179055506040820151816002015560608201518160030160006101000a81548173ffffffffffffffffffffffffffffffffffffffff021916908373ffffffffffffffffffffffffffffffffffffffff16021790555060808201518160040160006101000a81548173ffffffffffffffffffffffffffffffffffffffff021916908373ffffffffffffffffffffffffffffffffffffffff16021790555060a08201518160050160006101000a81548173ffffffffffffffffffffffffffffffffffffffff021916908373ffffffffffffffffffffffffffffffffffffffff16021790555060c0820151816006015560e08201518160070160006101000a81548160ff0219169083151502179055506101008201518160070160016101000a81548160ff0219169083151502179055509050508373ffffffffffffffffffffffffffffffffffffffff166323b872dd3330866040518463ffffffff1660e01b8152600401610fac939291906126cd565b600060405180830381600087803b158015610fc657600080fd5b505af1158015610fda573d6000803e3d6000fd5b50505050828473ffffffffffffffffffffffffffffffffffffffff16827fa3b15201f5409f14cce6233dc60972278c313ff3ddbdee57ff092c0e95313526333360008860008060405161103296959493929190612704565b60405180910390a450611043611de6565b505050565b611050611e4c565b6005600083815260200190815260200160002060405180610120016040529081600082015481526020016001820160009054906101000a900473ffffffffffffffffffffffffffffffffffffffff1673ffffffffffffffffffffffffffffffffffffffff1673ffffffffffffffffffffffffffffffffffffffff168152602001600282015481526020016003820160009054906101000a900473ffffffffffffffffffffffffffffffffffffffff1673ffffffffffffffffffffffffffffffffffffffff1673ffffffffffffffffffffffffffffffffffffffff1681526020016004820160009054906101000a900473ffffffffffffffffffffffffffffffffffffffff1673ffffffffffffffffffffffffffffffffffffffff1673ffffffffffffffffffffffffffffffffffffffff1681526020016005820160009054906101000a900473ffffffffffffffffffffffffffffffffffffffff1673ffffffffffffffffffffffffffffffffffffffff1673ffffffffffffffffffffffffffffffffffffffff168152602001600682015481526020016007820160009054906101000a900460ff161515151581526020016007820160019054906101000a900460ff1615151515815250509050919050565b60028060000154905081565b600360009054906101000a900473ffffffffffffffffffffffffffffffffffffffff1681565b61125c611d81565b813373ffffffffffffffffffffffffffffffffffffffff166005600083815260200190815260200160002060050160009054906101000a900473ffffffffffffffffffffffffffffffffffffffff1673ffffffffffffffffffffffffffffffffffffffff1614611301576040517f08c379a00000000000000000000000000000000000000000000000000000000081526004016112f8906127d7565b60405180910390fd5b6000600560008581526020019081526020016000206002015490506000831161135f576040517f08c379a00000000000000000000000000000000000000000000000000000000081526004016113569061261b565b60405180910390fd5b60045434146113a3576040517f08c379a000000000000000000000000000000000000000000000000000000000815260040161139a90612869565b60405180910390fd5b60008590508073ffffffffffffffffffffffffffffffffffffffff1663f5537ede3330856040518463ffffffff1660e01b81526004016113e5939291906126cd565b600060405180830381600087803b1580156113ff57600080fd5b505af1158015611413573d6000803e3d6000fd5b5050505060006005600087815260200190815260200160002060050160006101000a81548173ffffffffffffffffffffffffffffffffffffffff021916908373ffffffffffffffffffffffffffffffffffffffff160217905550336005600087815260200190815260200160002060040160006101000a81548173ffffffffffffffffffffffffffffffffffffffff021916908373ffffffffffffffffffffffffffffffffffffffff16021790555083600560008781526020019081526020016000206006018190555060006005600087815260200190815260200160002060070160006101000a81548160ff02191690831515021790555060016005600087815260200190815260200160002060070160016101000a81548160ff0219169083151502179055506115456002611df0565b847f221866c21613d6f0d77d42f9309b122a25deed1bc186cff9c2f1ddafc52c34f660405160405180910390a250505061157d611de6565b505050565b61158a611d81565b6000600560008381526020019081526020016000206006015490506000600560008481526020019081526020016000206002015490506000831180156115d957506115d56001611d73565b8311155b611618576040517f08c379a000000000000000000000000000000000000000000000000000000000815260040161160f906128d5565b60405180910390fd5b81341461165a576040517f08c379a000000000000000000000000000000000000000000000000000000000815260040161165190612967565b60405180910390fd5b6005600084815260200190815260200160002060070160009054906101000a900460ff16156116be576040517f08c379a00000000000000000000000000000000000000000000000000000000081526004016116b5906129d3565b60405180910390fd5b6005600084815260200190815260200160002060040160009054906101000a900473ffffffffffffffffffffffffffffffffffffffff1673ffffffffffffffffffffffffffffffffffffffff166108fc349081150290604051600060405180830381858888f1935050505015801561173a573d6000803e3d6000fd5b508373ffffffffffffffffffffffffffffffffffffffff166323b872dd3033846040518463ffffffff1660e01b8152600401611778939291906126cd565b600060405180830381600087803b15801561179257600080fd5b505af11580156117a6573d6000803e3d6000fd5b50505050336005600085815260200190815260200160002060050160006101000a81548173ffffffffffffffffffffffffffffffffffffffff021916908373ffffffffffffffffffffffffffffffffffffffff16021790555060016005600085815260200190815260200160002060070160006101000a81548160ff0219169083151502179055506118386002611dd0565b600360009054906101000a900473ffffffffffffffffffffffffffffffffffffffff1673ffffffffffffffffffffffffffffffffffffffff166108fc6004549081150290604051600060405180830381858888f193505050501580156118a2573d6000803e3d6000fd5b5050506118ad611de6565b5050565b60045481565b60056020528060005260406000206000915090508060000154908060010160009054906101000a900473ffffffffffffffffffffffffffffffffffffffff16908060020154908060030160009054906101000a900473ffffffffffffffffffffffffffffffffffffffff16908060040160009054906101000a900473ffffffffffffffffffffffffffffffffffffffff16908060050160009054906101000a900473ffffffffffffffffffffffffffffffffffffffff16908060060154908060070160009054906101000a900460ff16908060070160019054906101000a900460ff16905089565b606060006119ad6001611d73565b905060008060005b83811015611a55573373ffffffffffffffffffffffffffffffffffffffff16600560006001846119e59190612513565b815260200190815260200160002060030160009054906101000a900473ffffffffffffffffffffffffffffffffffffffff1673ffffffffffffffffffffffffffffffffffffffff1603611a4257600183611a3f9190612513565b92505b8080611a4d90612576565b9150506119b5565b5060008267ffffffffffffffff811115611a7257611a716124e4565b5b604051908082528060200260200182016040528015611aab57816020015b611a98611e4c565b815260200190600190039081611a905790505b50905060005b84811015611d68573373ffffffffffffffffffffffffffffffffffffffff1660056000600184611ae19190612513565b815260200190815260200160002060030160009054906101000a900473ffffffffffffffffffffffffffffffffffffffff1673ffffffffffffffffffffffffffffffffffffffff1603611d5557600060056000600184611b419190612513565b815260200190815260200160002060000154905060006005600083815260200190815260200160002090508060405180610120016040529081600082015481526020016001820160009054906101000a900473ffffffffffffffffffffffffffffffffffffffff1673ffffffffffffffffffffffffffffffffffffffff1673ffffffffffffffffffffffffffffffffffffffff168152602001600282015481526020016003820160009054906101000a900473ffffffffffffffffffffffffffffffffffffffff1673ffffffffffffffffffffffffffffffffffffffff1673ffffffffffffffffffffffffffffffffffffffff1681526020016004820160009054906101000a900473ffffffffffffffffffffffffffffffffffffffff1673ffffffffffffffffffffffffffffffffffffffff1673ffffffffffffffffffffffffffffffffffffffff1681526020016005820160009054906101000a900473ffffffffffffffffffffffffffffffffffffffff1673ffffffffffffffffffffffffffffffffffffffff1673ffffffffffffffffffffffffffffffffffffffff168152602001600682015481526020016007820160009054906101000a900460ff161515151581526020016007820160019054906101000a900460ff161515151581525050848681518110611d3857611d37612547565b5b6020026020010181905250600185611d509190612513565b945050505b8080611d6090612576565b915050611ab1565b508094505050505090565b600081600001549050919050565b600260005403611dc6576040517f08c379a0000000000000000000000000000000000000000000000000000000008152600401611dbd90612a3f565b60405180910390fd5b6002600081905550565b6001816000016000828254019250508190555050565b6001600081905550565b60008160000154905060008111611e3c576040517f08c379a0000000000000000000000000000000000000000000000000000000008152600401611e3390612aab565b60405180910390fd5b6001810382600001819055505050565b60405180610120016040528060008152602001600073ffffffffffffffffffffffffffffffffffffffff16815260200160008152602001600073ffffffffffffffffffffffffffffffffffffffff168152602001600073ffffffffffffffffffffffffffffffffffffffff168152602001600073ffffffffffffffffffffffffffffffffffffffff168152602001600081526020016000151581526020016000151581525090565b600081519050919050565b600082825260208201905092915050565b6000819050602082019050919050565b6000819050919050565b611f3381611f20565b82525050565b600073ffffffffffffffffffffffffffffffffffffffff82169050919050565b6000611f6482611f39565b9050919050565b611f7481611f59565b82525050565b6000611f8582611f39565b9050919050565b611f9581611f7a565b82525050565b60008115159050919050565b611fb081611f9b565b82525050565b61012082016000820151611fcd6000850182611f2a565b506020820151611fe06020850182611f6b565b506040820151611ff36040850182611f2a565b5060608201516120066060850182611f8c565b5060808201516120196080850182611f8c565b5060a082015161202c60a0850182611f8c565b5060c082015161203f60c0850182611f2a565b5060e082015161205260e0850182611fa7565b50610100820151612067610100850182611fa7565b50505050565b60006120798383611fb6565b6101208301905092915050565b6000602082019050919050565b600061209e82611ef4565b6120a88185611eff565b93506120b383611f10565b8060005b838110156120e45781516120cb888261206d565b97506120d683612086565b9250506001810190506120b7565b5085935050505092915050565b6000602082019050818103600083015261210b8184612093565b905092915050565b61211c81611f20565b82525050565b60006020820190506121376000830184612113565b92915050565b600080fd5b61214b81611f59565b811461215657600080fd5b50565b60008135905061216881612142565b92915050565b61217781611f20565b811461218257600080fd5b50565b6000813590506121948161216e565b92915050565b6000806000606084860312156121b3576121b261213d565b5b60006121c186828701612159565b93505060206121d286828701612185565b92505060406121e386828701612185565b9150509250925092565b6000602082840312156122035761220261213d565b5b600061221184828501612185565b91505092915050565b610120820160008201516122316000850182611f2a565b5060208201516122446020850182611f6b565b5060408201516122576040850182611f2a565b50606082015161226a6060850182611f8c565b50608082015161227d6080850182611f8c565b5060a082015161229060a0850182611f8c565b5060c08201516122a360c0850182611f2a565b5060e08201516122b660e0850182611fa7565b506101008201516122cb610100850182611fa7565b50505050565b6000610120820190506122e7600083018461221a565b92915050565b6122f681611f7a565b82525050565b600060208201905061231160008301846122ed565b92915050565b61232081611f7a565b811461232b57600080fd5b50565b60008135905061233d81612317565b92915050565b60008060006060848603121561235c5761235b61213d565b5b600061236a8682870161232e565b935050602061237b86828701612185565b925050604061238c86828701612185565b9150509250925092565b600080604083850312156123ad576123ac61213d565b5b60006123bb85828601612159565b92505060206123cc85828601612185565b9150509250929050565b6123df81611f59565b82525050565b6123ee81611f9b565b82525050565b60006101208201905061240a600083018c612113565b612417602083018b6123d6565b612424604083018a612113565b61243160608301896122ed565b61243e60808301886122ed565b61244b60a08301876122ed565b61245860c0830186612113565b61246560e08301856123e5565b6124736101008301846123e5565b9a9950505050505050505050565b7f4e487b7100000000000000000000000000000000000000000000000000000000600052601160045260246000fd5b60006124bb82611f20565b91506124c683611f20565b92508282039050818111156124de576124dd612481565b5b92915050565b7f4e487b7100000000000000000000000000000000000000000000000000000000600052604160045260246000fd5b600061251e82611f20565b915061252983611f20565b925082820190508082111561254157612540612481565b5b92915050565b7f4e487b7100000000000000000000000000000000000000000000000000000000600052603260045260246000fd5b600061258182611f20565b91507fffffffffffffffffffffffffffffffffffffffffffffffffffffffffffffffff82036125b3576125b2612481565b5b600182019050919050565b600082825260208201905092915050565b7f5072696365206d757374206265206174206c6561737420312077656900000000600082015250565b6000612605601c836125be565b9150612610826125cf565b602082019050919050565b60006020820190508181036000830152612634816125f8565b9050919050565b7f56616c75652070616964206d75737420626520657175616c20746f206c69737460008201527f696e672070726963650000000000000000000000000000000000000000000000602082015250565b60006126976029836125be565b91506126a28261263b565b604082019050919050565b600060208201905081810360008301526126c68161268a565b9050919050565b60006060820190506126e260008301866123d6565b6126ef60208301856123d6565b6126fc6040830184612113565b949350505050565b600060c08201905061271960008301896123d6565b61272660208301886123d6565b61273360408301876123d6565b6127406060830186612113565b61274d60808301856123e5565b61275a60a08301846123e5565b979650505050505050565b7f4f6e6c792070726f64756374206f776e65722063616e20646f2074686973206f60008201527f7065726174696f6e000000000000000000000000000000000000000000000000602082015250565b60006127c16028836125be565b91506127cc82612765565b604082019050919050565b600060208201905081810360008301526127f0816127b4565b9050919050565b7f5072696365206d75737420626520657175616c20746f206c697374696e67207060008201527f7269636500000000000000000000000000000000000000000000000000000000602082015250565b60006128536024836125be565b915061285e826127f7565b604082019050919050565b6000602082019050818103600083015261288281612846565b9050919050565b7f4974656d20646f65736e27742065786973740000000000000000000000000000600082015250565b60006128bf6012836125be565b91506128ca82612889565b602082019050919050565b600060208201905081810360008301526128ee816128b2565b9050919050565b7f506c65617365207375626d6974207468652061736b696e67207072696365206960008201527f6e206f7264657220746f20636f6d706c65746520746865207075726368617365602082015250565b60006129516040836125be565b915061295c826128f5565b604082019050919050565b6000602082019050818103600083015261298081612944565b9050919050565b7f4974656d20616c726561647920736f6c64000000000000000000000000000000600082015250565b60006129bd6011836125be565b91506129c882612987565b602082019050919050565b600060208201905081810360008301526129ec816129b0565b9050919050565b7f5265656e7472616e637947756172643a207265656e7472616e742063616c6c00600082015250565b6000612a29601f836125be565b9150612a34826129f3565b602082019050919050565b60006020820190508181036000830152612a5881612a1c565b9050919050565b7f436f756e7465723a2064656372656d656e74206f766572666c6f770000000000600082015250565b6000612a95601b836125be565b9150612aa082612a5f565b602082019050919050565b60006020820190508181036000830152612ac481612a88565b905091905056fea26469706673582212209a848c520a3247e397ea2c4e32bf851716065fca8e4dedf0f4641500cbc0659f64736f6c63430008120033",
  "linkReferences": {},
  "deployedLinkReferences": {}
}