{
  "_format": "hh-sol-artifact-1",
  "contractName": "NFTmarket",
  "sourceName": "contracts/NFTmarket.sol",
  "abi": [
    {
      "inputs": [],
      "stateMutability": "nonpayable",
      "type": "constructor"
    },
    {
      "anonymous": false,
      "inputs": [
        {
          "indexed": true,
          "internalType": "uint256",
          "name": "itemId",
          "type": "uint256"
        },
        {
          "indexed": true,
          "internalType": "address",
          "name": "nftContract",
          "type": "address"
        },
        {
          "indexed": true,
          "internalType": "uint256",
          "name": "tokenId",
          "type": "uint256"
        },
        {
          "indexed": false,
          "internalType": "address",
          "name": "seller",
          "type": "address"
        },
        {
          "indexed": false,
          "internalType": "address",
          "name": "owner",
          "type": "address"
        },
        {
          "indexed": false,
          "internalType": "uint256",
          "name": "price",
          "type": "uint256"
        },
        {
          "indexed": false,
          "internalType": "bool",
          "name": "sold",
          "type": "bool"
        }
      ],
      "name": "MarketItemCreated",
      "type": "event"
    },
    {
      "anonymous": false,
      "inputs": [
        {
          "indexed": true,
          "internalType": "uint256",
          "name": "itemId",
          "type": "uint256"
        }
      ],
      "name": "ProductListed",
      "type": "event"
    },
    {
      "stateMutability": "payable",
      "type": "fallback"
    },
    {
      "inputs": [],
      "name": "_itemIds",
      "outputs": [
        {
          "internalType": "uint256",
          "name": "_value",
          "type": "uint256"
        }
      ],
      "stateMutability": "view",
      "type": "function"
    },
    {
      "inputs": [],
      "name": "_itemsSold",
      "outputs": [
        {
          "internalType": "uint256",
          "name": "_value",
          "type": "uint256"
        }
      ],
      "stateMutability": "view",
      "type": "function"
    },
    {
      "inputs": [
        {
          "internalType": "address",
          "name": "nftContract",
          "type": "address"
        },
        {
          "internalType": "uint256",
          "name": "tokenId",
          "type": "uint256"
        },
        {
          "internalType": "uint256",
          "name": "price",
          "type": "uint256"
        }
      ],
      "name": "createMarketItem",
      "outputs": [],
      "stateMutability": "payable",
      "type": "function"
    },
    {
      "inputs": [
        {
          "internalType": "address",
          "name": "nftContract",
          "type": "address"
        },
        {
          "internalType": "uint256",
          "name": "itemId",
          "type": "uint256"
        }
      ],
      "name": "createMarketSale",
      "outputs": [],
      "stateMutability": "payable",
      "type": "function"
    },
    {
      "inputs": [],
      "name": "fetchItemsCreated",
      "outputs": [
        {
          "components": [
            {
              "internalType": "uint256",
              "name": "itemId",
              "type": "uint256"
            },
            {
              "internalType": "address",
              "name": "nftContract",
              "type": "address"
            },
            {
              "internalType": "uint256",
              "name": "tokenId",
              "type": "uint256"
            },
            {
              "internalType": "address payable",
              "name": "seller",
              "type": "address"
            },
            {
              "internalType": "address payable",
              "name": "owner",
              "type": "address"
            },
            {
              "internalType": "uint256",
              "name": "price",
              "type": "uint256"
            },
            {
              "internalType": "bool",
              "name": "sold",
              "type": "bool"
            }
          ],
          "internalType": "struct NFTmarket.MarketItem[]",
          "name": "",
          "type": "tuple[]"
        }
      ],
      "stateMutability": "view",
      "type": "function"
    },
    {
      "inputs": [],
      "name": "fetchMarketItems",
      "outputs": [
        {
          "components": [
            {
              "internalType": "uint256",
              "name": "itemId",
              "type": "uint256"
            },
            {
              "internalType": "address",
              "name": "nftContract",
              "type": "address"
            },
            {
              "internalType": "uint256",
              "name": "tokenId",
              "type": "uint256"
            },
            {
              "internalType": "address payable",
              "name": "seller",
              "type": "address"
            },
            {
              "internalType": "address payable",
              "name": "owner",
              "type": "address"
            },
            {
              "internalType": "uint256",
              "name": "price",
              "type": "uint256"
            },
            {
              "internalType": "bool",
              "name": "sold",
              "type": "bool"
            }
          ],
          "internalType": "struct NFTmarket.MarketItem[]",
          "name": "",
          "type": "tuple[]"
        }
      ],
      "stateMutability": "view",
      "type": "function"
    },
    {
      "inputs": [],
      "name": "fetchMyNFTs",
      "outputs": [
        {
          "components": [
            {
              "internalType": "uint256",
              "name": "itemId",
              "type": "uint256"
            },
            {
              "internalType": "address",
              "name": "nftContract",
              "type": "address"
            },
            {
              "internalType": "uint256",
              "name": "tokenId",
              "type": "uint256"
            },
            {
              "internalType": "address payable",
              "name": "seller",
              "type": "address"
            },
            {
              "internalType": "address payable",
              "name": "owner",
              "type": "address"
            },
            {
              "internalType": "uint256",
              "name": "price",
              "type": "uint256"
            },
            {
              "internalType": "bool",
              "name": "sold",
              "type": "bool"
            }
          ],
          "internalType": "struct NFTmarket.MarketItem[]",
          "name": "",
          "type": "tuple[]"
        }
      ],
      "stateMutability": "view",
      "type": "function"
    },
    {
      "inputs": [],
      "name": "getListingPrice",
      "outputs": [
        {
          "internalType": "uint256",
          "name": "",
          "type": "uint256"
        }
      ],
      "stateMutability": "view",
      "type": "function"
    },
    {
      "inputs": [
        {
          "internalType": "uint256",
          "name": "",
          "type": "uint256"
        }
      ],
      "name": "idToMarketItem",
      "outputs": [
        {
          "internalType": "uint256",
          "name": "itemId",
          "type": "uint256"
        },
        {
          "internalType": "address",
          "name": "nftContract",
          "type": "address"
        },
        {
          "internalType": "uint256",
          "name": "tokenId",
          "type": "uint256"
        },
        {
          "internalType": "address payable",
          "name": "seller",
          "type": "address"
        },
        {
          "internalType": "address payable",
          "name": "owner",
          "type": "address"
        },
        {
          "internalType": "uint256",
          "name": "price",
          "type": "uint256"
        },
        {
          "internalType": "bool",
          "name": "sold",
          "type": "bool"
        }
      ],
      "stateMutability": "view",
      "type": "function"
    },
    {
      "inputs": [],
      "name": "listingPrice",
      "outputs": [
        {
          "internalType": "uint256",
          "name": "",
          "type": "uint256"
        }
      ],
      "stateMutability": "view",
      "type": "function"
    },
    {
      "inputs": [],
      "name": "owner",
      "outputs": [
        {
          "internalType": "address payable",
          "name": "",
          "type": "address"
        }
      ],
      "stateMutability": "view",
      "type": "function"
    },
    {
      "inputs": [
        {
          "internalType": "address payable",
          "name": "nftContract",
          "type": "address"
        },
        {
          "internalType": "uint256",
          "name": "itemId",
          "type": "uint256"
        },
        {
          "internalType": "uint256",
          "name": "newPrice",
          "type": "uint256"
        }
      ],
      "name": "relistToken",
      "outputs": [],
      "stateMutability": "payable",
      "type": "function"
    },
    {
      "stateMutability": "payable",
      "type": "receive"
    }
  ],
  "bytecode": "0x60806040526658d15e1762800060045534801561001b57600080fd5b50600160008190555033600360006101000a81548173ffffffffffffffffffffffffffffffffffffffff021916908373ffffffffffffffffffffffffffffffffffffffff1602179055506122a9806100746000396000f3fe6080604052600436106100ab5760003560e01c80638da5cb5b116100645780638da5cb5b146101a75780639300f097146101d2578063c23b139e146101ee578063c78f19f91461020a578063e61a70c014610235578063f064c32e14610278576100b2565b80630f08efe0146100b457806312e85585146100df578063202e37401461010a57806334a7f1931461013557806358eb2df51461016057806387506a0d1461017c576100b2565b366100b257005b005b3480156100c057600080fd5b506100c96102a3565b6040516100d691906119a6565b60405180910390f35b3480156100eb57600080fd5b506100f461056c565b60405161010191906119d7565b60405180910390f35b34801561011657600080fd5b5061011f610576565b60405161012c91906119a6565b60405180910390f35b34801561014157600080fd5b5061014a6108d8565b60405161015791906119d7565b60405180910390f35b61017a60048036038101906101759190611a4f565b6108e4565b005b34801561018857600080fd5b50610191610c02565b60405161019e91906119d7565b60405180910390f35b3480156101b357600080fd5b506101bc610c0e565b6040516101c99190611ab1565b60405180910390f35b6101ec60048036038101906101e79190611af8565b610c34565b005b61020860048036038101906102039190611b4b565b610f33565b005b34801561021657600080fd5b5061021f611262565b60405161022c91906119d7565b60405180910390f35b34801561024157600080fd5b5061025c60048036038101906102579190611b8b565b611268565b60405161026f9796959493929190611bd6565b60405180910390f35b34801561028457600080fd5b5061028d611317565b60405161029a91906119a6565b60405180910390f35b606060006102b16001611679565b905060006102bf6002611679565b6102c96001611679565b6102d39190611c74565b90506000808267ffffffffffffffff8111156102f2576102f1611ca8565b5b60405190808252806020026020018201604052801561032b57816020015b610318611752565b8152602001906001900390816103105790505b50905060005b8481101561056157600073ffffffffffffffffffffffffffffffffffffffff16600560006001846103629190611cd7565b815260200190815260200160002060040160009054906101000a900473ffffffffffffffffffffffffffffffffffffffff1673ffffffffffffffffffffffffffffffffffffffff160361054e5760006001826103be9190611cd7565b90506000600560008381526020019081526020016000209050806040518060e0016040529081600082015481526020016001820160009054906101000a900473ffffffffffffffffffffffffffffffffffffffff1673ffffffffffffffffffffffffffffffffffffffff1673ffffffffffffffffffffffffffffffffffffffff168152602001600282015481526020016003820160009054906101000a900473ffffffffffffffffffffffffffffffffffffffff1673ffffffffffffffffffffffffffffffffffffffff1673ffffffffffffffffffffffffffffffffffffffff1681526020016004820160009054906101000a900473ffffffffffffffffffffffffffffffffffffffff1673ffffffffffffffffffffffffffffffffffffffff1673ffffffffffffffffffffffffffffffffffffffff168152602001600582015481526020016006820160009054906101000a900460ff16151515158152505084868151811061053157610530611d0b565b5b60200260200101819052506001856105499190611cd7565b945050505b808061055990611d3a565b915050610331565b508094505050505090565b6000600454905090565b606060006105846001611679565b905060008060005b8381101561062c573373ffffffffffffffffffffffffffffffffffffffff16600560006001846105bc9190611cd7565b815260200190815260200160002060040160009054906101000a900473ffffffffffffffffffffffffffffffffffffffff1673ffffffffffffffffffffffffffffffffffffffff1603610619576001836106169190611cd7565b92505b808061062490611d3a565b91505061058c565b5060008267ffffffffffffffff81111561064957610648611ca8565b5b60405190808252806020026020018201604052801561068257816020015b61066f611752565b8152602001906001900390816106675790505b50905060005b848110156108cd573373ffffffffffffffffffffffffffffffffffffffff16600560006001846106b89190611cd7565b815260200190815260200160002060040160009054906101000a900473ffffffffffffffffffffffffffffffffffffffff1673ffffffffffffffffffffffffffffffffffffffff16036108ba576000600560006001846107189190611cd7565b81526020019081526020016000206000015490506000600560008381526020019081526020016000209050806040518060e0016040529081600082015481526020016001820160009054906101000a900473ffffffffffffffffffffffffffffffffffffffff1673ffffffffffffffffffffffffffffffffffffffff1673ffffffffffffffffffffffffffffffffffffffff168152602001600282015481526020016003820160009054906101000a900473ffffffffffffffffffffffffffffffffffffffff1673ffffffffffffffffffffffffffffffffffffffff1673ffffffffffffffffffffffffffffffffffffffff1681526020016004820160009054906101000a900473ffffffffffffffffffffffffffffffffffffffff1673ffffffffffffffffffffffffffffffffffffffff1673ffffffffffffffffffffffffffffffffffffffff168152602001600582015481526020016006820160009054906101000a900460ff16151515158152505084868151811061089d5761089c611d0b565b5b60200260200101819052506001856108b59190611cd7565b945050505b80806108c590611d3a565b915050610688565b508094505050505090565b60018060000154905081565b6108ec611687565b6000811161092f576040517f08c379a000000000000000000000000000000000000000000000000000000000815260040161092690611ddf565b60405180910390fd5b6004543414610973576040517f08c379a000000000000000000000000000000000000000000000000000000000815260040161096a90611e71565b60405180910390fd5b61097d60016116d6565b60006109896001611679565b90506040518060e001604052808281526020018573ffffffffffffffffffffffffffffffffffffffff1681526020018481526020013373ffffffffffffffffffffffffffffffffffffffff168152602001600073ffffffffffffffffffffffffffffffffffffffff16815260200183815260200160001515815250600560008381526020019081526020016000206000820151816000015560208201518160010160006101000a81548173ffffffffffffffffffffffffffffffffffffffff021916908373ffffffffffffffffffffffffffffffffffffffff1602179055506040820151816002015560608201518160030160006101000a81548173ffffffffffffffffffffffffffffffffffffffff021916908373ffffffffffffffffffffffffffffffffffffffff16021790555060808201518160040160006101000a81548173ffffffffffffffffffffffffffffffffffffffff021916908373ffffffffffffffffffffffffffffffffffffffff16021790555060a0820151816005015560c08201518160060160006101000a81548160ff0219169083151502179055509050508373ffffffffffffffffffffffffffffffffffffffff166323b872dd3330866040518463ffffffff1660e01b8152600401610b6a93929190611e91565b600060405180830381600087803b158015610b8457600080fd5b505af1158015610b98573d6000803e3d6000fd5b50505050828473ffffffffffffffffffffffffffffffffffffffff16827f045dfa01dcba2b36aba1d3dc4a874f4b0c5d2fbeb8d2c4b34a7d88c8d8f929d1336000876000604051610bec9493929190611ec8565b60405180910390a450610bfd6116ec565b505050565b60028060000154905081565b600360009054906101000a900473ffffffffffffffffffffffffffffffffffffffff1681565b610c3c611687565b813373ffffffffffffffffffffffffffffffffffffffff166005600083815260200190815260200160002060040160009054906101000a900473ffffffffffffffffffffffffffffffffffffffff1673ffffffffffffffffffffffffffffffffffffffff1614610ce1576040517f08c379a0000000000000000000000000000000000000000000000000000000008152600401610cd890611f7f565b60405180910390fd5b60006005600085815260200190815260200160002060020154905060008311610d3f576040517f08c379a0000000000000000000000000000000000000000000000000000000008152600401610d3690611ddf565b60405180910390fd5b6004543414610d83576040517f08c379a0000000000000000000000000000000000000000000000000000000008152600401610d7a90612011565b60405180910390fd5b60008590508073ffffffffffffffffffffffffffffffffffffffff1663f5537ede3330856040518463ffffffff1660e01b8152600401610dc593929190611e91565b600060405180830381600087803b158015610ddf57600080fd5b505af1158015610df3573d6000803e3d6000fd5b5050505060006005600087815260200190815260200160002060040160006101000a81548173ffffffffffffffffffffffffffffffffffffffff021916908373ffffffffffffffffffffffffffffffffffffffff160217905550336005600087815260200190815260200160002060030160006101000a81548173ffffffffffffffffffffffffffffffffffffffff021916908373ffffffffffffffffffffffffffffffffffffffff16021790555083600560008781526020019081526020016000206005018190555060006005600087815260200190815260200160002060060160006101000a81548160ff021916908315150217905550610ef660026116f6565b847f221866c21613d6f0d77d42f9309b122a25deed1bc186cff9c2f1ddafc52c34f660405160405180910390a2505050610f2e6116ec565b505050565b610f3b611687565b600060056000838152602001908152602001600020600501549050600060056000848152602001908152602001600020600201549050600083118015610f8a5750610f866001611679565b8311155b610fc9576040517f08c379a0000000000000000000000000000000000000000000000000000000008152600401610fc09061207d565b60405180910390fd5b81341461100b576040517f08c379a00000000000000000000000000000000000000000000000000000000081526004016110029061210f565b60405180910390fd5b6005600084815260200190815260200160002060060160009054906101000a900460ff161561106f576040517f08c379a00000000000000000000000000000000000000000000000000000000081526004016110669061217b565b60405180910390fd5b6005600084815260200190815260200160002060030160009054906101000a900473ffffffffffffffffffffffffffffffffffffffff1673ffffffffffffffffffffffffffffffffffffffff166108fc349081150290604051600060405180830381858888f193505050501580156110eb573d6000803e3d6000fd5b508373ffffffffffffffffffffffffffffffffffffffff166323b872dd3033846040518463ffffffff1660e01b815260040161112993929190611e91565b600060405180830381600087803b15801561114357600080fd5b505af1158015611157573d6000803e3d6000fd5b50505050336005600085815260200190815260200160002060040160006101000a81548173ffffffffffffffffffffffffffffffffffffffff021916908373ffffffffffffffffffffffffffffffffffffffff16021790555060016005600085815260200190815260200160002060060160006101000a81548160ff0219169083151502179055506111e960026116d6565b600360009054906101000a900473ffffffffffffffffffffffffffffffffffffffff1673ffffffffffffffffffffffffffffffffffffffff166108fc6004549081150290604051600060405180830381858888f19350505050158015611253573d6000803e3d6000fd5b50505061125e6116ec565b5050565b60045481565b60056020528060005260406000206000915090508060000154908060010160009054906101000a900473ffffffffffffffffffffffffffffffffffffffff16908060020154908060030160009054906101000a900473ffffffffffffffffffffffffffffffffffffffff16908060040160009054906101000a900473ffffffffffffffffffffffffffffffffffffffff16908060050154908060060160009054906101000a900460ff16905087565b606060006113256001611679565b905060008060005b838110156113cd573373ffffffffffffffffffffffffffffffffffffffff166005600060018461135d9190611cd7565b815260200190815260200160002060030160009054906101000a900473ffffffffffffffffffffffffffffffffffffffff1673ffffffffffffffffffffffffffffffffffffffff16036113ba576001836113b79190611cd7565b92505b80806113c590611d3a565b91505061132d565b5060008267ffffffffffffffff8111156113ea576113e9611ca8565b5b60405190808252806020026020018201604052801561142357816020015b611410611752565b8152602001906001900390816114085790505b50905060005b8481101561166e573373ffffffffffffffffffffffffffffffffffffffff16600560006001846114599190611cd7565b815260200190815260200160002060030160009054906101000a900473ffffffffffffffffffffffffffffffffffffffff1673ffffffffffffffffffffffffffffffffffffffff160361165b576000600560006001846114b99190611cd7565b81526020019081526020016000206000015490506000600560008381526020019081526020016000209050806040518060e0016040529081600082015481526020016001820160009054906101000a900473ffffffffffffffffffffffffffffffffffffffff1673ffffffffffffffffffffffffffffffffffffffff1673ffffffffffffffffffffffffffffffffffffffff168152602001600282015481526020016003820160009054906101000a900473ffffffffffffffffffffffffffffffffffffffff1673ffffffffffffffffffffffffffffffffffffffff1673ffffffffffffffffffffffffffffffffffffffff1681526020016004820160009054906101000a900473ffffffffffffffffffffffffffffffffffffffff1673ffffffffffffffffffffffffffffffffffffffff1673ffffffffffffffffffffffffffffffffffffffff168152602001600582015481526020016006820160009054906101000a900460ff16151515158152505084868151811061163e5761163d611d0b565b5b60200260200101819052506001856116569190611cd7565b945050505b808061166690611d3a565b915050611429565b508094505050505090565b600081600001549050919050565b6002600054036116cc576040517f08c379a00000000000000000000000000000000000000000000000000000000081526004016116c3906121e7565b60405180910390fd5b6002600081905550565b6001816000016000828254019250508190555050565b6001600081905550565b60008160000154905060008111611742576040517f08c379a000000000000000000000000000000000000000000000000000000000815260040161173990612253565b60405180910390fd5b6001810382600001819055505050565b6040518060e0016040528060008152602001600073ffffffffffffffffffffffffffffffffffffffff16815260200160008152602001600073ffffffffffffffffffffffffffffffffffffffff168152602001600073ffffffffffffffffffffffffffffffffffffffff168152602001600081526020016000151581525090565b600081519050919050565b600082825260208201905092915050565b6000819050602082019050919050565b6000819050919050565b611812816117ff565b82525050565b600073ffffffffffffffffffffffffffffffffffffffff82169050919050565b600061184382611818565b9050919050565b61185381611838565b82525050565b600061186482611818565b9050919050565b61187481611859565b82525050565b60008115159050919050565b61188f8161187a565b82525050565b60e0820160008201516118ab6000850182611809565b5060208201516118be602085018261184a565b5060408201516118d16040850182611809565b5060608201516118e4606085018261186b565b5060808201516118f7608085018261186b565b5060a082015161190a60a0850182611809565b5060c082015161191d60c0850182611886565b50505050565b600061192f8383611895565b60e08301905092915050565b6000602082019050919050565b6000611953826117d3565b61195d81856117de565b9350611968836117ef565b8060005b838110156119995781516119808882611923565b975061198b8361193b565b92505060018101905061196c565b5085935050505092915050565b600060208201905081810360008301526119c08184611948565b905092915050565b6119d1816117ff565b82525050565b60006020820190506119ec60008301846119c8565b92915050565b600080fd5b611a0081611838565b8114611a0b57600080fd5b50565b600081359050611a1d816119f7565b92915050565b611a2c816117ff565b8114611a3757600080fd5b50565b600081359050611a4981611a23565b92915050565b600080600060608486031215611a6857611a676119f2565b5b6000611a7686828701611a0e565b9350506020611a8786828701611a3a565b9250506040611a9886828701611a3a565b9150509250925092565b611aab81611859565b82525050565b6000602082019050611ac66000830184611aa2565b92915050565b611ad581611859565b8114611ae057600080fd5b50565b600081359050611af281611acc565b92915050565b600080600060608486031215611b1157611b106119f2565b5b6000611b1f86828701611ae3565b9350506020611b3086828701611a3a565b9250506040611b4186828701611a3a565b9150509250925092565b60008060408385031215611b6257611b616119f2565b5b6000611b7085828601611a0e565b9250506020611b8185828601611a3a565b9150509250929050565b600060208284031215611ba157611ba06119f2565b5b6000611baf84828501611a3a565b91505092915050565b611bc181611838565b82525050565b611bd08161187a565b82525050565b600060e082019050611beb600083018a6119c8565b611bf86020830189611bb8565b611c0560408301886119c8565b611c126060830187611aa2565b611c1f6080830186611aa2565b611c2c60a08301856119c8565b611c3960c0830184611bc7565b98975050505050505050565b7f4e487b7100000000000000000000000000000000000000000000000000000000600052601160045260246000fd5b6000611c7f826117ff565b9150611c8a836117ff565b9250828203905081811115611ca257611ca1611c45565b5b92915050565b7f4e487b7100000000000000000000000000000000000000000000000000000000600052604160045260246000fd5b6000611ce2826117ff565b9150611ced836117ff565b9250828201905080821115611d0557611d04611c45565b5b92915050565b7f4e487b7100000000000000000000000000000000000000000000000000000000600052603260045260246000fd5b6000611d45826117ff565b91507fffffffffffffffffffffffffffffffffffffffffffffffffffffffffffffffff8203611d7757611d76611c45565b5b600182019050919050565b600082825260208201905092915050565b7f5072696365206d757374206265206174206c6561737420312077656900000000600082015250565b6000611dc9601c83611d82565b9150611dd482611d93565b602082019050919050565b60006020820190508181036000830152611df881611dbc565b9050919050565b7f56616c75652070616964206d75737420626520657175616c20746f206c69737460008201527f696e672070726963650000000000000000000000000000000000000000000000602082015250565b6000611e5b602983611d82565b9150611e6682611dff565b604082019050919050565b60006020820190508181036000830152611e8a81611e4e565b9050919050565b6000606082019050611ea66000830186611bb8565b611eb36020830185611bb8565b611ec060408301846119c8565b949350505050565b6000608082019050611edd6000830187611bb8565b611eea6020830186611bb8565b611ef760408301856119c8565b611f046060830184611bc7565b95945050505050565b7f4f6e6c792070726f64756374206f776e65722063616e20646f2074686973206f60008201527f7065726174696f6e000000000000000000000000000000000000000000000000602082015250565b6000611f69602883611d82565b9150611f7482611f0d565b604082019050919050565b60006020820190508181036000830152611f9881611f5c565b9050919050565b7f5072696365206d75737420626520657175616c20746f206c697374696e67207060008201527f7269636500000000000000000000000000000000000000000000000000000000602082015250565b6000611ffb602483611d82565b915061200682611f9f565b604082019050919050565b6000602082019050818103600083015261202a81611fee565b9050919050565b7f4974656d20646f65736e27742065786973740000000000000000000000000000600082015250565b6000612067601283611d82565b915061207282612031565b602082019050919050565b600060208201905081810360008301526120968161205a565b9050919050565b7f506c65617365207375626d6974207468652061736b696e67207072696365206960008201527f6e206f7264657220746f20636f6d706c65746520746865207075726368617365602082015250565b60006120f9604083611d82565b91506121048261209d565b604082019050919050565b60006020820190508181036000830152612128816120ec565b9050919050565b7f4974656d20616c726561647920736f6c64000000000000000000000000000000600082015250565b6000612165601183611d82565b91506121708261212f565b602082019050919050565b6000602082019050818103600083015261219481612158565b9050919050565b7f5265656e7472616e637947756172643a207265656e7472616e742063616c6c00600082015250565b60006121d1601f83611d82565b91506121dc8261219b565b602082019050919050565b60006020820190508181036000830152612200816121c4565b9050919050565b7f436f756e7465723a2064656372656d656e74206f766572666c6f770000000000600082015250565b600061223d601b83611d82565b915061224882612207565b602082019050919050565b6000602082019050818103600083015261226c81612230565b905091905056fea264697066735822122014d318607593f1327f0bd05ad7e80c0f67dc6c4340edc6f4cc922154f3cfac8b64736f6c63430008120033",
  "linkReferences": {},
  "deployedLinkReferences": {}
}