{
  "_format": "hh-sol-artifact-1",
  "contractName": "NFTmarket",
  "sourceName": "contracts/NFTmarket.sol",
  "abi": [
    {
      "inputs": [],
      "stateMutability": "nonpayable",
      "type": "constructor"
    },
    {
      "anonymous": false,
      "inputs": [
        {
          "indexed": true,
          "internalType": "uint256",
          "name": "itemId",
          "type": "uint256"
        },
        {
          "indexed": true,
          "internalType": "address",
          "name": "nftContract",
          "type": "address"
        },
        {
          "indexed": true,
          "internalType": "uint256",
          "name": "tokenId",
          "type": "uint256"
        },
        {
          "indexed": false,
          "internalType": "address",
          "name": "creator",
          "type": "address"
        },
        {
          "indexed": false,
          "internalType": "address",
          "name": "seller",
          "type": "address"
        },
        {
          "indexed": false,
          "internalType": "address",
          "name": "owner",
          "type": "address"
        },
        {
          "indexed": false,
          "internalType": "uint256",
          "name": "price",
          "type": "uint256"
        },
        {
          "indexed": false,
          "internalType": "bool",
          "name": "sold",
          "type": "bool"
        },
        {
          "indexed": false,
          "internalType": "bool",
          "name": "relisted",
          "type": "bool"
        }
      ],
      "name": "MarketItemCreated",
      "type": "event"
    },
    {
      "anonymous": false,
      "inputs": [
        {
          "indexed": true,
          "internalType": "uint256",
          "name": "itemId",
          "type": "uint256"
        }
      ],
      "name": "ProductListed",
      "type": "event"
    },
    {
      "stateMutability": "payable",
      "type": "fallback"
    },
    {
      "inputs": [],
      "name": "_itemIds",
      "outputs": [
        {
          "internalType": "uint256",
          "name": "_value",
          "type": "uint256"
        }
      ],
      "stateMutability": "view",
      "type": "function"
    },
    {
      "inputs": [],
      "name": "_itemsSold",
      "outputs": [
        {
          "internalType": "uint256",
          "name": "_value",
          "type": "uint256"
        }
      ],
      "stateMutability": "view",
      "type": "function"
    },
    {
      "inputs": [
        {
          "internalType": "address",
          "name": "nftContract",
          "type": "address"
        },
        {
          "internalType": "uint256",
          "name": "tokenId",
          "type": "uint256"
        },
        {
          "internalType": "uint256",
          "name": "price",
          "type": "uint256"
        }
      ],
      "name": "createMarketItem",
      "outputs": [],
      "stateMutability": "payable",
      "type": "function"
    },
    {
      "inputs": [
        {
          "internalType": "address",
          "name": "nftContract",
          "type": "address"
        },
        {
          "internalType": "uint256",
          "name": "itemId",
          "type": "uint256"
        }
      ],
      "name": "createMarketSale",
      "outputs": [],
      "stateMutability": "payable",
      "type": "function"
    },
    {
      "inputs": [],
      "name": "fetchItemsCreated",
      "outputs": [
        {
          "components": [
            {
              "internalType": "uint256",
              "name": "itemId",
              "type": "uint256"
            },
            {
              "internalType": "address",
              "name": "nftContract",
              "type": "address"
            },
            {
              "internalType": "uint256",
              "name": "tokenId",
              "type": "uint256"
            },
            {
              "internalType": "address payable",
              "name": "creator",
              "type": "address"
            },
            {
              "internalType": "address payable",
              "name": "seller",
              "type": "address"
            },
            {
              "internalType": "address payable",
              "name": "owner",
              "type": "address"
            },
            {
              "internalType": "uint256",
              "name": "price",
              "type": "uint256"
            },
            {
              "internalType": "bool",
              "name": "sold",
              "type": "bool"
            },
            {
              "internalType": "bool",
              "name": "relisted",
              "type": "bool"
            }
          ],
          "internalType": "struct NFTmarket.MarketItem[]",
          "name": "",
          "type": "tuple[]"
        }
      ],
      "stateMutability": "view",
      "type": "function"
    },
    {
      "inputs": [],
      "name": "fetchMarketItems",
      "outputs": [
        {
          "components": [
            {
              "internalType": "uint256",
              "name": "itemId",
              "type": "uint256"
            },
            {
              "internalType": "address",
              "name": "nftContract",
              "type": "address"
            },
            {
              "internalType": "uint256",
              "name": "tokenId",
              "type": "uint256"
            },
            {
              "internalType": "address payable",
              "name": "creator",
              "type": "address"
            },
            {
              "internalType": "address payable",
              "name": "seller",
              "type": "address"
            },
            {
              "internalType": "address payable",
              "name": "owner",
              "type": "address"
            },
            {
              "internalType": "uint256",
              "name": "price",
              "type": "uint256"
            },
            {
              "internalType": "bool",
              "name": "sold",
              "type": "bool"
            },
            {
              "internalType": "bool",
              "name": "relisted",
              "type": "bool"
            }
          ],
          "internalType": "struct NFTmarket.MarketItem[]",
          "name": "",
          "type": "tuple[]"
        }
      ],
      "stateMutability": "view",
      "type": "function"
    },
    {
      "inputs": [],
      "name": "fetchMyNFTs",
      "outputs": [
        {
          "components": [
            {
              "internalType": "uint256",
              "name": "itemId",
              "type": "uint256"
            },
            {
              "internalType": "address",
              "name": "nftContract",
              "type": "address"
            },
            {
              "internalType": "uint256",
              "name": "tokenId",
              "type": "uint256"
            },
            {
              "internalType": "address payable",
              "name": "creator",
              "type": "address"
            },
            {
              "internalType": "address payable",
              "name": "seller",
              "type": "address"
            },
            {
              "internalType": "address payable",
              "name": "owner",
              "type": "address"
            },
            {
              "internalType": "uint256",
              "name": "price",
              "type": "uint256"
            },
            {
              "internalType": "bool",
              "name": "sold",
              "type": "bool"
            },
            {
              "internalType": "bool",
              "name": "relisted",
              "type": "bool"
            }
          ],
          "internalType": "struct NFTmarket.MarketItem[]",
          "name": "",
          "type": "tuple[]"
        }
      ],
      "stateMutability": "view",
      "type": "function"
    },
    {
      "inputs": [
        {
          "internalType": "uint256",
          "name": "itemId",
          "type": "uint256"
        }
      ],
      "name": "fetchNFTDetails",
      "outputs": [
        {
          "components": [
            {
              "internalType": "uint256",
              "name": "itemId",
              "type": "uint256"
            },
            {
              "internalType": "address",
              "name": "nftContract",
              "type": "address"
            },
            {
              "internalType": "uint256",
              "name": "tokenId",
              "type": "uint256"
            },
            {
              "internalType": "address payable",
              "name": "creator",
              "type": "address"
            },
            {
              "internalType": "address payable",
              "name": "seller",
              "type": "address"
            },
            {
              "internalType": "address payable",
              "name": "owner",
              "type": "address"
            },
            {
              "internalType": "uint256",
              "name": "price",
              "type": "uint256"
            },
            {
              "internalType": "bool",
              "name": "sold",
              "type": "bool"
            },
            {
              "internalType": "bool",
              "name": "relisted",
              "type": "bool"
            }
          ],
          "internalType": "struct NFTmarket.MarketItem",
          "name": "",
          "type": "tuple"
        }
      ],
      "stateMutability": "view",
      "type": "function"
    },
    {
      "inputs": [],
      "name": "getListingPrice",
      "outputs": [
        {
          "internalType": "uint256",
          "name": "",
          "type": "uint256"
        }
      ],
      "stateMutability": "view",
      "type": "function"
    },
    {
      "inputs": [
        {
          "internalType": "uint256",
          "name": "",
          "type": "uint256"
        }
      ],
      "name": "idToMarketItem",
      "outputs": [
        {
          "internalType": "uint256",
          "name": "itemId",
          "type": "uint256"
        },
        {
          "internalType": "address",
          "name": "nftContract",
          "type": "address"
        },
        {
          "internalType": "uint256",
          "name": "tokenId",
          "type": "uint256"
        },
        {
          "internalType": "address payable",
          "name": "creator",
          "type": "address"
        },
        {
          "internalType": "address payable",
          "name": "seller",
          "type": "address"
        },
        {
          "internalType": "address payable",
          "name": "owner",
          "type": "address"
        },
        {
          "internalType": "uint256",
          "name": "price",
          "type": "uint256"
        },
        {
          "internalType": "bool",
          "name": "sold",
          "type": "bool"
        },
        {
          "internalType": "bool",
          "name": "relisted",
          "type": "bool"
        }
      ],
      "stateMutability": "view",
      "type": "function"
    },
    {
      "inputs": [],
      "name": "listingPrice",
      "outputs": [
        {
          "internalType": "uint256",
          "name": "",
          "type": "uint256"
        }
      ],
      "stateMutability": "view",
      "type": "function"
    },
    {
      "inputs": [],
      "name": "owner",
      "outputs": [
        {
          "internalType": "address payable",
          "name": "",
          "type": "address"
        }
      ],
      "stateMutability": "view",
      "type": "function"
    },
    {
      "inputs": [
        {
          "internalType": "address payable",
          "name": "nftContract",
          "type": "address"
        },
        {
          "internalType": "uint256",
          "name": "itemId",
          "type": "uint256"
        },
        {
          "internalType": "uint256",
          "name": "newPrice",
          "type": "uint256"
        }
      ],
      "name": "relistToken",
      "outputs": [],
      "stateMutability": "payable",
      "type": "function"
    },
    {
      "stateMutability": "payable",
      "type": "receive"
    }
  ],
  "bytecode": "0x60806040526658d15e1762800060045534801561001b57600080fd5b50600160008190555033600360006101000a81548173ffffffffffffffffffffffffffffffffffffffff021916908373ffffffffffffffffffffffffffffffffffffffff160217905550612b30806100746000396000f3fe6080604052600436106100c65760003560e01c806387506a0d1161007f578063c23b139e11610059578063c23b139e14610246578063c78f19f914610262578063e61a70c01461028d578063f064c32e146102d2576100cd565b806387506a0d146101d45780638da5cb5b146101ff5780639300f0971461022a576100cd565b80630f08efe0146100cf57806312e85585146100fa578063202e37401461012557806334a7f1931461015057806358eb2df51461017b5780636a3bf9dd14610197576100cd565b366100cd57005b005b3480156100db57600080fd5b506100e46102fd565b6040516100f19190612120565b60405180910390f35b34801561010657600080fd5b5061010f610638565b60405161011c9190612151565b60405180910390f35b34801561013157600080fd5b5061013a610642565b6040516101479190612120565b60405180910390f35b34801561015c57600080fd5b50610165610c8c565b6040516101729190612151565b60405180910390f35b610195600480360381019061019091906121c9565b610c98565b005b3480156101a357600080fd5b506101be60048036038101906101b9919061221c565b611048565b6040516101cb9190612300565b60405180910390f35b3480156101e057600080fd5b506101e9611222565b6040516101f69190612151565b60405180910390f35b34801561020b57600080fd5b5061021461122e565b604051610221919061232b565b60405180910390f35b610244600480360381019061023f9190612372565b611254565b005b610260600480360381019061025b91906123c5565b611582565b005b34801561026e57600080fd5b506102776118e0565b6040516102849190612151565b60405180910390f35b34801561029957600080fd5b506102b460048036038101906102af919061221c565b6118e6565b6040516102c999989796959493929190612423565b60405180910390f35b3480156102de57600080fd5b506102e76119ce565b6040516102f49190612120565b60405180910390f35b6060600061030b6001611da2565b905060006103196002611da2565b6103236001611da2565b61032d91906124df565b90506000808267ffffffffffffffff81111561034c5761034b612513565b5b60405190808252806020026020018201604052801561038557816020015b610372611e7b565b81526020019060019003908161036a5790505b50905060005b8481101561062d57600073ffffffffffffffffffffffffffffffffffffffff16600560006001846103bc9190612542565b815260200190815260200160002060050160009054906101000a900473ffffffffffffffffffffffffffffffffffffffff1673ffffffffffffffffffffffffffffffffffffffff160361061a5760006001826104189190612542565b905060006005600083815260200190815260200160002090508060405180610120016040529081600082015481526020016001820160009054906101000a900473ffffffffffffffffffffffffffffffffffffffff1673ffffffffffffffffffffffffffffffffffffffff1673ffffffffffffffffffffffffffffffffffffffff168152602001600282015481526020016003820160009054906101000a900473ffffffffffffffffffffffffffffffffffffffff1673ffffffffffffffffffffffffffffffffffffffff1673ffffffffffffffffffffffffffffffffffffffff1681526020016004820160009054906101000a900473ffffffffffffffffffffffffffffffffffffffff1673ffffffffffffffffffffffffffffffffffffffff1673ffffffffffffffffffffffffffffffffffffffff1681526020016005820160009054906101000a900473ffffffffffffffffffffffffffffffffffffffff1673ffffffffffffffffffffffffffffffffffffffff1673ffffffffffffffffffffffffffffffffffffffff168152602001600682015481526020016007820160009054906101000a900460ff161515151581526020016007820160019054906101000a900460ff1615151515815250508486815181106105fd576105fc612576565b5b60200260200101819052506001856106159190612542565b945050505b8080610625906125a5565b91505061038b565b508094505050505090565b6000600454905090565b606060006106506001611da2565b905060008060005b8381101561083c573373ffffffffffffffffffffffffffffffffffffffff16600560006001846106889190612542565b815260200190815260200160002060050160009054906101000a900473ffffffffffffffffffffffffffffffffffffffff1673ffffffffffffffffffffffffffffffffffffffff16036106e9576001836106e29190612542565b9250610829565b3373ffffffffffffffffffffffffffffffffffffffff16600560006001846107119190612542565b815260200190815260200160002060030160009054906101000a900473ffffffffffffffffffffffffffffffffffffffff1673ffffffffffffffffffffffffffffffffffffffff16141580156107d457503373ffffffffffffffffffffffffffffffffffffffff166005600060018461078a9190612542565b815260200190815260200160002060040160009054906101000a900473ffffffffffffffffffffffffffffffffffffffff1673ffffffffffffffffffffffffffffffffffffffff16145b8015610813575060001515600560006001846107f09190612542565b815260200190815260200160002060070160009054906101000a900460ff161515145b15610828576001836108259190612542565b92505b5b8080610834906125a5565b915050610658565b5060008267ffffffffffffffff81111561085957610858612513565b5b60405190808252806020026020018201604052801561089257816020015b61087f611e7b565b8152602001906001900390816108775790505b50905060005b84811015610c81573373ffffffffffffffffffffffffffffffffffffffff16600560006001846108c89190612542565b815260200190815260200160002060050160009054906101000a900473ffffffffffffffffffffffffffffffffffffffff1673ffffffffffffffffffffffffffffffffffffffff161480610a4257503373ffffffffffffffffffffffffffffffffffffffff166005600060018461093f9190612542565b815260200190815260200160002060030160009054906101000a900473ffffffffffffffffffffffffffffffffffffffff1673ffffffffffffffffffffffffffffffffffffffff1614158015610a0257503373ffffffffffffffffffffffffffffffffffffffff16600560006001846109b89190612542565b815260200190815260200160002060040160009054906101000a900473ffffffffffffffffffffffffffffffffffffffff1673ffffffffffffffffffffffffffffffffffffffff16145b8015610a4157506000151560056000600184610a1e9190612542565b815260200190815260200160002060070160009054906101000a900460ff161515145b5b15610c6e57600060056000600184610a5a9190612542565b815260200190815260200160002060000154905060006005600083815260200190815260200160002090508060405180610120016040529081600082015481526020016001820160009054906101000a900473ffffffffffffffffffffffffffffffffffffffff1673ffffffffffffffffffffffffffffffffffffffff1673ffffffffffffffffffffffffffffffffffffffff168152602001600282015481526020016003820160009054906101000a900473ffffffffffffffffffffffffffffffffffffffff1673ffffffffffffffffffffffffffffffffffffffff1673ffffffffffffffffffffffffffffffffffffffff1681526020016004820160009054906101000a900473ffffffffffffffffffffffffffffffffffffffff1673ffffffffffffffffffffffffffffffffffffffff1673ffffffffffffffffffffffffffffffffffffffff1681526020016005820160009054906101000a900473ffffffffffffffffffffffffffffffffffffffff1673ffffffffffffffffffffffffffffffffffffffff1673ffffffffffffffffffffffffffffffffffffffff168152602001600682015481526020016007820160009054906101000a900460ff161515151581526020016007820160019054906101000a900460ff161515151581525050848681518110610c5157610c50612576565b5b6020026020010181905250600185610c699190612542565b945050505b8080610c79906125a5565b915050610898565b508094505050505090565b60018060000154905081565b610ca0611db0565b60008111610ce3576040517f08c379a0000000000000000000000000000000000000000000000000000000008152600401610cda9061264a565b60405180910390fd5b6004543414610d27576040517f08c379a0000000000000000000000000000000000000000000000000000000008152600401610d1e906126dc565b60405180910390fd5b610d316001611dff565b6000610d3d6001611da2565b90506040518061012001604052808281526020018573ffffffffffffffffffffffffffffffffffffffff1681526020018481526020013373ffffffffffffffffffffffffffffffffffffffff1681526020013373ffffffffffffffffffffffffffffffffffffffff168152602001600073ffffffffffffffffffffffffffffffffffffffff16815260200183815260200160001515815260200160001515815250600560008381526020019081526020016000206000820151816000015560208201518160010160006101000a81548173ffffffffffffffffffffffffffffffffffffffff021916908373ffffffffffffffffffffffffffffffffffffffff1602179055506040820151816002015560608201518160030160006101000a81548173ffffffffffffffffffffffffffffffffffffffff021916908373ffffffffffffffffffffffffffffffffffffffff16021790555060808201518160040160006101000a81548173ffffffffffffffffffffffffffffffffffffffff021916908373ffffffffffffffffffffffffffffffffffffffff16021790555060a08201518160050160006101000a81548173ffffffffffffffffffffffffffffffffffffffff021916908373ffffffffffffffffffffffffffffffffffffffff16021790555060c0820151816006015560e08201518160070160006101000a81548160ff0219169083151502179055506101008201518160070160016101000a81548160ff0219169083151502179055509050508373ffffffffffffffffffffffffffffffffffffffff166323b872dd3330866040518463ffffffff1660e01b8152600401610fac939291906126fc565b600060405180830381600087803b158015610fc657600080fd5b505af1158015610fda573d6000803e3d6000fd5b50505050828473ffffffffffffffffffffffffffffffffffffffff16827fa3b15201f5409f14cce6233dc60972278c313ff3ddbdee57ff092c0e95313526333360008860008060405161103296959493929190612733565b60405180910390a450611043611e15565b505050565b611050611e7b565b6005600083815260200190815260200160002060405180610120016040529081600082015481526020016001820160009054906101000a900473ffffffffffffffffffffffffffffffffffffffff1673ffffffffffffffffffffffffffffffffffffffff1673ffffffffffffffffffffffffffffffffffffffff168152602001600282015481526020016003820160009054906101000a900473ffffffffffffffffffffffffffffffffffffffff1673ffffffffffffffffffffffffffffffffffffffff1673ffffffffffffffffffffffffffffffffffffffff1681526020016004820160009054906101000a900473ffffffffffffffffffffffffffffffffffffffff1673ffffffffffffffffffffffffffffffffffffffff1673ffffffffffffffffffffffffffffffffffffffff1681526020016005820160009054906101000a900473ffffffffffffffffffffffffffffffffffffffff1673ffffffffffffffffffffffffffffffffffffffff1673ffffffffffffffffffffffffffffffffffffffff168152602001600682015481526020016007820160009054906101000a900460ff161515151581526020016007820160019054906101000a900460ff1615151515815250509050919050565b60028060000154905081565b600360009054906101000a900473ffffffffffffffffffffffffffffffffffffffff1681565b61125c611db0565b813373ffffffffffffffffffffffffffffffffffffffff166005600083815260200190815260200160002060050160009054906101000a900473ffffffffffffffffffffffffffffffffffffffff1673ffffffffffffffffffffffffffffffffffffffff1614611301576040517f08c379a00000000000000000000000000000000000000000000000000000000081526004016112f890612806565b60405180910390fd5b6000600560008581526020019081526020016000206002015490506000831161135f576040517f08c379a00000000000000000000000000000000000000000000000000000000081526004016113569061264a565b60405180910390fd5b60045434146113a3576040517f08c379a000000000000000000000000000000000000000000000000000000000815260040161139a90612898565b60405180910390fd5b60008590508073ffffffffffffffffffffffffffffffffffffffff1663f5537ede3330856040518463ffffffff1660e01b81526004016113e5939291906126fc565b600060405180830381600087803b1580156113ff57600080fd5b505af1158015611413573d6000803e3d6000fd5b5050505060006005600087815260200190815260200160002060050160006101000a81548173ffffffffffffffffffffffffffffffffffffffff021916908373ffffffffffffffffffffffffffffffffffffffff160217905550336005600087815260200190815260200160002060040160006101000a81548173ffffffffffffffffffffffffffffffffffffffff021916908373ffffffffffffffffffffffffffffffffffffffff16021790555083600560008781526020019081526020016000206006018190555060006005600087815260200190815260200160002060070160006101000a81548160ff02191690831515021790555060016005600087815260200190815260200160002060070160016101000a81548160ff0219169083151502179055506115456002611e1f565b847f221866c21613d6f0d77d42f9309b122a25deed1bc186cff9c2f1ddafc52c34f660405160405180910390a250505061157d611e15565b505050565b61158a611db0565b6000600560008381526020019081526020016000206006015490506000600560008481526020019081526020016000206002015490506000831180156115d957506115d56001611da2565b8311155b611618576040517f08c379a000000000000000000000000000000000000000000000000000000000815260040161160f90612904565b60405180910390fd5b81341461165a576040517f08c379a000000000000000000000000000000000000000000000000000000000815260040161165190612996565b60405180910390fd5b6005600084815260200190815260200160002060070160009054906101000a900460ff16156116be576040517f08c379a00000000000000000000000000000000000000000000000000000000081526004016116b590612a02565b60405180910390fd5b6005600084815260200190815260200160002060040160009054906101000a900473ffffffffffffffffffffffffffffffffffffffff1673ffffffffffffffffffffffffffffffffffffffff166108fc349081150290604051600060405180830381858888f1935050505015801561173a573d6000803e3d6000fd5b508373ffffffffffffffffffffffffffffffffffffffff166323b872dd3033846040518463ffffffff1660e01b8152600401611778939291906126fc565b600060405180830381600087803b15801561179257600080fd5b505af11580156117a6573d6000803e3d6000fd5b50505050336005600085815260200190815260200160002060050160006101000a81548173ffffffffffffffffffffffffffffffffffffffff021916908373ffffffffffffffffffffffffffffffffffffffff16021790555060016005600085815260200190815260200160002060070160006101000a81548160ff02191690831515021790555060006005600085815260200190815260200160002060070160016101000a81548160ff0219169083151502179055506118676002611dff565b600360009054906101000a900473ffffffffffffffffffffffffffffffffffffffff1673ffffffffffffffffffffffffffffffffffffffff166108fc6004549081150290604051600060405180830381858888f193505050501580156118d1573d6000803e3d6000fd5b5050506118dc611e15565b5050565b60045481565b60056020528060005260406000206000915090508060000154908060010160009054906101000a900473ffffffffffffffffffffffffffffffffffffffff16908060020154908060030160009054906101000a900473ffffffffffffffffffffffffffffffffffffffff16908060040160009054906101000a900473ffffffffffffffffffffffffffffffffffffffff16908060050160009054906101000a900473ffffffffffffffffffffffffffffffffffffffff16908060060154908060070160009054906101000a900460ff16908060070160019054906101000a900460ff16905089565b606060006119dc6001611da2565b905060008060005b83811015611a84573373ffffffffffffffffffffffffffffffffffffffff1660056000600184611a149190612542565b815260200190815260200160002060030160009054906101000a900473ffffffffffffffffffffffffffffffffffffffff1673ffffffffffffffffffffffffffffffffffffffff1603611a7157600183611a6e9190612542565b92505b8080611a7c906125a5565b9150506119e4565b5060008267ffffffffffffffff811115611aa157611aa0612513565b5b604051908082528060200260200182016040528015611ada57816020015b611ac7611e7b565b815260200190600190039081611abf5790505b50905060005b84811015611d97573373ffffffffffffffffffffffffffffffffffffffff1660056000600184611b109190612542565b815260200190815260200160002060030160009054906101000a900473ffffffffffffffffffffffffffffffffffffffff1673ffffffffffffffffffffffffffffffffffffffff1603611d8457600060056000600184611b709190612542565b815260200190815260200160002060000154905060006005600083815260200190815260200160002090508060405180610120016040529081600082015481526020016001820160009054906101000a900473ffffffffffffffffffffffffffffffffffffffff1673ffffffffffffffffffffffffffffffffffffffff1673ffffffffffffffffffffffffffffffffffffffff168152602001600282015481526020016003820160009054906101000a900473ffffffffffffffffffffffffffffffffffffffff1673ffffffffffffffffffffffffffffffffffffffff1673ffffffffffffffffffffffffffffffffffffffff1681526020016004820160009054906101000a900473ffffffffffffffffffffffffffffffffffffffff1673ffffffffffffffffffffffffffffffffffffffff1673ffffffffffffffffffffffffffffffffffffffff1681526020016005820160009054906101000a900473ffffffffffffffffffffffffffffffffffffffff1673ffffffffffffffffffffffffffffffffffffffff1673ffffffffffffffffffffffffffffffffffffffff168152602001600682015481526020016007820160009054906101000a900460ff161515151581526020016007820160019054906101000a900460ff161515151581525050848681518110611d6757611d66612576565b5b6020026020010181905250600185611d7f9190612542565b945050505b8080611d8f906125a5565b915050611ae0565b508094505050505090565b600081600001549050919050565b600260005403611df5576040517f08c379a0000000000000000000000000000000000000000000000000000000008152600401611dec90612a6e565b60405180910390fd5b6002600081905550565b6001816000016000828254019250508190555050565b6001600081905550565b60008160000154905060008111611e6b576040517f08c379a0000000000000000000000000000000000000000000000000000000008152600401611e6290612ada565b60405180910390fd5b6001810382600001819055505050565b60405180610120016040528060008152602001600073ffffffffffffffffffffffffffffffffffffffff16815260200160008152602001600073ffffffffffffffffffffffffffffffffffffffff168152602001600073ffffffffffffffffffffffffffffffffffffffff168152602001600073ffffffffffffffffffffffffffffffffffffffff168152602001600081526020016000151581526020016000151581525090565b600081519050919050565b600082825260208201905092915050565b6000819050602082019050919050565b6000819050919050565b611f6281611f4f565b82525050565b600073ffffffffffffffffffffffffffffffffffffffff82169050919050565b6000611f9382611f68565b9050919050565b611fa381611f88565b82525050565b6000611fb482611f68565b9050919050565b611fc481611fa9565b82525050565b60008115159050919050565b611fdf81611fca565b82525050565b61012082016000820151611ffc6000850182611f59565b50602082015161200f6020850182611f9a565b5060408201516120226040850182611f59565b5060608201516120356060850182611fbb565b5060808201516120486080850182611fbb565b5060a082015161205b60a0850182611fbb565b5060c082015161206e60c0850182611f59565b5060e082015161208160e0850182611fd6565b50610100820151612096610100850182611fd6565b50505050565b60006120a88383611fe5565b6101208301905092915050565b6000602082019050919050565b60006120cd82611f23565b6120d78185611f2e565b93506120e283611f3f565b8060005b838110156121135781516120fa888261209c565b9750612105836120b5565b9250506001810190506120e6565b5085935050505092915050565b6000602082019050818103600083015261213a81846120c2565b905092915050565b61214b81611f4f565b82525050565b60006020820190506121666000830184612142565b92915050565b600080fd5b61217a81611f88565b811461218557600080fd5b50565b60008135905061219781612171565b92915050565b6121a681611f4f565b81146121b157600080fd5b50565b6000813590506121c38161219d565b92915050565b6000806000606084860312156121e2576121e161216c565b5b60006121f086828701612188565b9350506020612201868287016121b4565b9250506040612212868287016121b4565b9150509250925092565b6000602082840312156122325761223161216c565b5b6000612240848285016121b4565b91505092915050565b610120820160008201516122606000850182611f59565b5060208201516122736020850182611f9a565b5060408201516122866040850182611f59565b5060608201516122996060850182611fbb565b5060808201516122ac6080850182611fbb565b5060a08201516122bf60a0850182611fbb565b5060c08201516122d260c0850182611f59565b5060e08201516122e560e0850182611fd6565b506101008201516122fa610100850182611fd6565b50505050565b6000610120820190506123166000830184612249565b92915050565b61232581611fa9565b82525050565b6000602082019050612340600083018461231c565b92915050565b61234f81611fa9565b811461235a57600080fd5b50565b60008135905061236c81612346565b92915050565b60008060006060848603121561238b5761238a61216c565b5b60006123998682870161235d565b93505060206123aa868287016121b4565b92505060406123bb868287016121b4565b9150509250925092565b600080604083850312156123dc576123db61216c565b5b60006123ea85828601612188565b92505060206123fb858286016121b4565b9150509250929050565b61240e81611f88565b82525050565b61241d81611fca565b82525050565b600061012082019050612439600083018c612142565b612446602083018b612405565b612453604083018a612142565b612460606083018961231c565b61246d608083018861231c565b61247a60a083018761231c565b61248760c0830186612142565b61249460e0830185612414565b6124a2610100830184612414565b9a9950505050505050505050565b7f4e487b7100000000000000000000000000000000000000000000000000000000600052601160045260246000fd5b60006124ea82611f4f565b91506124f583611f4f565b925082820390508181111561250d5761250c6124b0565b5b92915050565b7f4e487b7100000000000000000000000000000000000000000000000000000000600052604160045260246000fd5b600061254d82611f4f565b915061255883611f4f565b92508282019050808211156125705761256f6124b0565b5b92915050565b7f4e487b7100000000000000000000000000000000000000000000000000000000600052603260045260246000fd5b60006125b082611f4f565b91507fffffffffffffffffffffffffffffffffffffffffffffffffffffffffffffffff82036125e2576125e16124b0565b5b600182019050919050565b600082825260208201905092915050565b7f5072696365206d757374206265206174206c6561737420312077656900000000600082015250565b6000612634601c836125ed565b915061263f826125fe565b602082019050919050565b6000602082019050818103600083015261266381612627565b9050919050565b7f56616c75652070616964206d75737420626520657175616c20746f206c69737460008201527f696e672070726963650000000000000000000000000000000000000000000000602082015250565b60006126c66029836125ed565b91506126d18261266a565b604082019050919050565b600060208201905081810360008301526126f5816126b9565b9050919050565b60006060820190506127116000830186612405565b61271e6020830185612405565b61272b6040830184612142565b949350505050565b600060c0820190506127486000830189612405565b6127556020830188612405565b6127626040830187612405565b61276f6060830186612142565b61277c6080830185612414565b61278960a0830184612414565b979650505050505050565b7f4f6e6c792070726f64756374206f776e65722063616e20646f2074686973206f60008201527f7065726174696f6e000000000000000000000000000000000000000000000000602082015250565b60006127f06028836125ed565b91506127fb82612794565b604082019050919050565b6000602082019050818103600083015261281f816127e3565b9050919050565b7f5072696365206d75737420626520657175616c20746f206c697374696e67207060008201527f7269636500000000000000000000000000000000000000000000000000000000602082015250565b60006128826024836125ed565b915061288d82612826565b604082019050919050565b600060208201905081810360008301526128b181612875565b9050919050565b7f4974656d20646f65736e27742065786973740000000000000000000000000000600082015250565b60006128ee6012836125ed565b91506128f9826128b8565b602082019050919050565b6000602082019050818103600083015261291d816128e1565b9050919050565b7f506c65617365207375626d6974207468652061736b696e67207072696365206960008201527f6e206f7264657220746f20636f6d706c65746520746865207075726368617365602082015250565b60006129806040836125ed565b915061298b82612924565b604082019050919050565b600060208201905081810360008301526129af81612973565b9050919050565b7f4974656d20616c726561647920736f6c64000000000000000000000000000000600082015250565b60006129ec6011836125ed565b91506129f7826129b6565b602082019050919050565b60006020820190508181036000830152612a1b816129df565b9050919050565b7f5265656e7472616e637947756172643a207265656e7472616e742063616c6c00600082015250565b6000612a58601f836125ed565b9150612a6382612a22565b602082019050919050565b60006020820190508181036000830152612a8781612a4b565b9050919050565b7f436f756e7465723a2064656372656d656e74206f766572666c6f770000000000600082015250565b6000612ac4601b836125ed565b9150612acf82612a8e565b602082019050919050565b60006020820190508181036000830152612af381612ab7565b905091905056fea2646970667358221220354eb392639f540f20ee95e903353075d154549cbdc101c691154963cf5860e364736f6c63430008120033",
  "linkReferences": {},
  "deployedLinkReferences": {}
}